:100000000C9405010C9418110C9449110C947A115C
:100010000C94AB110C94DC110C940D120C943E1248
:100020000C946F120C9432010C9432090C94B308A6
:100030000C9432010C9432010C9432010C94320174
:100040000C9432010C9432010C9432010C94320164
:100050000C9432010C9432010C9432010C94A012D5
:100060000C9432010C94190B0C94150C0C94320165
:100070000C9432010C9432010C9432010C94320134
:100080000C9432010C9432010C9432010C94320124
:100090000C94580B0C94540C0C9432010C94D30116
:1000A0000C9432010C9432010C9432010C94320104
:1000B0000C9432010C9432010C9432010C943201F4
:1000C0000C9432010C9432010C9432010C94970B75
:1000D0000C94930C0C9432010C94D60B0C94D20C0F
:1000E0000C94320100002100240027002A002D007A
:1000F0003000330001010000040107010A01000083
:100100002200250028002B002E00310034000201BF
:100110000000050108010B0100002000230026005B
:1001200029002C002F00320000010000030106010D
:10013000090105050505070508080808020202026D
:100140000A0A080804040404010101010101010173
:100150000303030303030303040707070C0C0C0C3E
:100160000C0C0C0C02020202060606060606060627
:100170000B0B0B0B0B0B0B0B0102102020080810B4
:100180002040102040800201020108040201010207
:1001900004081020408080402010080402018004E0
:1001A000020180402010080402010804020101023B
:1001B0000408102040800102040810204080000044
:1001C000090A02080B0C0D070603040100000000D9
:1001D000000000000000000000000000000000001F
:1001E0000000000000000000000011100F000000DF
:1001F00000000000000000000000000000000000FF
:10020000000000007704420E780F11241FBECFEFCC
:10021000D1E2DEBFCDBF00E00CBF12E0A0E0B2E053
:10022000E8ECFCE300E00BBF02C007900D92A83B96
:10023000B107D9F71BBE16E0A8EBB2E001C01D92D2
:10024000AA3AB107E1F712E0CAE0D2E004C022976F
:10025000FE010E945E1EC430D107C9F70E94671AD2
:100260000C94621E0C940000382F413210F040E0D4
:1002700042C080913E038823E1F791E090933E03D2
:1002800020933C038FEF80933F0310921A03415059
:1002900040931B034F5F9093190380911903330F11
:1002A000832B8093190380913D03813041F4109298
:1002B0003D03809119038093BB0085EC01C085EE5E
:1002C0008093BC0080913E038130E1F380911A035A
:1002D000841710F440911A0320E030E00AC0FB01BB
:1002E000E20FF31FD901A45EBC4F8C9180832F5F76
:1002F0003F4F2417A0F3842F08950F931F93582F77
:10030000122F413210F081E045C080913E038823D6
:10031000E1F782E080933E0300933C038FEF8093EC
:100320003F0310921A0340931B03ACE1B3E0FB01BF
:1003300002C081918D938E2F861B8417D0F310926B
:10034000190380911903550F852B80931903809110
:100350003D03813041F410923D0380911903809355
:10036000BB0085EC01C085EE8093BC001123A9F091
:1003700080913E03823089F4FBCF80913F0380322D
:1003800011F482E007C080913F03803311F084E0D4
:1003900001C083E01F910F91089580913F038F3F2B
:1003A00061F780E0F7CF1F920F920FB60F920BB656
:1003B0000F9211242F933F934F935F936F937F93EB
:1003C0008F939F93AF93BF93EF93FF938091B90067
:1003D00090E0887F90708036910509F4F2C08136F4
:1003E0009105CCF58832910509F47BC089329105DD
:1003F000B4F48031910509F46FC0813191053CF46A
:10040000009709F447C1089709F04FC165C08831CA
:10041000910509F466C0809709F047C182C0803415
:10042000910509F4A4C08134910544F48033910509
:1004300009F482C0C89709F038C189C08035910598
:1004400009F489C08835910509F496C0883491056E
:1004500009F02BC1AEC08839910509F413C189395F
:100460009105ECF48837910509F4ABC08937910503
:100470004CF48836910509F4A4C08037910509F041
:1004800014C19FC08838910509F4FCC080399105DA
:1004900009F49DC08038910509F007C198C0803BE0
:1004A000910509F4C6C0813B91054CF4803A910551
:1004B00009F49FC0883A910509F0F7C0BAC0803CA2
:1004C000910509F4E3C0883C910509F4DFC0883B3D
:1004D000910509F0EAC0C2C0809119038093BB0066
:1004E000CFC090911A0380911B03981768F49091E4
:1004F0001A03E92FF0E0E45EFC4F80818093BB009B
:100500009F5F90931A03BCC080913C03882309F439
:100510004BC085ED8093BC008091BC0084FDFCCF76
:10052000C2C080E280933F0385ED8093BC00809140
:10053000BC0084FDFCCFB7C080E380933F0385ED12
:100540008093BC008091BC0084FDFCCFACC088E3EC
:1005500080933F039BC080911A039091BB00E82FCA
:10056000F0E0E45EFC4F90838F5F80931A039091DC
:100570001A0380911B0382C080911A039091BB00E3
:10058000E82FF0E0E45EFC4F90838F5F80931A03C6
:1005900080913C03882341F085ED8093BC008091DD
:1005A000BC0084FDFCCF7FC081E080933D0384EAE2
:1005B0006EC085ED8093BC008091BC0084FDFCCFB3
:1005C00072C083E080933E031092400359C0809133
:1005D0004003803208F056C0809140039091BB00E8
:1005E000E82FF0E0EF5BFC4F90838F5F8093400338
:1005F00047C080914003803230F4E0914003F0E046
:10060000EF5BFC4F108285ED8093BC008091BC00B5
:1006100084FDFCCF10923E0360914003E0916103A2
:10062000F091620381E493E070E019951092400329
:100630002DC084E080933E03109263031092640304
:10064000E0916503F0916603199580916403882316
:1006500029F481E08093640310926703909163030F
:10066000E92FF0E0E959FC4F80818093BB009F5F48
:10067000909363039091630380916403981710F43F
:1006800085EC01C085E88093BC000FC085EC8093A9
:10069000BC0009C010923F0385ED8093BC0080919F
:1006A000BC0084FDFCCF10923E03FF91EF91BF91FF
:1006B000AF919F918F917F916F915F914F913F91FA
:1006C0002F910F900BBE0F900FBE0F901F9018959B
:1006D000413208F040E2862F68EB72E00E9434015C
:1006E0001092D8028093D902089521E00E946803F5
:1006F00008950F93062F8091DA026BED72E040911E
:10070000FC0221E00E947D011092FB021092FC028B
:100710001092FD020F91089561E00E9479030895FF
:10072000DF93CF930F92CDB7DEB7FC016983809141
:10073000FD028823C9F08091FC02803238F081E00C
:1007400090E09383828320E030E01AC08091FB0226
:10075000E82FF0E0E552FD4F998190838F5F809301
:10076000FB028093FC020AC080913E03843031F486
:1007700081E08093640389818093670321E030E006
:10078000C9010F90CF91DF910895CF92DF92EF9240
:10079000FF920F931F93CF93DF936C018B017A012C
:1007A0008091FD028823A1F0C0E0D0E00DC0D60109
:1007B000ED91FC91D801AC0FBD1F0190F081E02DAF
:1007C000C6016C9119952196CE15DF0580F313C0F3
:1007D000413288F480913E03843069F4E0926403EE
:1007E000562FA7E6B3E0FB0102C081918D938E2FB7
:1007F000851B8417D0F3C701DF91CF911F910F9113
:10080000FF90EF90DF90CF9008952091D90230E0D3
:100810008091D802281B3109C90108954091D8025E
:100820008091D902481718F02FEF3FEF0AC0E42F4C
:10083000F0E0E854FD4F8081282F30E04F5F409377
:10084000D802C9010895E091D8028091D902E81731
:1008500018F0EFEFFFEF06C0F0E0E854FD4F8081A5
:10086000E82FF0E0CF0108950895FF920F931F93B2
:10087000CF93DF93F42E122F032F91E09093FD027C
:100880008093DA021092FB021092FC028EEF92E04B
:100890000E949003212F302FC901EC0110E006C007
:1008A0008EEF92E069910E9490031F5F1F15C0F3C5
:1008B0008EEF92E00E948C0390E0882309F491E08F
:1008C000892FDF91CF911F910F91FF900895DF93B2
:1008D000CF930F92CDB7DEB7498341E09E012F5FE2
:1008E0003F4F0E9435040F90CF91DF9108951092F1
:1008F00001031092000388EE93E0A0E0B0E0809343
:10090000020390930303A0930403B093050384E9C7
:1009100092E09093FF028093FE0288E680930A03A0
:1009200008952F923F924F925F926F927F928F9293
:100930009F92AF92BF92CF92DF92EF92FF920F936E
:100940001F93DF93CF9300D00F920F92CDB7DEB7F6
:10095000882E6983942E3B832A830E94E8125B01D0
:100960006C01FF24EE24292C3324280166247724EB
:1009700061C021E02093FD028092DA021092FB0216
:100980001092FC028EEF92E069810E9490038EEF3C
:1009900092E00E948C0331E03093FD028092DA02F3
:1009A0001092FB021092FC02A1014E195109413232
:1009B000510514F040E250E08EEF92E0682D0E9465
:1009C00075038F2D992787FD9095EA81FB818E0F06
:1009D0009F1F9D838C830FC0E92FF0E0E854FD4FEB
:1009E0008081282F9F5F9093D802EC81FD81219315
:1009F000FD83EC83F3949091D9028091D8029817EB
:100A000009F450C00115110561F00E94E8126A193D
:100A10007B098C099D09641575058605970508F005
:100A200041C09091D8028091D9029817A8F22FEF77
:100A30003FEFDBCFE91408F49CCF01151105C9F095
:100A40000E94E8126A197B098C099D09980140E00F
:100A500050E0621773078407950758F02F2D33274E
:100A600027FD3095892D90E02817390714F4FF24CD
:100A7000FA948F2D0F900F900F900F900F90CF91B1
:100A8000DF911F910F91FF90EF90DF90CF90BF907B
:100A9000AF909F908F907F906F905F904F903F901E
:100AA0002F9008958EEF92E00E948C03892DF0E242
:100AB000F91508F480E2E80EBDCFEF92FF920F9394
:100AC0001F937C019C012F5F3F4F009119021091F1
:100AD0001A02FC01808163E442E00E949104F70164
:100AE000918180E0228130E0282B392BC9011F91B0
:100AF0000F91FF90EF900895EF92FF920F931F9345
:100B00007C019C012F5F3F4F0091190210911A0246
:100B1000FC0180816FE342E00E949104F701918122
:100B200080E0228130E0282B392BC9011F910F91E1
:100B3000FF90EF900895EF92FF920F931F937C0127
:100B40009C012F5F3F4F0091190210911A02FC0186
:100B500080816DE342E00E949104F701918180E081
:100B6000228130E0282B392BC9011F910F91FF9072
:100B7000EF900895EF92FF920F931F93CF93DF931F
:100B8000EC018B017A01F90160817181828193818D
:100B900020E030E040E85FE30E94C21B8823A1F41C
:100BA0008AE093E00E945D05998388838AE093E060
:100BB0000E949B05F801918380838AE093E00E9464
:100BC0007C05F70191838083DF91CF911F910F9175
:100BD000FF90EF9008950F931F93FA01890141E070
:100BE0009F010E9491041F910F910895DF92EF924F
:100BF000FF920F931F93DF93CF930F92CDB7DEB782
:100C0000E82ED62EF42E122F2091190230911A02BE
:100C1000AE014F5F5F4F0E94EB05882341F1212F0A
:100C200030E04F2D50E04F5F5F4F421B530B81E090
:100C300090E002C0880F991F1A95E2F70197042EE1
:100C400002C0880F991F0A94E2F7202F30E002C0FB
:100C5000220F331F4A95E2F7482F409559814523CB
:100C60008223482B49838E2D6D2D0E9467040F909F
:100C7000CF91DF911F910F91FF90EF90DF9008953A
:100C80000F93FC01062F80816BE642E023E00E9477
:100C9000F6050F9108950F93FC01062F80816CE1FA
:100CA00044E022E00E94F6050F9108950F93FC01A5
:100CB000062F80816BE144E022E00E94F6050F914F
:100CC00008950F93FC01062F80816AE142E023E042
:100CD0000E94F6050F910895EF92FF920F931F93D4
:100CE000DF93CF930F92CDB7DEB7F82EE62E042F09
:100CF000122F2091190230911A02AE014F5F5F4FFF
:100D00000E94EB052981112351F081E090E002C09F
:100D1000880F991F0A95E2F7422F482B0AC081E0FD
:100D200090E002C0880F991F0A95E2F7482F40957E
:100D3000422349838F2D6E2D0E9467040F90CF911F
:100D4000DF911F910F91FF90EF900895FC01262FE6
:100D500080816BE646E00E946C0608950F931F9316
:100D60008C0161E00E944006C80160E00E945606C6
:100D7000C80160E00E944B06C80160E00E94A60620
:100D80001F910F91089510923E0381E080933C03E0
:100D900010923D0384E161E00E94111585E161E05C
:100DA0000E941115E9EBF0E080818E7F80838081C5
:100DB0008D7F808388E48093B80085E48093BC00B5
:100DC00008951092D8021092D9021092FB0210924C
:100DD000FC020E94C3060895CF93DF93E901688166
:100DE00079818A819B8120E030E040E85FE30E94C6
:100DF000C21B8823A9F08EEF92E00E94E1068AE0F0
:100E000093E065E00E9461068AE093E00E94AE06EE
:100E100080E090E0A0E8BFE388839983AA83BB8346
:100E2000DF91CF9108958231910509F183319105C8
:100E300034F48230910579F00397E1F409C08431EC
:100E4000910579F0843191057CF0459799F406C0BD
:100E500021E030E011C020E030E00EC022E030E0C0
:100E60000BC023E030E008C024E030E005C025E0FE
:100E700030E002C02FEF3FEFC9010895CF92DF921B
:100E8000EF92FF920F931F93DF93CF93CDB7DEB70F
:100E90007C016B01FA0189016081718182819381FA
:100EA00020E030E040E85FE30E94C21B8823F1F4B9
:100EB000D801EC91F0E093E0EE0FFF1F9A95E1F777
:100EC000E557FC4F80819181F701918380831196D2
:100ED000EC91F0E083E0EE0FFF1F8A95E1F7E55714
:100EE000FC4F80819181D6018D939C93CF91DF91AE
:100EF0001F910F91FF90EF90DF90CF900895AF92E8
:100F0000BF92CF92DF92EF92FF920F931F93DF93E6
:100F1000CF93CDB7DEB76A018901DA016D917D917A
:100F20008D919C9120E030E040E85FE30E94C21B7D
:100F3000882309F40DC1D801EC91F0E0D7018C9120
:100F400090E053E0EE0FFF1F5A95E1F7E957FC4F91
:100F500091838083D801EC91F0E0D5018C9190E0F1
:100F600043E0EE0FFF1F4A95E1F7E757FC4F9183EF
:100F70008083D8011196EC91F0E0D70111968C9105
:100F800090E033E0EE0FFF1F3A95E1F7E957FC4F91
:100F900091838083D8011196EC91F0E0D5011196F0
:100FA0008C9190E023E0EE0FFF1F2A95E1F7E757C1
:100FB000FC4F91838083D801EC91F0E0B3E0EE0F19
:100FC000FF1FBA95E1F7E957FC4F8081918160E0FE
:100FD0000E945E14D801EC91F0E0A3E0EE0FFF1F39
:100FE000AA95E1F7E757FC4F8081918160E00E946C
:100FF0005E14D8011196EC91F0E073E0EE0FFF1F44
:101000007A95E1F7E957FC4F8081918160E00E9479
:101010005E14D8011196EC91F0E063E0EE0FFF1F33
:101020006A95E1F7E757FC4F8081918160E00E946B
:101030005E14D801EC91F0E053E0EE0FFF1F5A95DB
:10104000E1F7E957FC4F8081918161E00E94111521
:10105000D801EC91F0E043E0EE0FFF1F4A95E1F775
:10106000E757FC4F8081918161E00E941115D80102
:101070001196EC91F0E033E0EE0FFF1F3A95E1F7A7
:10108000E957FC4F8081918161E00E941115D801E0
:101090001196EC91F0E023E0EE0FFF1F2A95E1F7A7
:1010A000E757FC4F8081918161E00E941115F801A2
:1010B0002081222319F0223071F515C08091870319
:1010C000909188030E9413076FEB7AE041E050E0B3
:1010D0000E949C108091890390918A030E941307BB
:1010E00065E67AE014C080919703909198030E947E
:1010F00013076BE07AE041E050E00E949C10809181
:10110000990390919A030E94130761EB79E041E003
:1011100050E00E949C108091680084608093680079
:101120008091680082608093680080916D0081608A
:1011300080936D0080916C00826080936C0080E0F1
:1011400090E0A0E8BFE3F60180839183A283B3839C
:10115000CF91DF911F910F91FF90EF90DF90CF9093
:10116000BF90AF9008951F920F920FB60F920BB6DB
:101170000F9211240F931F932F933F934F935F93DD
:101180006F937F938F939F93AF93BF93CF93DF938F
:10119000EF93FF9380918F03909190030E944415E9
:1011A000EC01009195031091960320E030E024C0FB
:1011B000B901882777FD8095982F0E94611C20E057
:1011C00030E040E050E00E945E1B20E030E040E074
:1011D00050E00E945E1B20E030E040E450E40E94BA
:1011E0005E1B20E030E040E450E40E945D1B0E9462
:1011F0002E1C9B012F5F3F4F20173107CCF28091AF
:101200009103909192030E944415019719F421973C
:1012100049F402C0CD2B31F4809193039091940353
:10122000019605C080919303909194030197909348
:10123000940380939303FF91EF91DF91CF91BF913E
:10124000AF919F918F917F916F915F914F913F915E
:101250002F911F910F910F900BBE0F900FBE0F900B
:101260001F9018951F920F920FB60F920BB60F9208
:1012700011240F931F932F933F934F935F936F937B
:101280007F938F939F93AF93BF93CF93DF93EF930E
:10129000FF9380919103909192030E944415EC0179
:1012A000009195031091960320E030E024C0B9012D
:1012B000882777FD8095982F0E94611C20E030E000
:1012C00040E050E00E945E1B20E030E040E050E053
:1012D0000E945E1B20E030E040E450E40E945E1B70
:1012E00020E030E040E450E40E945D1B0E942E1C90
:1012F0009B012F5F3F4F20173107CCF280918F0366
:10130000909190030E944415019719F4CD2B49F454
:1013100002C0219731F48091930390919403019638
:1013200005C0809193039091940301979093940347
:1013300080939303FF91EF91DF91CF91BF91AF9194
:101340009F918F917F916F915F914F913F912F91DD
:101350001F910F910F900BBE0F900FBE0F901F901B
:1013600018950F931F93CF93DF93809197039091DC
:1013700098030E944415EC0100919D0310919E0377
:1013800020E030E024C0B901882777FD8095982FB0
:101390000E94611C20E030E040E050E00E945E1BB3
:1013A00020E030E040E050E00E945E1B20E030E0B2
:1013B00040E450E40E945E1B20E030E040E450E452
:1013C0000E945D1B0E942E1C9B012F5F3F4F201728
:1013D0003107CCF28091990390919A030E944415B1
:1013E000019719F4219749F402C0CD2B31F4809173
:1013F0009B0390919C03019605C080919B03909163
:101400009C03019790939C0380939B03DF91CF9162
:101410001F910F9108950F931F93CF93DF938091A6
:10142000990390919A030E944415EC0100919D0349
:1014300010919E0320E030E024C0B901882777FD99
:101440008095982F0E94611C20E030E040E050E041
:101450000E945E1B20E030E040E050E00E945E1BF6
:1014600020E030E040E450E40E945E1B20E030E0E9
:1014700040E450E40E945D1B0E942E1C9B012F5FE4
:101480003F4F20173107CCF280919703909198033A
:101490000E944415019719F4CD2B49F402C02197FD
:1014A00031F480919B0390919C03019605C080913B
:1014B0009B0390919C03019790939C0380939B03C3
:1014C000DF91CF911F910F9108950F931F93CF93A9
:1014D000DF9380918703909188030E944415EC016B
:1014E00000918D0310918E0320E030E024C0B901FB
:1014F000882777FD8095982F0E94611C20E030E0BE
:1015000040E050E00E945E1B20E030E040E050E010
:101510000E945E1B20E030E040E450E40E945E1B2D
:1015200020E030E040E450E40E945D1B0E942E1C4D
:101530009B012F5F3F4F20173107CCF28091890329
:1015400090918A030E944415019719F4219749F458
:1015500002C0CD2B31F480918B0390918C030196C6
:1015600005C080918B0390918C03019790938C031D
:1015700080938B03DF91CF911F910F9108950F936B
:101580001F93CF93DF938091890390918A030E94E8
:101590004415EC0100918D0310918E0320E030E0A2
:1015A00024C0B901882777FD8095982F0E94611C7F
:1015B00020E030E040E050E00E945E1B20E030E0A0
:1015C00040E050E00E945E1B20E030E040E450E448
:1015D0000E945E1B20E030E040E450E40E945D1B6E
:1015E0000E942E1C9B012F5F3F4F20173107CCF22A
:1015F00080918703909188030E944415019719F404
:10160000CD2B49F402C0219731F480918B03909146
:101610008C03019605C080918B0390918C030197F8
:1016200090938C0380938B03DF91CF911F910F9147
:1016300008951F920F920FB60F920BB60F921124BE
:101640002F933F934F938F939F93EF93FF938091AB
:10165000C00082FD1DC04091C6002091DF03309183
:10166000E0032F5F3F4F2F7330708091E103909123
:10167000E2032817390771F0E091DF03F091E003EE
:10168000E156FC4F40833093E0032093DF0302C018
:101690008091C600FF91EF919F918F914F913F9163
:1016A0002F910F900BBE0F900FBE0F901F901895AB
:1016B0001F920F920FB60F920BB60F9211242F9319
:1016C0003F934F938F939F93EF93FF938091C80025
:1016D00082FD1DC04091CE002091670430916804C6
:1016E0002F5F3F4F2F7330708091690490916A048F
:1016F0002817390771F0E0916704F0916804E95DFB
:10170000FB4F4083309368042093670402C08091AC
:10171000CE00FF91EF919F918F914F913F912F912B
:101720000F900BBE0F900FBE0F901F9018951F9239
:101730000F920FB60F920BB60F9211242F933F9377
:101740004F938F939F93EF93FF938091D00082FDEF
:101750001DC04091D6002091EF043091F0042F5F1E
:101760003F4F2F7330708091F1049091F20428174D
:10177000390771F0E091EF04F091F004E155FB4F6F
:1017800040833093F0042093EF0402C08091D60090
:10179000FF91EF919F918F914F913F912F910F90DA
:1017A0000BBE0F900FBE0F901F9018951F920F92B7
:1017B0000FB60F920BB60F9211242F933F934F93B6
:1017C0008F939F93EF93FF938091300182FD1DC013
:1017D0004091360120917705309178052F5F3F4F7A
:1017E0002F7330708091790590917A052817390709
:1017F00071F0E0917705F0917805E95CFA4F40834C
:10180000309378052093770502C080913601FF91CF
:10181000EF919F918F914F913F912F910F900BBE20
:101820000F900FBE0F901F9018951F920F920FB63A
:101830000F920BB60F9211242F933F938F939F9388
:10184000EF93FF9320912304309124048091250489
:10185000909126042817390731F48091C1008F7DBB
:101860008093C10014C0E0912504F0912604ED514D
:10187000FC4F2081809125049091260401968F735E
:10188000907090932604809325042093C600FF91C6
:10189000EF919F918F913F912F910F900BBE0F90E1
:1018A0000FBE0F901F9018951F920F920FB60F92B8
:1018B0000BB60F9211242F933F938F939F93EF9327
:1018C000FF932091AB043091AC048091AD049091D2
:1018D000AE042817390731F48091C9008F7D8093B9
:1018E000C90014C0E091AD04F091AE04E559FB4F7E
:1018F00020818091AD049091AE0401968F73907019
:101900009093AE048093AD042093CE00FF91EF91AD
:101910009F918F913F912F910F900BBE0F900FBE13
:101920000F901F9018951F920F920FB60F920BB643
:101930000F9211242F933F938F939F93EF93FF93D5
:10194000209133053091340580913505909136050D
:101950002817390731F48091D1008F7D8093D10011
:1019600014C0E0913505F0913605ED50FB4F208114
:10197000809135059091360501968F739070909304
:101980003605809335052093D600FF91EF919F9106
:101990008F913F912F910F900BBE0F900FBE0F9024
:1019A0001F9018951F920F920FB60F920BB60F92C1
:1019B00011242F933F938F939F93EF93FF93209145
:1019C000BB053091BC058091BD059091BE052817DF
:1019D000390731F4809131018F7D8093310114C03A
:1019E000E091BD05F091BE05E558FA4F2081809148
:1019F000BD059091BE0501968F7390709093BE05C2
:101A00008093BD0520933601FF91EF919F918F91B7
:101A10003F912F910F900BBE0F900FBE0F901F9014
:101A20001895AF92BF92DF92EF92FF920F931F93A0
:101A3000CF93DF93EC017A018B01DD24403081EEFE
:101A4000580780E0680780E0780711F0DD24D39420
:101A500091E0A92EB12CEC89FD89DD2069F0C5014A
:101A600008A002C0880F991F0A94E2F7808360E003
:101A700079E08DE390E005C0108260E874E88EE1C3
:101A800090E0A80197010E943A1E2150304040404A
:101A90005040569547953795279580E12030380777
:101AA00020F0DD2011F0DD24D6CFE889F9893083DC
:101AB000EA89FB89208319A2EE89FF89408121E010
:101AC00030E0C9010C8C02C0880F991F0A94E2F71C
:101AD000482B4083EE89FF894081C9010D8C02C0EB
:101AE000880F991F0A94E2F7482B4083EE89FF89FB
:101AF0004081C9010E8C02C0880F991F0A94E2F739
:101B0000482B4083EE89FF8980810F8C02C0220F11
:101B1000331F0A94E2F7209528232083DF91CF9189
:101B20001F910F91FF90EF90DF90BF90AF900895BD
:101B3000DC011C96ED91FC911D97E05CFF4F21911B
:101B4000319180819181281B390B2F733070C9012D
:101B50000895DC011C96ED91FC911D97E05CFF4F10
:101B600020813181E054F040DF01AE5BBF4F8D91A9
:101B70009C9111972817390719F42FEF3FEF07C0F1
:101B80008D919C91E80FF91F8081282F30E0C901C9
:101B90000895DC011C96ED91FC911D97E05CFF4FD0
:101BA00020813181E054F040DF01AE5BBF4F8D9169
:101BB0009C9111972817390719F42FEF3FEF10C0A8
:101BC0008D919C911197E80FF91F20818D919C9127
:101BD000119701968F73907011969C938E9330E0BD
:101BE000C9010895DC0191968C919197882339F071
:101BF0005496ED91FC915597808186FFF9CF91968F
:101C00001C920895CF93DF93EC01EE85FF85E05C95
:101C1000FF4F20813181E054F0402F5F3F4F2F7301
:101C20003070DF01AE5BBF4F8D919C9111972817EB
:101C30003907D1F3E05CFF4F80819181E054F0409F
:101C4000E80FF91F6083EE85FF85E05CFF4F31836D
:101C50002083EE89FF89208181E090E00F8C02C013
:101C6000880F991F0A94E2F7282B208381E089A32B
:101C7000EC89FD8980818064808381E090E0DF9140
:101C8000CF9108951F931092C2051092C10528EEBE
:101C900033E040E050E02093C3053093C405409307
:101CA000C5055093C60564EA72E07093C005609361
:101CB000BF058FE993E09093CC058093CB0583EE2D
:101CC00093E09093CE058093CD0585EC90E09093C2
:101CD000D0058093CF0584EC90E09093D20580935B
:101CE000D10580EC90E09093D4058093D30581ECEE
:101CF00090E09093D6058093D50582EC90E0909388
:101D0000D8058093D70586EC90E09093DA05809310
:101D1000D90514E01093DB05B3E0B093DC05A7E030
:101D2000A093DD05F5E0F093DE05E1E0E093DF054B
:101D30001092E4051092E3052093E5053093E60543
:101D40004093E7055093E8057093E2056093E10541
:101D500087E294E09093EE058093ED058BE694E0A6
:101D60009093F0058093EF058DEC90E09093F20551
:101D70008093F1058CEC90E09093F4058093F3054B
:101D800088EC90E09093F6058093F50589EC90E05F
:101D90009093F8058093F7058AEC90E09093FA050C
:101DA0008093F9058EEC90E09093FC058093FB0501
:101DB0001093FD05B093FE05A093FF05F093000678
:101DC000E09301061092060610920506209307067E
:101DD000309308064093090650930A067093040650
:101DE000609303068FEA94E09093100680930F06A9
:101DF00083EF94E0909312068093110685ED90E0B6
:101E0000909314068093130684ED90E09093160649
:101E10008093150680ED90E0909318068093170646
:101E200081ED90E090931A068093190682ED90E080
:101E300090931C0680931B0686ED90E090931E06FF
:101E400080931D0610931F06B0932006A0932106D1
:101E5000F0932206E093230610922806109227069C
:101E60002093290630932A0640932B0650932C0684
:101E7000709326066093250687E395E090933206DB
:101E8000809331068BE795E0909334068093330678
:101E900085E391E0909336068093350684E391E0E4
:101EA000909338068093370680E391E090933A064A
:101EB0008093390681E391E090933C0680933B0642
:101EC00082E391E090933E0680933D0686E391E0A5
:101ED0009093400680933F0610934106B0934206CC
:101EE000A0934306F0934406E09345061F9108959E
:101EF00084EB92E09093480680934706109249063F
:101F000010924A0610924B0610924C0608958F923A
:101F10009F92AF92BF92CF92DF92EF92FF920F9378
:101F20001F93CF93DF934C016B017C01AA24BB2448
:101F3000C0E0D0E0C601F70162814AE050E00E94B3
:101F40008A108C01C6016EE20E94F30F080F191F60
:101F5000A00EB11E21960894E11CF11CC330D105DE
:101F600049F7C601F40165814AE050E00E948A10F9
:101F70009501280F391FC901DF91CF911F910F9152
:101F8000FF90EF90DF90CF90BF90AF909F908F9099
:101F90000895CF92DF92EF92FF920F931F93CF930A
:101FA000DF937C016B018A01C0E0D0E00FC0D60155
:101FB0006D916D01D701ED91FC910190F081E02DC3
:101FC000C7011995C80FD91F0150104001151105FF
:101FD00071F7CE01DF91CF911F910F91FF90EF909C
:101FE000DF90CF900895DC01ED91FC910190F0819C
:101FF000E02D19950895CF93DF93EC0161157105DC
:1020000019F420E030E00FC0DB010D900020E9F76B
:102010001197A61BB70BE881F9810280F381E02DAF
:10202000AD0119959C01C901DF91CF9108954F929F
:102030005F927F928F929F92AF92BF92CF92DF92E8
:10204000EF92FF920F931F93DF93CF93CDB7DEB73D
:10205000A1970FB6F894DEBF0FBECDBF2C01742E32
:10206000CB01223008F42AE019A231E2C32ED12C90
:10207000CC0EDD1E822E9924AA24BB24672D752F39
:10208000A50194010E943A1E79018A01C801B70195
:10209000A50194010E941B1E472D461B0894C108F0
:1020A000D1084A3014F4405D01C0495CF601408318
:1020B000E114F1040105110521F07E2C5F2DC8010A
:1020C000DDCFC201B6010E94FB0FA1960FB6F894B6
:1020D000DEBF0FBECDBFCF91DF911F910F91FF905B
:1020E000EF90DF90CF90BF90AF909F908F907F90B8
:1020F0005F904F900895DC012115310541F4ED9179
:10210000FC910190F081E02D642F199508950E94B3
:1021100017100895EF92FF920F931F939A01E62EE6
:10212000FF2400E010E0B801A7010E947B101F917E
:102130000F91FF90EF900895883008F078C0E82F55
:10214000F0E0EE0FFF1FE35BF94F71836083833094
:10215000D9F0843030F4813009F444C0823060F426
:1021600039C0853051F18530D8F0863009F446C049
:10217000873009F05CC04FC0809169008C7F842B50
:1021800080936900E89A089580916900440F551F73
:10219000440F551F837F842B80936900E99A08952B
:1021A0008091690074E0440F551F7A95E1F78F7CA8
:1021B000842B80936900EA9A08958091690066E013
:1021C000440F551F6A95E1F78F73842B8093690044
:1021D000EB9A089580916A008C7F842B80936A002B
:1021E000EC9A089580916A00440F551F440F551FC3
:1021F000837F842B80936A00ED9A089580916A0012
:1022000024E0440F551F2A95E1F78F7C842B80939F
:102210006A00EE9A089580916A0096E0440F551F77
:102220009A95E1F78F73842B80936A00EF9A089553
:102230001F920F920FB60F920BB60F9211242F938D
:102240003F934F935F936F937F938F939F93AF933E
:10225000BF93EF93FF938091510690915206892B83
:1022600029F0E0915106F09152061995FF91EF91F6
:10227000BF91AF919F918F917F916F915F914F919E
:102280003F912F910F900BBE0F900FBE0F901F909C
:1022900018951F920F920FB60F920BB60F92112442
:1022A0002F933F934F935F936F937F938F939F935E
:1022B000AF93BF93EF93FF93809153069091540691
:1022C000892B29F0E0915306F09154061995FF915E
:1022D000EF91BF91AF919F918F917F916F915F919E
:1022E0004F913F912F910F900BBE0F900FBE0F900B
:1022F0001F9018951F920F920FB60F920BB60F9268
:1023000011242F933F934F935F936F937F938F93FA
:102310009F93AF93BF93EF93FF9380915506909156
:102320005606892B29F0E0915506F091560619952D
:10233000FF91EF91BF91AF919F918F917F916F919D
:102340005F914F913F912F910F900BBE0F900FBE59
:102350000F901F9018951F920F920FB60F920BB609
:102360000F9211242F933F934F935F936F937F931B
:102370008F939F93AF93BF93EF93FF9380915706F3
:1023800090915806892B29F0E0915706F091580654
:102390001995FF91EF91BF91AF919F918F917F918F
:1023A0006F915F914F913F912F910F900BBE0F90C6
:1023B0000FBE0F901F9018951F920F920FB60F929D
:1023C0000BB60F9211242F933F934F935F936F930C
:1023D0007F938F939F93AF93BF93EF93FF938091DE
:1023E0004D0690914E06892B29F0E0914D06F09113
:1023F0004E061995FF91EF91BF91AF919F918F91EB
:102400007F916F915F914F913F912F910F900BBEF4
:102410000F900FBE0F901F9018951F920F920FB63E
:102420000F920BB60F9211242F933F934F935F930C
:102430006F937F938F939F93AF93BF93EF93FF938C
:1024400080914F0690915006892B29F0E0914F061C
:10245000F09150061995FF91EF91BF91AF919F9127
:102460008F917F916F915F914F913F912F910F903D
:102470000BBE0F900FBE0F901F9018951F920F92DA
:102480000FB60F920BB60F9211242F933F934F93D9
:102490005F936F937F938F939F93AF93BF93EF93CC
:1024A000FF938091590690915A06892B29F0E0916B
:1024B0005906F0915A061995FF91EF91BF91AF918E
:1024C0009F918F917F916F915F914F913F912F914C
:1024D0000F900BBE0F900FBE0F901F9018951F927C
:1024E0000F920FB60F920BB60F9211242F933F93BA
:1024F0004F935F936F937F938F939F93AF93BF930C
:10250000EF93FF9380915B0690915C06892B29F0F5
:10251000E0915B06F0915C061995FF91EF91BF91F8
:10252000AF919F918F917F916F915F914F913F916B
:102530002F910F900BBE0F900FBE0F901F9018950C
:102540001F920F920FB60F9211242F933F938F93E8
:102550009F93AF93BF938091610690916206A09183
:102560006306B0916406309165060196A11DB11D08
:10257000232F2D5F2D3720F02D570196A11DB11D62
:10258000209365068093610690936206A09363068C
:10259000B093640680915D0690915E06A0915F06FF
:1025A000B09160060196A11DB11D80935D069093C8
:1025B0005E06A0935F06B0936006BF91AF919F91B6
:1025C0008F913F912F910F900FBE0F901F901895F4
:1025D0008FB7F894209161063091620640916306AE
:1025E000509164068FBFB901CA0108959FB7F8944E
:1025F00020915D0630915E0640915F065091600625
:1026000086B5A89B06C08F3F21F02F5F3F4F4F4FED
:102610005F4F9FBF542F432F322F2227280F311D8A
:10262000411D511D82E0220F331F441F551F8A9503
:10263000D1F7B901CA010895789484B5826084BD48
:1026400084B5816084BD85B5826085BD85B58160B6
:1026500085BDEEE6F0E0808181608083E1E8F0E016
:102660001082808182608083808181608083E0E845
:10267000F0E0808181608083E1EBF0E08081846024
:102680008083E0EBF0E0808181608083E1E9F0E02D
:10269000808182608083808181608083E0E9F0E0D6
:1026A000808181608083E1EAF0E0808182608083C4
:1026B000808181608083E0EAF0E0808181608083B6
:1026C000E1E2F1E0808182608083808181608083AB
:1026D000E0E2F1E0808181608083EAE7F0E08081E0
:1026E0008460808380818260808380818160808338
:1026F0008081806880831092C10008951F93CF93DA
:10270000DF93182FEB0161E00E945E14209709F41B
:10271000CAC0CF3FD10509F4C9C0E12FF0E0E254AF
:10272000FE4F8491893009F466C08A30B0F4843059
:10273000F1F1853040F4823059F1833070F5813009
:1027400009F0AEC020C0873009F443C0883008F0DB
:1027500048C0863009F0A4C034C08D3009F478C078
:102760008E3038F48B3009F45AC08C3008F066C0D3
:102770004CC0803109F480C0813109F487C08F30AA
:1027800009F08EC06FC084B5806884BDC7BD92C09B
:1027900084B5806284BDC8BD8DC080918000806892
:1027A00080938000D0938900C093880083C080917B
:1027B0008000806280938000D0938B00C0938A0059
:1027C00079C08091B00080688093B000C093B3005E
:1027D00071C08091B00080628093B000C093B4005B
:1027E00069C080919000806880939000D093990098
:1027F000C09398005FC080919000806280939000A9
:10280000D0939B00C0939A0055C08091900088603F
:1028100080939000D0939D00C0939C004BC080910A
:10282000A00080688093A0008091A0008F7B80939F
:10283000A000D093A900C093A8003CC08091A00044
:1028400080628093A000D093AB00C093AA0032C0F6
:102850008091A00088608093A000D093AD00C093C9
:10286000AC0028C080912001806880932001D09323
:102870002901C09328011EC08091200180628093AD
:102880002001D0932B01C0932A0114C08091200114
:10289000886080932001D0932D01C0932C010AC041
:1028A000C038D1051CF4812F60E002C0812F61E0A7
:1028B0000E941115DF91CF911F910895CF93DF935F
:1028C000482F50E0CA0188589E4FFC0134914E5C5D
:1028D0005E4FFA018491882369F190E0880F991F77
:1028E000FC01EC51FF4FA591B491FC01E250FF4F68
:1028F000C591D491662351F42FB7F8948C91932FFE
:10290000909589238C93888189230BC0623061F470
:102910002FB7F8948C91932F909589238C9388816D
:10292000832B88832FBF06C09FB7F8948C91832B8D
:102930008C939FBFDF91CF910895893009F449C0EE
:102940008A30A0F4843051F1853040F4823079F13E
:10295000833000F5813009F063C026C0873079F1FB
:10296000883098F5863009F05BC025C08D3009F4B9
:1029700042C08E3028F48B30B1F18C30C0F52DC0C0
:10298000803109F442C0813109F445C08F3009F02B
:1029900047C037C0809180008F7703C0809180004E
:1029A0008F7D80938000089584B58F7702C084B5B1
:1029B0008F7D84BD08958091B0008F7703C0809192
:1029C000B0008F7D8093B0000895809190008F7744
:1029D00007C0809190008F7D03C080919000877F19
:1029E0008093900008958091A0008F7707C0809118
:1029F000A0008F7D03C08091A000877F8093A000FE
:102A00000895809120018F7703C0809120018F7DF0
:102A100080932001089580912001877F8093200179
:102A20000895FF920F931F93F62E482F50E0CA018E
:102A300082549E4FFC012491CA0188589E4FFC018C
:102A400014914E5C5E4FFA0104910023C9F02223D9
:102A500019F0822F0E949D14E02FF0E0EE0FFF1F6F
:102A6000E250FF4FA591B4919FB7F894FF2021F455
:102A70008C911095812302C08C91812B8C939FBFE8
:102A80001F910F91FF9008950F931F93482F50E0CF
:102A9000CA0182549E4FFC012491CA0188589E4F5E
:102AA000FC0104914E5C5E4FFA011491112319F45C
:102AB00020E030E015C0222319F0822F0E949D14DF
:102AC000812F90E0880F991F885E9E4FFC01A59191
:102AD000B4918C9120E030E0802311F021E030E0CF
:102AE000C9011F910F9108958130910579F08230CD
:102AF00091051CF4892B39F008958230910549F035
:102B0000039781F40BC08FEB95E005C081EE95E053
:102B100002C083E096E00E94C90F089585E296E026
:102B20000E94C90F08958130910579F08230910596
:102B30001CF4892B39F008958230910549F00397F0
:102B400081F40BC08FEB95E005C081EE95E002C0EB
:102B500083E096E00E94110D089585E296E00E94C0
:102B6000110D0895089584E090E00E94201B1092BA
:102B700091061092900686E1EAE7F6E0DF011D92E9
:102B80008A95E9F784E1E6E6F6E0DF011D928A9591
:102B9000E9F78091470261E00E945E1480914B0248
:102BA00061E00E945E1480915F0290916002A091AA
:102BB0006102B09162028093660690936706A093CB
:102BC0006806B09369068091670290916802A091AF
:102BD0006902B0916A0280936A0690936B06A09393
:102BE0006C06B0936D0680916F0290917002A09177
:102BF0007102B091720280936E0690936F06A0935B
:102C00007006B093710680E090E0A0E0B0E08093A1
:102C1000720690937306A0937406B0937506809322
:102C2000760690937706A0937806B0937906089578
:102C30004F925F926F927F928F929F92AF92BF92CC
:102C4000CF92DF92EF92FF920F931F930BE512E06A
:102C500060915B0270915C0280915D0290915E02D6
:102C6000209182063091830640918406509185061A
:102C70000E94B81D9B01AC016091660670916706C9
:102C800080916806909169060E945E1B60936606BB
:102C9000709367068093680690936906609163025B
:102CA00070916402809165029091660220917E0687
:102CB00030917F0640918006509181060E94B81D98
:102CC0009B01AC0160916A0670916B0680916C0665
:102CD00090916D060E945E1B60936A0670936B066E
:102CE00080936C0690936D06B2E86B2EB6E07B2E57
:102CF00060916B0270916C0280916D0290916E02F6
:102D000020917A0630917B0640917C0650917D0699
:102D10000E94B81D9B01AC0160916E0670916F0618
:102D200080917006909171060E945E1B60936E0602
:102D300070936F068093700690937106B3016A5F7B
:102D40007F4FA2E74A2EA6E05A2EF801F196D8014D
:102D5000D396C3010496A201015D1F4F980102E0C2
:102D600010E07F01F2E0CF2ED12C5D01E2E08E2E4B
:102D7000912C0E947F07A301445F5F4F24E030E065
:102D8000420E531EC30108962AE030E0620E731E05
:102D9000B30192010E94EC061F910F91FF90EF90FA
:102DA000DF90CF90BF90AF909F908F907F906F906B
:102DB0005F904F9008952F923F924F925F926F9243
:102DC0007F928F929F92AF92BF92CF92DF92EF92BB
:102DD000FF920F931F93DF93CF93CDB7DEB7639727
:102DE0000FB6F894DEBF0FBECDBFA0906606B090C0
:102DF0006706C0906806D090690660912B027091BA
:102E00002C0280912D0290912E029058A6019501DE
:102E10000E94B81D20916E0630916F064091700699
:102E2000509171060E945D1B20913F02309140023B
:102E300040914102509142020E94B81D7B018C01D9
:102E400060937A0670937B0680937C0690937D0650
:102E50006091330270913402809135029091360274
:102E60009058A60195010E94B81D20916A063091E4
:102E70006B0640916C0650916D060E945E1BA80186
:102E800097010E945E1B688B798B8A8B9B8B40908D
:102E90004302509044026090450270904602A301A4
:102EA00092010E94B41D1816B4F040903B0250905D
:102EB0003C0260903D0270903E02688979898A895F
:102EC0009B89A30192010E94C21B87FD04C0488810
:102ED00059886A887B88C301B20120E030E040E273
:102EE00051E40E945E1B2DEC3CEC4CE455E40E9446
:102EF000B81D0E949C1C7B018C010E94151B88231D
:102F000009F0B9C2C801B7010E94EA1A882309F082
:102F1000B2C2C801B70120E030E040E857E40E94A7
:102F2000B61C9B01AC01CB01DA017C018D01B9011A
:102F3000CA0120E030E040E050E00E94C21B88233C
:102F400054F4C801B70190580E94331C2224332442
:102F5000261A370A05C0C801B7010E94331C1B019D
:102F600086E896E068E876E042E756E02AE832E054
:102F700002E010E0BCE8EB2EB2E0FB2EA2E0CA2E8D
:102F8000D12CFEE8AF2EF2E0BF2EE2E08E2E912C87
:102F90000E943E076BED7FE089EC90EC20912702C8
:102FA000309128024091290250912A020E94C61BAA
:102FB0007B018C016091860670918706882777FDDA
:102FC0008095982F0E94611C9B01AC01C801B7013C
:102FD0000E94B81D209123023091240240912502C5
:102FE000509126020E94B81D20E030E040E251E4FA
:102FF0000E945E1B2DEC3CEC4CE455E40E94B81D95
:103000000E949C1C7B018C010E94151B882309F0E7
:103010003DC2C801B7010E94EA1A882309F036C2EE
:10302000C801B70120E030E040E857E40E94B61C38
:103030009B01AC01CB01DA017C018D01B901CA0110
:1030400020E030E040E050E00E94C21B882354F4AE
:10305000C801B70190580E94331CCC24DD24C61A45
:10306000D70A05C0C801B7010E94331C6B016091EB
:10307000660670916706809168069091690620E067
:1030800030E040E251E40E945E1B2DEC3CEC4CE44D
:1030900055E40E94B81D0E949C1C7B018C010E947B
:1030A000151B882309F0FDC1C801B7010E94EA1A67
:1030B000882309F0F6C1C801B70120E030E040E8FC
:1030C00057E40E94B61C9B01AC01CB01DA017C01E4
:1030D0008D01B901CA0120E030E040E050E00E94DB
:1030E000C21B882354F4C801B70190580E94331CB6
:1030F00022273327261B370B05C0C801B7010E94C2
:10310000331C9B018091890289833A822B82DC8265
:10311000CD823E832F8380E8888719868A871B8625
:103120008C871D868E871F8680914F02909150025A
:10313000BE016F5F7F4F4FE050E00E947415E0903A
:103140006606F09067060091680610916906C30153
:10315000B201288939894A895B890E945D1B2091C7
:103160003702309138024091390250913A020E9460
:10317000B81D5B016C0160912F027091300280914B
:103180003102909132029058A80197010E94B81D17
:103190009B01AC01C601B5010E945E1B60937E06D7
:1031A00070937F068093800690938106E89417F9C8
:1031B000C801B70120E030E040E45FE30E94C21B99
:1031C00087FD0BC00F2EF0E0AF2EF0E0BF2EF0E039
:1031D000CF2EF0E0DF2EF02D0AC00F2EF0E0AF2E44
:1031E000F0E0BF2EF0E8CF2EFFE3DF2EF02D8AE8CF
:1031F00096E06CE876E04EE856E026E736E00E947E
:10320000BA0560911F027091200280912102909175
:1032100022022BED3FE049E450E40E94B81D20E07B
:1032200030E044E353E40E94C61B7B018C016091B3
:103230008A0670918B06882777FD8095982F0E94CB
:10324000611C20911B0230911C0240911D02509183
:103250001E020E945D1B9B01AC01C801B7010E94C8
:10326000B81D6093820670938306809384069093C2
:103270008506C301B201A60195010E94B81D2091E7
:1032800073023091740240917502509176020E944F
:10329000B81D0E949C1C7B018C010E94151B882379
:1032A00009F00AC1C801B7010E94EA1A882309F08F
:1032B00003C1C801B70120E030E040E857E40E94B4
:1032C000B61C9B01AC01CB01DA017C018D01B90177
:1032D000CA0120E030E040E050E00E94C21B882399
:1032E00054F4C801B70190580E94331C00271127DD
:1032F000061B170B05C0C801B7010E94331C8B01C8
:103300008091870290918802081719074CF0A090CD
:103310005702B0905802C0905902D0905A0208C08B
:10332000A0905302B0905402C0905502D090560223
:10333000C601B50120E030E040E853E40E94C21B22
:1033400087FD02C06FEF10C0C601B50120E030E07C
:1033500040E050E00E94B41D87FF02C060E004C05E
:10336000C601B5010E94331C809147020E941115CD
:10337000980117FF03C0309521953F4FB901882769
:1033800077FD8095982F0E94611C209177023091E3
:1033900078024091790250917A020E945E1B7B0173
:1033A0008C0190907B0280907C0270907D026090F6
:1033B0007E02292D382D472D562D0E94B41D18163A
:1033C00094F090907F0280908002709081026090D3
:1033D0008202C801B701292D382D472D562D0E9494
:1033E000C21B882334F4892D982DA72DB62D7C017E
:1033F0008D01C601B5012091830230918402409174
:103400008502509186020E94B81DA80197010E9472
:103410005D1B7B018C01E89417F9C801B70120E01E
:1034200030E040E853E40E94C21B87FD02C06FEF0A
:1034300004C0C801B7010E94331C80914B0270E0A8
:103440000E947E1363960FB6F894DEBF0FBECDBF09
:10345000CF91DF911F910F91FF90EF90DF90CF9070
:10346000BF90AF909F908F907F906F905F904F90A4
:103470003F902F9008950F2EF0E0EF2EF0E0FF2EFA
:10348000F0E00F2FF0E01F2FF02D65CD0F2EF0E0B4
:10349000EF2EF0E0FF2EF0E00F2FF0E01F2FF02DC9
:1034A000E1CD0F2EF0E0EF2EF0E0FF2EF0E00F2F39
:1034B000F0E01F2FF02D21CE0F2EF0E0EF2EF0E0E8
:1034C000FF2EF0E00F2FF0E01F2FF02D14CFAF9262
:1034D000BF92CF92DF92EF92FF920F931F93CF9301
:1034E000DF930E941C130E94B3158DE061E00E94DF
:1034F0005E148DE060E00E94111580E090E040E0F5
:1035000052EC61E070E00E94931580E090E060E092
:1035100072E04AE150E00E947415C091B602D09169
:10352000B702AA24BB24650124C00E94F6127B01C5
:103530008C01DC01CB018A199B09AC09BD098858B3
:103540009341A040B040A8F00E94DB160E941816DC
:103550000E94F6126E197F09800B910B6958734116
:103560008040904020F08DE061E00E9411155701ED
:10357000680188819981892BC1F20E94B21580E08F
:1035800090E0DF91CF911F910F91FF90EF90DF902E
:10359000CF90BF90AF90089560E070E080E89FE723
:1035A000089560E070E080E89FE7089560E070E0D3
:1035B00080E89FEF089560E070E080E89FEF089555
:1035C00060E070E080EC9FEF089560E070E080ECD8
:1035D0009FEF0895DF92EF92FF920F931F937B016D
:1035E0008C0120919A0630919B0640919C06509147
:1035F0009D060E94C21B882379F0DD24C801B70113
:103600002091A2063091A3064091A4065091A506F0
:103610000E94C21B882311F4DD24D3948D2D1F91A9
:103620000F91FF90EF90DF9008951F939B01AC01E5
:1036300010E00E94C21B811111E0812F1F9108959B
:103640000E94E01A60939E0670939F068093A006E6
:103650009093A1060E94E51A6093920670939306D8
:1036600080939406909395060E94CC1A60939A06D4
:1036700070939B0680939C0690939D060E94D11A9E
:103680006093960670939706809398069093990698
:103690000E94D61A6093A2067093A3068093A40694
:1036A0009093A5060E94DB1A6093A6067093A70666
:1036B0008093A8069093A90608955058BB27AA277F
:1036C0000ED001C2F2D130F0F7D120F031F49F3F9B
:1036D00011F41EF4E7C10EF4E095E7FBB2C1E92F47
:1036E00003D280F3BA17620773078407950718F0AF
:1036F00071F49EF532C20EF4E0950B2EBA2FA02D78
:103700000B01B90190010C01CA01A0011124FF278E
:10371000591B99F0593F50F4503E68F11A16F04089
:10372000A22F232F342F4427585FF3CF4695379588
:103730002795A795F0405395C9F77EF41F16BA0B4D
:10374000620B730B840BBAF09150A1F0FF0FBB1FFB
:10375000661F771F881FC2F70EC0BA0F621F731F44
:10376000841F48F4879577956795B795F7959E3FA1
:1037700008F0B3CF9395880F08F09927EE0F97952F
:10378000879508953AD108F481E008950CD09BC143
:1037900093D140F08AD130F021F45F3F19F051C14C
:1037A0005111DCC17FC1A0D198F39923C9F35523EE
:1037B000B1F3951B550BBB27AA2762177307840724
:1037C00038F09F5F5F4F220F331F441FAA1FA9F3DA
:1037D00033D00E2E3AF0E0E830D091505040E695CC
:1037E000001CCAF729D0FE2F27D0660F771F881F2D
:1037F000BB1F261737074807AB07B0E809F0BB0B1C
:10380000802DBF01FF2793585F4F2AF09E3F51053F
:1038100068F017C1A3C15F3FECF3983EDCF38695D7
:1038200077956795B795F7959F5FC9F7880F911DB5
:103830009695879597F90895E1E0660F771F881FA1
:10384000BB1F621773078407BA0720F0621B730B54
:10385000840BBA0BEE1F88F7E095089504D06894A6
:10386000B1117CC1089548D188F09F5790F0B92FCD
:103870009927B751A0F0D1F0660F771F881F991FC5
:103880001AF0BA95C9F712C0B13081F066D1B1E033
:10389000089563C1672F782F8827B85F39F0B93F43
:1038A000CCF3869577956795B395D9F73EF49095C7
:1038B0008095709561957F4F8F4F9F4F0895E89445
:1038C00009C097FB3EF490958095709561957F4F68
:1038D0008F4F9F4F9923A9F0F92F96E9BB27939516
:1038E000F695879577956795B795F111F8CFFAF426
:1038F000BB0F11F460FF1BC06F5F7F4F8F4F9F4F57
:1039000016C0882311F096E911C0772321F09EE8B4
:10391000872F762F05C0662371F096E8862F70E01A
:1039200060E02AF09A95660F771F881FDAF7880FF4
:103930009695879597F90895F9D080F09F3740F4D0
:1039400091110EF00BC160E070E080E89FEB0895EC
:1039500026F41B16611D711D811D79C093C0A5D071
:1039600018F011F0A9D038F49DC0F8C0E92FBCD0F0
:10397000B0F35523C9F3E7FB621773078407950774
:10398000A8F199F3E92FFF2788232AF03197660FD2
:10399000771F881FDAF7952F5527442332F091506F
:1039A0005040220F331F441FD2F7BB27E91BF50BF2
:1039B000621B730B840BB109C1F222F4620F731FF7
:1039C000841FB11D31972AF0660F771F881FBB1F18
:1039D000EFCF915050405AF041F0882332F0660FFB
:1039E000771F881F91505040C1F793954BC0869523
:1039F000779567959F5FD9F7F8CF990F0008550F16
:103A0000AA0BE0E8FEEF16161706E807F907C0F064
:103A100012161306E407F50798F0621B730B840B6C
:103A2000950B39F40A2661F0232B242B252B21F446
:103A300008950A2609F4A140A6958FEF811D811DE6
:103A4000089597F99F6780E870E060E00895882303
:103A500071F4772321F09850872B762F07C06623C7
:103A600011F499270DC09051862B70E060E02AF088
:103A70009A95660F771F881FDAF7880F96958795B6
:103A800097F908959F3F49F0915028F486957795CE
:103A90006795B7959F5F80389F4F880F969587955C
:103AA00097F908959FEF80EC089500240A94161664
:103AB000170618060906089500240A94121613061C
:103AC000140605060895092E0394000C11F48823AA
:103AD00052F0BB0F40F4BF2B11F460FF04C06F5FC6
:103AE0007F4F8F4F9F4F089557FD9058440F551F9C
:103AF00059F05F3F71F04795880F97FB991F61F070
:103B00009F3F79F087950895121613061406551FE6
:103B1000F2CF4695F1DF08C0161617061806991F52
:103B2000F1CF86957105610508940895E5DFA0F051
:103B3000BEE7B91788F4BB279F3860F41616B11D8D
:103B4000672F782F8827985FF7CF869577956795A9
:103B5000B11D93959639C8F30895E894BB2766275D
:103B60007727CB0197F9089548DF08F48FEF089580
:103B70000BD0A9CF9ADF28F09FDF18F0952309F02A
:103B800060CF90CF1124EACFAFDFA0F3959FD1F3A0
:103B9000950F50E0551F629FF001729FBB27F00DFB
:103BA000B11D639FAA27F00DB11DAA1F649F662750
:103BB000B00DA11D661F829F2227B00DA11D621F9F
:103BC000739FB00DA11D621F839FA00D611D221F59
:103BD000749F3327A00D611D231F849F600D211D3D
:103BE000822F762F6A2F11249F5750408AF0E1F0E0
:103BF00088234AF0EE0FFF1FBB1F661F771F881F29
:103C000091505040A9F79E3F510570F01ACFA6CFB2
:103C10005F3FECF3983EDCF3869577956795B79513
:103C2000F795E7959F5FC1F7FE2B880F911D96953D
:103C3000879597F90895629FD001739FF001829F45
:103C4000E00DF11D649FE00DF11D929FF00D839F2B
:103C5000F00D749FF00D659FF00D9927729FB00DC8
:103C6000E11DF91F639FB00DE11DF91FBD01CF01DB
:103C700011240895A1E21A2EAA1BBB1BFD010DC041
:103C8000AA1FBB1FEE1FFF1FA217B307E407F5070C
:103C900020F0A21BB30BE40BF50B661F771F881FE8
:103CA000991F1A9469F760957095809590959B017E
:103CB000AC01BD01CF010895EE0FFF1F0590F491F7
:083CC000E02D1994F894FFCFE8
:103CC8002A2A2A7374617274696E67207468652081
:103CD8006D6F64656C2A2A2A00E8030000C1C32DB1
:103CE80023FABB7CF2B03C00003444F2B010BECAE8
:103CF800FCBBC3057486C20000803F0000C0C00042
:103D080000C8420000C04006000000080000000093
:103D18000000000000803F000000000AD7A33B001D
:103D28000000000AD7A33B000000000AD7A33B000D
:103D380000000000002AC20000204100007F43006C
:103D480000000000007F430000010001123E130F35
:103D5800000000009003C50305040E042304340486
:103D680000000000020EC90F980DC90DA90DF20D33
:083D780000000000870F900617
:00000001FF
