:100000000C9405010C94CD0D0C94FE0D0C942F0E48
:100010000C94600E0C94910E0C94C20E0C94F30E82
:100020000C94240F0C9432010C9432010C94320184
:100030000C9432010C9432010C9432010C94320174
:100040000C9432010C9432010C9432010C94320164
:100050000C9432010C9432010C9432010C94550F23
:100060000C9432010C944A080C9446090C94320109
:100070000C9432010C9432010C9432010C94320134
:100080000C9432010C9432010C9432010C94320124
:100090000C9489080C9485090C9432010C940A0381
:1000A0000C9432010C9432010C9432010C94320104
:1000B0000C9432010C9432010C9432010C943201F4
:1000C0000C9432010C9432010C9432010C94C80847
:1000D0000C94C4090C9432010C9407090C94030A83
:1000E0000C94320100002100240027002A002D007A
:1000F0003000330001010000040107010A01000083
:100100002200250028002B002E00310034000201BF
:100110000000050108010B0100002000230026005B
:1001200029002C002F00320000010000030106010D
:10013000090105050505070508080808020202026D
:100140000A0A080804040404010101010101010173
:100150000303030303030303040707070C0C0C0C3E
:100160000C0C0C0C02020202060606060606060627
:100170000B0B0B0B0B0B0B0B0102102020080810B4
:100180002040102040800201020108040201010207
:1001900004081020408080402010080402018004E0
:1001A000020180402010080402010804020101023B
:1001B0000408102040800102040810204080000044
:1001C000090A02080B0C0D070603040100000000D9
:1001D000000000000000000000000000000000001F
:1001E0000000000000000000000011100F000000DF
:1001F00000000000000000000000000000000000FF
:1002000000000000AE05730BA90C11241FBECFEF38
:10021000D1E2DEBFCDBF00E00CBF13E0A0E0B2E052
:10022000E6E5F9E600E00BBF02C007900D92AA3C9C
:10023000B107D9F71BBE19E0AAECB3E001C01D92CB
:10024000A332B107E1F712E0CAE0D2E004C022977E
:10025000FE010E94A534C430D107C9F70E94F831CD
:100260000C94A9340C9400000F931F93CF93DF9349
:10027000689F8001699F100D789F100D1124C8019F
:100280000E945001EC01009729F060E070E0A801A5
:100290000E945B02CE01DF91CF911F910F910895D3
:1002A000CF93DF93BC018230910510F462E070E0DF
:1002B000A0912109B0912209ED01E0E0F0E040E0D9
:1002C00050E021C0888199818617970769F48A8157
:1002D0009B81309719F09383828304C09093220905
:1002E00080932109FE0134C06817790738F441155D
:1002F000510519F08417950708F4AC01FE018A81B5
:100300009B819C01E9012097E9F641155105A9F16E
:10031000CA01861B970B049708F4BA01E0E0F0E0ED
:100320002AC08D919C91119784179507F9F4641751
:10033000750781F412968D919C911397309719F05F
:100340009383828304C09093220980932109FD0145
:1003500032964CC0CA01861B970BFD01E80FF91FAE
:100360006193719302978D939C9340C0FD018281AC
:1003700093819C01D9011097A1F680911F0990915A
:100380002009892B41F480911103909112039093DD
:10039000200980931F0940911303509114034115C4
:1003A000510541F44DB75EB780910F039091100352
:1003B000481B590B20911F0930912009CA01821B4B
:1003C000930B8617970780F0AB014E5F5F4F841742
:1003D000950750F0420F531F5093200940931F0977
:1003E000F9016193719302C0E0E0F0E0CF01DF9189
:1003F000CF910895CF93DF93009709F450C0EC019B
:1004000022971B821A82A0912109B091220910978C
:1004100009F140E050E0AC17BD0708F1BB83AA83A7
:10042000FE0121913191E20FF31FAE17BF0779F45E
:100430008D919C911197280F391F2E5F3F4F398363
:10044000288312968D919C9113979B838A834115E3
:10045000510571F4D0932209C093210920C012964E
:100460008D919C911397AD01009711F0DC01D3CFD2
:10047000FA01D383C28321913191E20FF31FCE178A
:10048000DF0769F488819981280F391F2E5F3F4F5C
:10049000FA01318320838A819B8193838283DF9158
:1004A000CF910895FB01DC0102C001900D924150F3
:1004B0005040D8F70895DC0101C06D934150504081
:1004C000E0F70895FB01DC018D9101908019011086
:1004D000D9F3990B0895382F413210F040E042C013
:1004E000809150048823E1F791E090935004209389
:1004F0004E048FEF8093510410922C04415040938E
:100500002D044F5F90932B0480912B04330F832B8A
:1005100080932B0480914F04813041F410924F045A
:1005200080912B048093BB0085EC01C085EE809305
:10053000BC00809150048130E1F380912C04841739
:1005400010F440912C0420E030E00AC0FB01E20FDF
:10055000F31FD901A25DBB4F8C9180832F5F3F4F6A
:100560002417A0F3842F08950F931F93582F122F51
:10057000413210F081E045C0809150048823E1F7BA
:1005800082E08093500400934E048FEF80935104D7
:1005900010922C0440932D04AEE2B4E0FB0102C0A3
:1005A00081918D938E2F861B8417D0F310922B048C
:1005B00080912B04550F852B80932B0480914F0441
:1005C000813041F410924F0480912B048093BB0042
:1005D00085EC01C085EE8093BC001123A9F08091C9
:1005E0005004823089F4FBCF80915104803211F4A1
:1005F00082E007C080915104803311F084E001C093
:1006000083E01F910F910895809151048F3F61F70E
:1006100080E0F7CF1F920F920FB60F920BB60F929A
:1006200011242F933F934F935F936F937F938F93F7
:100630009F93AF93BF93EF93FF938091B90090E0A6
:10064000887F90708036910509F4F2C0813691055B
:10065000CCF58832910509F47BC089329105B4F458
:100660008031910509F46FC0813191053CF4009708
:1006700009F447C1089709F04FC165C08831910559
:1006800009F466C0809709F047C182C080349105A3
:1006900009F4A4C08134910544F48033910509F430
:1006A00082C0C89709F038C189C08035910509F426
:1006B00089C08835910509F496C08834910509F000
:1006C0002BC1AEC08839910509F413C18939910550
:1006D000ECF48837910509F4ABC0893791054CF4E7
:1006E0008836910509F4A4C08037910509F014C13A
:1006F0009FC08838910509F4FCC08039910509F440
:100700009DC08038910509F007C198C0803B9105D4
:1007100009F4C6C0813B91054CF4803A910509F477
:100720009FC0883A910509F0F7C0BAC0803C910596
:1007300009F4E3C0883C910509F4DFC0883B9105CA
:1007400009F0EAC0C2C080912B048093BB00CFC0E7
:1007500090912C0480912D04981768F490912C04AA
:10076000E92FF0E0E25DFB4F80818093BB009F5F4B
:1007700090932C04BCC080914E04882309F44BC094
:1007800085ED8093BC008091BC0084FDFCCFC2C08D
:1007900080E28093510485ED8093BC008091BC0081
:1007A00084FDFCCFB7C080E38093510485ED809336
:1007B000BC008091BC0084FDFCCFACC088E380937A
:1007C00051049BC080912C049091BB00E82FF0E075
:1007D000E25DFB4F90838F5F80932C0490912C04FB
:1007E00080912D0482C080912C049091BB00E82F51
:1007F000F0E0E25DFB4F90838F5F80932C0480914B
:100800004E04882341F085ED8093BC008091BC00AC
:1008100084FDFCCF7FC081E080934F0484EA6EC0EA
:1008200085ED8093BC008091BC0084FDFCCF72C03C
:1008300083E0809350041092520459C08091520476
:10084000803208F056C0809152049091BB00E82F8E
:10085000F0E0ED5AFB4F90838F5F8093520447C0C6
:1008600080915204803230F4E0915204F0E0ED5A6D
:10087000FB4F108285ED8093BC008091BC0084FD0D
:10088000FCCF1092500460915204E0917304F091F7
:10089000740483E594E070E01995109252042DC021
:1008A00084E0809350041092750410927604E091D5
:1008B0007704F0917804199580917604882329F4BF
:1008C00081E0809376041092790490917504E92F69
:1008D000F0E0E758FB4F80818093BB009F5F9093CF
:1008E00075049091750480917604981710F485EC46
:1008F00001C085E88093BC000FC085EC8093BC00EC
:1009000009C01092510485ED8093BC008091BC0019
:1009100084FDFCCF10925004FF91EF91BF91AF91F5
:100920009F918F917F916F915F914F913F912F9107
:100930000F900BBE0F900FBE0F901F901895413275
:1009400008F040E2862F6AEC73E00E946B0210927E
:10095000EA038093EB03089521E00E949F04089529
:100960000F93062F8091EC036DEE73E040910E041F
:1009700021E00E94B40210920D0410920E04109215
:100980000F040F91089561E00E94B0040895DF9371
:10099000CF930F92CDB7DEB7FC01698380910F042E
:1009A0008823C9F080910E04803238F081E090E015
:1009B0009383828320E030E01AC080910D04E82FF9
:1009C000F0E0E351FC4F998190838F5F80930D0499
:1009D00080930E040AC080915004843031F481E089
:1009E0008093760489818093790421E030E0C90105
:1009F0000F90CF91DF910895CF92DF92EF92FF9207
:100A00000F931F93CF93DF936C018B017A01809139
:100A10000F048823A1F0C0E0D0E00DC0D601ED9115
:100A2000FC91D801AC0FBD1F0190F081E02DC601F3
:100A30006C9119952196CE15DF0580F313C04132D4
:100A400088F480915004843069F4E0927604562F43
:100A5000A9E7B4E0FB0102C081918D938E2F851B25
:100A60008417D0F3C701DF91CF911F910F91FF90B1
:100A7000EF90DF90CF9008952091EB0330E08091CC
:100A8000EA03281B3109C90108954091EA038091C6
:100A9000EB03481718F02FEF3FEF0AC0E42FF0E008
:100AA000E653FC4F8081282F30E04F5F4093EA03EC
:100AB000C9010895E091EA038091EB03E81718F06B
:100AC000EFEFFFEF06C0F0E0E653FC4F8081E82F28
:100AD000F0E0CF0108950895FF920F931F93CF93F5
:100AE000DF93F42E122F032F91E090930F04809345
:100AF000EC0310920D0410920E0480E194E00E9429
:100B0000C704212F302FC901EC0110E006C080E19D
:100B100094E069910E94C7041F5F1F15C0F380E134
:100B200094E00E94C30490E0882309F491E0892FA7
:100B3000DF91CF911F910F91FF900895DF93CF9395
:100B40000F92CDB7DEB7498341E09E012F5F3F4F43
:100B50000E946C050F90CF91DF91089510921304BD
:100B60001092120488EE93E0A0E0B0E080931404A9
:100B700090931504A0931604B093170485EA93E0AC
:100B8000909311048093100488E680931C040895C8
:100B90002F923F924F925F926F927F928F929F928D
:100BA000AF92BF92CF92DF92EF92FF920F931F937B
:100BB000DF93CF9300D00F920F92CDB7DEB7882E80
:100BC0006983942E3B832A830E949D0F5B016C01F5
:100BD000FF24EE24292C332428016624772461C0C5
:100BE00021E020930F048092EC0310920D041092E8
:100BF0000E0480E194E069810E94C70480E194E0E2
:100C00000E94C30431E030930F048092EC031092F1
:100C10000D0410920E04A1014E19510941325105E3
:100C200014F040E250E080E194E0682D0E94AC04B2
:100C30008F2D992787FD9095EA81FB818E0F9F1F4D
:100C40009D838C830FC0E92FF0E0E653FC4F808139
:100C5000282F9F5F9093EA03EC81FD812193FD8310
:100C6000EC83F3949091EB038091EA03981709F4D5
:100C700050C00115110561F00E949D0F6A197B0992
:100C80008C099D09641575058605970508F041C016
:100C90009091EA038091EB039817A8F22FEF3FEFB2
:100CA000DBCFE91408F49CCF01151105C9F00E94AF
:100CB0009D0F6A197B098C099D09980140E050E05D
:100CC000621773078407950758F02F2D332727FDE8
:100CD0003095892D90E02817390714F4FF24FA94F1
:100CE0008F2D0F900F900F900F900F90CF91DF915D
:100CF0001F910F91FF90EF90DF90CF90BF90AF903A
:100D00009F908F907F906F905F904F903F902F902B
:100D1000089580E194E00E94C304892DF0E2F91562
:100D200008F480E2E80EBDCFEF92FF920F931F937D
:100D30007C019C012F5F3F4F00911503109116031A
:100D4000FC01808163E442E00E94C805F7019181C3
:100D500080E0228130E0282B392BC9011F910F91AF
:100D6000FF90EF900895EF92FF920F931F937C01F5
:100D70009C012F5F3F4F0091150310911603FC015A
:100D800080816FE342E00E94C805F701918180E015
:100D9000228130E0282B392BC9011F910F91FF9040
:100DA000EF900895EF92FF920F931F937C019C01A7
:100DB0002F5F3F4F0091150310911603FC018081B6
:100DC0006DE342E00E94C805F701918180E0228135
:100DD00030E0282B392BC9011F910F91FF90EF9024
:100DE0000895EF92FF920F931F93CF93DF93EC013F
:100DF0008B017A01F901608171818281938120E008
:100E000030E040E85FE30E9445338823A1F48CE1A1
:100E100094E00E949406998388838CE194E00E9478
:100E2000D206F801918380838CE194E00E94B3069E
:100E3000F70191838083DF91CF911F910F91FF90F4
:100E4000EF9008950F931F93FA01890141E09F01EC
:100E50000E94C8051F910F910895DF92EF92FF92B3
:100E60000F931F93DF93CF930F92CDB7DEB7E82E8A
:100E7000D62EF42E122F2091150330911603AE01B9
:100E80004F5F5F4F0E942207882341F1212F30E0FE
:100E90004F2D50E04F5F5F4F421B530B81E090E0BE
:100EA00002C0880F991F1A95E2F70197042E02C01D
:100EB000880F991F0A94E2F7202F30E002C0220F1A
:100EC000331F4A95E2F7482F4095598145238223E5
:100ED000482B49838E2D6D2D0E949E050F90CF913A
:100EE000DF911F910F91FF90EF90DF9008950F9386
:100EF000FC01062F80816BE642E023E00E942D0773
:100F00000F9108950F93FC01062F80816CE144E05E
:100F100022E00E942D070F9108950F93FC01062FE8
:100F200080816BE144E022E00E942D070F9108953B
:100F30000F93FC01062F80816AE142E023E00E94CA
:100F40002D070F910895EF92FF920F931F93DF9358
:100F5000CF930F92CDB7DEB7F82EE62E042F122FC7
:100F60002091150330911603AE014F5F5F4F0E9431
:100F700022072981112351F081E090E002C0880FFF
:100F8000991F0A95E2F7422F482B0AC081E090E0B2
:100F900002C0880F991F0A95E2F7482F4095422317
:100FA00049838F2D6E2D0E949E050F90CF91DF916A
:100FB0001F910F91FF90EF900895FC01262F8081E3
:100FC0006BE646E00E94A30708950F931F938C01E0
:100FD00061E00E947707C80160E00E948D07C801A8
:100FE00060E00E948207C80160E00E94DD071F9157
:100FF0000F9108951092500481E080934E04109256
:101000004F0484E161E00E943F1185E161E00E94AC
:101010003F11E9EBF0E080818E7F808380818D7FBE
:10102000808388E48093B80085E48093BC000895B1
:101030001092EA031092EB0310920D0410920E042A
:101040000E94FA070895CF93DF93E90168817981BF
:101050008A819B8120E030E040E85FE30E944533D5
:101060008823A9F080E194E00E9418088CE194E0C4
:1010700065E00E9498078CE194E00E94E50780E01B
:1010800090E0A0E8BFE388839983AA83BB83DF91C4
:10109000CF9108951F920F920FB60F920BB60F9239
:1010A00011242F933F934F938F939F93EF93FF932D
:1010B0008091C00082FD1DC04091C6002091D904DE
:1010C0003091DA042F5F3F4F2F7330708091DB0433
:1010D0009091DC042817390771F0E091D904F09160
:1010E000DA04E756FB4F40833093DA042093D904A7
:1010F00002C08091C600FF91EF919F918F914F9117
:101100003F912F910F900BBE0F900FBE0F901F902D
:1011100018951F920F920FB60F920BB60F921124D3
:101120002F933F934F938F939F93EF93FF938091D0
:10113000C80082FD1DC04091CE0020916105309114
:1011400062052F5F3F4F2F73307080916305909140
:1011500064052817390771F0E0916105F091620587
:10116000EF5DFA4F4083309362052093610502C022
:101170008091CE00FF91EF919F918F914F913F9180
:101180002F910F900BBE0F900FBE0F901F901895D0
:101190001F920F920FB60F920BB60F9211242F933E
:1011A0003F934F938F939F93EF93FF938091D00042
:1011B00082FD1DC04091D6002091E9053091EA05DD
:1011C0002F5F3F4F2F7330708091EB059091EC05AE
:1011D0002817390771F0E091E905F091EA05E75524
:1011E000FA4F40833093EA052093E90502C08091CD
:1011F000D600FF91EF919F918F914F913F912F9149
:101200000F900BBE0F900FBE0F901F9018951F925E
:101210000F920FB60F920BB60F9211242F933F939C
:101220004F938F939F93EF93FF938091300182FDB3
:101230001DC04091360120917106309172062F5FDA
:101240003F4F2F733070809173069091740628176A
:10125000390771F0E0917106F0917206EF5CF94F79
:101260004083309372062093710602C0809136014C
:10127000FF91EF919F918F914F913F912F910F90FF
:101280000BBE0F900FBE0F901F9018951F920F92DC
:101290000FB60F920BB60F9211242F933F938F939B
:1012A0009F93EF93FF9320911D0530911E05809130
:1012B0001F05909120052817390731F48091C1004E
:1012C0008F7D8093C10014C0E0911F05F09120052F
:1012D000E352FB4F208180911F05909120050196DC
:1012E0008F7390709093200580931F052093C60004
:1012F000FF91EF919F918F913F912F910F900BBE96
:101300000F900FBE0F901F9018951F920F920FB65F
:101310000F920BB60F9211242F933F938F939F93AD
:10132000EF93FF932091A5053091A6058091A70525
:101330009091A8052817390731F48091C9008F7D55
:101340008093C90014C0E091A705F091A805EB595E
:10135000FA4F20818091A7059091A80501968F737F
:1013600090709093A8058093A7052093CE00FF91DD
:10137000EF919F918F913F912F910F900BBE0F9006
:101380000FBE0F901F9018951F920F920FB60F92DD
:101390000BB60F9211242F933F938F939F93EF934C
:1013A000FF9320912D0630912E0680912F0690916B
:1013B00030062817390731F48091D1008F7D809352
:1013C000D10014C0E0912F06F0913006E351FA4F9E
:1013D000208180912F069091300601968F73907036
:1013E0009093300680932F062093D600FF91EF91C3
:1013F0009F918F913F912F910F900BBE0F900FBE39
:101400000F901F9018951F920F920FB60F920BB668
:101410000F9211242F933F938F939F93EF93FF93FA
:101420002091B5063091B6068091B7069091B80626
:101430002817390731F4809131018F7D8093310174
:1014400014C0E091B706F091B806EB58F94F20812F
:101450008091B7069091B80601968F739070909323
:10146000B8068093B70620933601FF91EF919F91C4
:101470008F913F912F910F900BBE0F900FBE0F9049
:101480001F901895AF92BF92DF92EF92FF920F9349
:101490001F93CF93DF93EC017A018B01DD24403061
:1014A00081EE580780E0680780E0780711F0DD24BE
:1014B000D39491E0A92EB12CEC89FD89DD2069F04F
:1014C000C50108A002C0880F991F0A94E2F7808323
:1014D00060E079E08DE390E005C0108260E874E898
:1014E0008EE190E0A80197010E94813421503040A4
:1014F00040405040569547953795279580E12030DC
:10150000380720F0DD2011F0DD24D6CFE889F989F5
:101510003083EA89FB89208319A2EE89FF89408103
:1015200021E030E0C9010C8C02C0880F991F0A9499
:10153000E2F7482B4083EE89FF894081C9010D8C79
:1015400002C0880F991F0A94E2F7482B4083EE8966
:10155000FF894081C9010E8C02C0880F991F0A942F
:10156000E2F7482B4083EE89FF8980810F8C02C00F
:10157000220F331F0A94E2F7209528232083DF915E
:10158000CF911F910F91FF90EF90DF90BF90AF90A0
:101590000895DC011C96ED91FC911D97E05CFF4FD6
:1015A0002191319180819181281B390B2F733070EB
:1015B000C9010895DC011C96ED91FC911D97E05C3A
:1015C000FF4F20813181E054F040DF01AE5BBF4F1F
:1015D0008D919C9111972817390719F42FEF3FEF40
:1015E00007C08D919C91E80FF91F8081282F30E072
:1015F000C9010895DC011C96ED91FC911D97E05CFA
:10160000FF4F20813181E054F040DF01AE5BBF4FDE
:101610008D919C9111972817390719F42FEF3FEFFF
:1016200010C08D919C911197E80FF91F20818D9129
:101630009C91119701968F73907011969C938E9345
:1016400030E0C9010895DC0191968C91919788232F
:1016500039F05496ED91FC915597808186FFF9CF32
:1016600091961C920895CF93DF93EC01EE85FF8550
:10167000E05CFF4F20813181E054F0402F5F3F4F0D
:101680002F733070DF01AE5BBF4F8D919C9111972E
:1016900028173907D1F3E05CFF4F80819181E05436
:1016A000F040E80FF91F6083EE85FF85E05CFF4F97
:1016B00031832083EE89FF89208181E090E00F8CC7
:1016C00002C0880F991F0A94E2F7282B208381E03B
:1016D00089A3EC89FD8980818064808381E090E02A
:1016E000DF91CF9108951F931092BC061092BB0614
:1016F00028EE33E040E050E02093BD063093BE0674
:101700004093BF065093C00665EB73E07093BA0632
:101710006093B90689E994E09093C6068093C50664
:101720008DED94E09093C8068093C70685EC90E019
:101730009093CA068093C90684EC90E09093CC06FF
:101740008093CB0680EC90E09093CE068093CD06FC
:1017500081EC90E09093D0068093CF0682EC90E0ED
:101760009093D2068093D10686EC90E09093D406B5
:101770008093D30614E01093D506B3E0B093D60659
:10178000A7E0A093D706F5E0F093D806E1E0E09358
:10179000D9061092DE061092DD062093DF06309304
:1017A000E0064093E1065093E2067093DC066093F6
:1017B000DB0681E295E09093E8068093E70685E6F4
:1017C00095E09093EA068093E9068DEC90E0909383
:1017D000EC068093EB068CEC90E09093EE06809301
:1017E000ED0688EC90E09093F0068093EF0689EC8C
:1017F00090E09093F2068093F1068AEC90E090934B
:10180000F4068093F3068EEC90E09093F6068093B6
:10181000F5061093F706B093F806A093F906F09337
:10182000FA06E093FB06109200071092FF06209341
:101830000107309302074093030750930407709306
:10184000FE066093FD0689EA95E090930A0780936F
:1018500009078DEE95E090930C0780930B0785EDBB
:1018600090E090930E0780930D0784ED90E09093A5
:10187000100780930F0780ED90E0909312078093FC
:10188000110781ED90E0909314078093130782ED88
:1018900090E0909316078093150786ED90E0909363
:1018A00018078093170710931907B0931A07A0938E
:1018B0001B07F0931C07E0931D071092220710925C
:1018C0002107209323073093240740932507509343
:1018D00026077093200760931F0781E396E090939B
:1018E0002C0780932B0785E796E090932E07809333
:1018F0002D0785E391E09093300780932F0784E3D1
:1019000091E0909332078093310780E391E09093C8
:1019100034078093330781E391E0909336078093F7
:10192000350782E391E0909338078093370786E389
:1019300091E090933A078093390710933B07B09357
:101940003C07A0933D07F0933E07E0933F071F91AC
:10195000089585EC93E0909342078093410710929D
:1019600043071092440710924507109246070895C6
:101970008F929F92AF92BF92CF92DF92EF92FF929F
:101980000F931F93CF93DF934C016B017C01AA242B
:10199000BB24C0E0D0E0C601F70162814AE050E01C
:1019A0000E94BB0D8C01C6016EE20E94240D080F3F
:1019B000191FA00EB11E21960894E11CF11CC33022
:1019C000D10549F7C601F40165814AE050E00E9463
:1019D000BB0D9501280F391FC901DF91CF911F91D0
:1019E0000F91FF90EF90DF90CF90BF90AF909F90BE
:1019F0008F900895CF92DF92EF92FF920F931F93F3
:101A0000CF93DF937C016B018A01C0E0D0E00FC06F
:101A1000D6016D916D01D701ED91FC910190F0819E
:101A2000E02DC7011995C80FD91F015010400115AD
:101A3000110571F7CE01DF91CF911F910F91FF90AA
:101A4000EF90DF90CF900895DC01ED91FC91019033
:101A5000F081E02D19950895CF93DF93EC01611586
:101A6000710519F420E030E00FC0DB010D9000207B
:101A7000E9F71197A61BB70BE881F9810280F38182
:101A8000E02DAD0119959C01C901DF91CF91089519
:101A90004F925F927F928F929F92AF92BF92CF921E
:101AA000DF92EF92FF920F931F93DF93CF93CDB707
:101AB000DEB7A1970FB6F894DEBF0FBECDBF2C01E5
:101AC000742ECB01223008F42AE019A231E2C32E91
:101AD000D12CCC0EDD1E822E9924AA24BB24672D86
:101AE000752FA50194010E94813479018A01C801F2
:101AF000B701A50194010E946234472D461B08944A
:101B0000C108D1084A3014F4405D01C0495CF601B7
:101B10004083E114F1040105110521F07E2C5F2DB5
:101B2000C801DDCFC201B6010E942C0DA1960FB6EF
:101B3000F894DEBF0FBECDBFCF91DF911F910F9103
:101B4000FF90EF90DF90CF90BF90AF909F908F90DD
:101B50007F905F904F900895DC012115310541F48D
:101B6000ED91FC910190F081E02D642F199508957D
:101B70000E94480D0895EF92FF920F931F939A01D0
:101B8000E62EFF2400E010E0B801A7010E94AC0D92
:101B90001F910F91FF90EF9008951F920F920FB633
:101BA0000F920BB60F9211242F933F934F935F9395
:101BB0006F937F938F939F93AF93BF93EF93FF9315
:101BC00080914B0790914C07892B29F0E0914B07AE
:101BD000F0914C071995FF91EF91BF91AF919F91B3
:101BE0008F917F916F915F914F913F912F910F90C6
:101BF0000BBE0F900FBE0F901F9018951F920F9263
:101C00000FB60F920BB60F9211242F933F934F9361
:101C10005F936F937F938F939F93AF93BF93EF9354
:101C2000FF9380914D0790914E07892B29F0E09109
:101C30004D07F0914E071995FF91EF91BF91AF912C
:101C40009F918F917F916F915F914F913F912F91D4
:101C50000F900BBE0F900FBE0F901F9018951F9204
:101C60000F920FB60F920BB60F9211242F933F9342
:101C70004F935F936F937F938F939F93AF93BF9394
:101C8000EF93FF9380914F0790915007892B29F094
:101C9000E0914F07F09150071995FF91EF91BF9197
:101CA000AF919F918F917F916F915F914F913F91F4
:101CB0002F910F900BBE0F900FBE0F901F90189595
:101CC0001F920F920FB60F920BB60F9211242F9303
:101CD0003F934F935F936F937F938F939F93AF93B4
:101CE000BF93EF93FF938091510790915207892BF7
:101CF00029F0E0915107F09152071995FF91EF916A
:101D0000BF91AF919F918F917F916F915F914F9113
:101D10003F912F910F900BBE0F900FBE0F901F9011
:101D200018951F920F920FB60F920BB60F921124B7
:101D30002F933F934F935F936F937F938F939F93D3
:101D4000AF93BF93EF93FF9380914707909148071C
:101D5000892B29F0E0914707F09148071995FF91E9
:101D6000EF91BF91AF919F918F917F916F915F9113
:101D70004F913F912F910F900BBE0F900FBE0F9080
:101D80001F9018951F920F920FB60F920BB60F92DD
:101D900011242F933F934F935F936F937F938F9370
:101DA0009F93AF93BF93EF93FF93809149079091D7
:101DB0004A07892B29F0E0914907F0914A071995C4
:101DC000FF91EF91BF91AF919F918F917F916F9113
:101DD0005F914F913F912F910F900BBE0F900FBECF
:101DE0000F901F9018951F920F920FB60F920BB67F
:101DF0000F9211242F933F934F935F936F937F9391
:101E00008F939F93AF93BF93EF93FF93809153076B
:101E100090915407892B29F0E0915307F0915407D2
:101E20001995FF91EF91BF91AF919F918F917F9104
:101E30006F915F914F913F912F910F900BBE0F903B
:101E40000FBE0F901F9018951F920F920FB60F9212
:101E50000BB60F9211242F933F934F935F936F9381
:101E60007F938F939F93AF93BF93EF93FF93809153
:101E7000550790915607892B29F0E0915507F0916D
:101E800056071995FF91EF91BF91AF919F918F9157
:101E90007F916F915F914F913F912F910F900BBE6A
:101EA0000F900FBE0F901F9018951F920F920FB6B4
:101EB0000F9211242F933F938F939F93AF93BF93D0
:101EC00080915B0790915C07A0915D07B0915E07E0
:101ED00030915F070196A11DB11D232F2D5F2D3776
:101EE00020F02D570196A11DB11D20935F0780930F
:101EF0005B0790935C07A0935D07B0935E078091AA
:101F0000570790915807A0915907B0915A07019629
:101F1000A11DB11D8093570790935807A0935907AF
:101F2000B0935A07BF91AF919F918F913F912F919D
:101F30000F900FBE0F901F9018958FB7F8942091B7
:101F40005B0730915C0740915D0750915E078FBF42
:101F5000B901CA0108959FB7F894209157073091AD
:101F600058074091590750915A0786B5A89B06C05B
:101F70008F3F21F02F5F3F4F4F4F5F4F9FBF542F39
:101F8000432F322F2227280F311D411D511D82E082
:101F9000220F331F441F551F8A95D1F7B901CA017B
:101FA00008959B01AC017FB7F894809157079091F9
:101FB0005807A0915907B0915A0766B5A89B05C06C
:101FC0006F3F19F00196A11DB11D7FBFBA2FA92F38
:101FD000982F8827860F911DA11DB11D62E0880FE3
:101FE000991FAA1FBB1F6A95D1F7BC012DC0FFB76F
:101FF000F8948091570790915807A0915907B09194
:102000005A07E6B5A89B05C0EF3F19F00196A11D40
:10201000B11DFFBFBA2FA92F982F88278E0F911DB2
:10202000A11DB11DE2E0880F991FAA1FBB1FEA95F1
:10203000D1F7861B970B885E9340C8F22150304041
:102040004040504068517C4F2115310541055105F4
:1020500071F60895789484B5826084BD84B58160FA
:1020600084BD85B5826085BD85B5816085BDEEE6A0
:10207000F0E0808181608083E1E8F0E0108280817F
:1020800082608083808181608083E0E8F0E08081ED
:1020900081608083E1EBF0E0808184608083E0EB0D
:1020A000F0E0808181608083E1E9F0E080818260FE
:1020B0008083808181608083E0E9F0E080818160BD
:1020C0008083E1EAF0E080818260808380818160AA
:1020D0008083E0EAF0E0808181608083E1E2F1E0EA
:1020E000808182608083808181608083E0E2F1E092
:1020F000808181608083EAE7F0E080818460808372
:10210000808182608083808181608083808180681B
:1021100080831092C1000895CF93DF93482F50E041
:10212000CA0188589E4FFC0134914E5C5E4FFA0103
:102130008491882369F190E0880F991FFC01EC518C
:10214000FF4FA591B491FC01E250FF4FC591D4918E
:10215000662351F42FB7F8948C91932F909589238F
:102160008C93888189230BC0623061F42FB7F89477
:102170008C91932F909589238C938881832B8883CE
:102180002FBF06C09FB7F8948C91832B8C939FBF71
:10219000DF91CF910895893009F449C08A30A0F4C5
:1021A000843051F1853040F4823079F1833000F58C
:1021B000813009F063C026C0873079F1883098F506
:1021C000863009F05BC025C08D3009F442C08E30E6
:1021D00028F48B30B1F18C30C0F52DC0803109F47A
:1021E00042C0813109F445C08F3009F047C037C083
:1021F000809180008F7703C0809180008F7D8093D5
:102200008000089584B58F7702C084B58F7D84BD2A
:1022100008958091B0008F7703C08091B0008F7DCA
:102220008093B0000895809190008F7707C08091CF
:1022300090008F7D03C080919000877F80939000F5
:1022400008958091A0008F7707C08091A0008F7DB6
:1022500003C08091A000877F8093A00008958091A3
:1022600020018F7703C0809120018F7D8093200112
:10227000089580912001877F809320010895FF9227
:102280000F931F93F62E482F50E0CA0182549E4FA1
:10229000FC012491CA0188589E4FFC0114914E5CA8
:1022A0005E4FFA0104910023C9F0222319F0822F16
:1022B0000E94CB10E02FF0E0EE0FFF1FE250FF4F27
:1022C000A591B4919FB7F894FF2021F48C911095BB
:1022D000812302C08C91812B8C939FBF1F910F9102
:1022E000FF90089580E090E00895EF92FF920F93A1
:1022F0001F93CF93DF93162F072F7A01E9011982DD
:10230000188289EB96E00E94C90A892BD1F0812FAF
:10231000902F9C01890110C089EB96E00E94FA0A77
:102320002FEF8F3F920741F0F80181938F01888151
:102330009981019699838883888199818E159F055B
:1023400058F380E090E0DF91CF911F910F91FF90C3
:10235000EF900895EF92FF920F931F938A017901F6
:1023600089EB96E00E94FA0CF7011183008380E06C
:1023700090E01F910F91FF90EF9008950E942A1016
:1023800089EB96E040E052EC61E070E00E94420A86
:1023900004C089EB96E00E94FA0A89EB96E00E945D
:1023A000C90A892BB1F780E090E00895AF92BF92FF
:1023B000CF92DF92EF92FF920F931F935C016A011D
:1023C0007B0100E010E020E030E00E94301BC501FE
:1023D000B701A60101E010E020E030E00E94301BD0
:1023E0001F910F91FF90EF90DF90CF90BF90AF9033
:1023F000089560E070E080E090E00E94081B61E0DA
:1024000070E080E090E00E94081B08950F931F93F6
:102410008C0160E070E080E090E0A8010E949F1ACB
:1024200061E070E080E090E0A8010E949F1A1F9197
:102430000F910895CF92DF92EF92FF920F931F9327
:10244000DF93CF9300D00F92CDB7DEB77C018091A0
:102450006707909168078E159F050CF580916507B9
:1024600090916607009731F00E94FA011092680778
:1024700010926707C7010E945001909366078093EE
:102480006507009741F400E010E083E0C82ED12CEE
:10249000CC0EDD1E1CC0F0926807E092670700E0DA
:1024A00010E06E010894C11CD11C27C08091630705
:1024B0009091640761E070E0A60129E637E00E9490
:1024C000D02B882311F58B819C81080F191F0E15C5
:1024D0001F0564F31AC0B701601B710B200F311F79
:1024E0008091630790916407A6010E94D02B8823F6
:1024F00061F489819A81080F191F20916507309135
:1025000066070E151F053CF302C020E030E0C9014C
:102510000F900F900F900F90CF91DF911F910F911F
:10252000FF90EF90DF90CF900895AF92BF92CF923F
:10253000DF92FF920F931F93DF93CF93CDB7DEB758
:102540002A970FB6F894DEBF0FBECDBF8B016A018C
:10255000A0E0B0E08B839C83AD83BE83CB01AA2730
:1025600097FDA095BA2F8F839887A987BA87809106
:1025700063079091640768E070E0AE014D5F5F4FC4
:102580005E010894A11CB11C95010E94CB2AF82E73
:102590008823B9F489819A81089799F4C114D104E8
:1025A00091F08091630790916407B801A6019501AD
:1025B0000E94CB2A882329F489819A818017910768
:1025C00011F0FF24F3948F2D2A960FB6F894DEBFF6
:1025D0000FBECDBFCF91DF911F910F91FF90DF9084
:1025E000CF90BF90AF900895AF92BF92CF92DF92FD
:1025F000EF92FF920F931F93DF93CF93CDB7DEB788
:102600002C970FB6F894DEBF0FBECDBF7C016B01D7
:10261000CA0159010E941A12FC010097D1F481E00D
:1026200090E0A0E0B0E08D839E83AF83B8878FEF0A
:102630009FEFAFEFBFEF89879A87AB87BC87C70152
:1026400068E070E0AE014B5F5F4F0E94951211E0B1
:102650004FC0008111812281338109831A832B832A
:102660003C838BE1E816F10461F08CE1E816F1049B
:1026700051F53496C601BF01A90198010E941120AD
:1026800006C03496C601B501AF010E940524182F7B
:102690008823C9F029813A814B815C8181E090E0F7
:1026A000A0E0B0E08D839E83AF83B88729873A8707
:1026B0004B875C87C70168E070E0AE014B5F5F4FFE
:1026C0000E94951215C089819A81AB81BC811D82BF
:1026D0001E821F82188689879A87AB87BC87C701AD
:1026E00068E070E0AE014B5F5F4F0E949512182FBB
:1026F000812F2C960FB6F894DEBF0FBECDBFCF91C1
:10270000DF911F910F91FF90EF90DF90CF90BF90DE
:10271000AF900895EF92FF920F931F93DF93CF93A3
:10272000CDB7DEB72C970FB6F894DEBF0FBECDBF86
:102730008C01CB017A010E941A12FC010097D1F49E
:1027400081E090E0A0E0B0E08D839E83AF83B88706
:102750008FEF9FEFAFEFBFEF89879A87AB87BC877B
:10276000C80168E070E0AE014B5F5F4F0E949512B8
:1027700081E028C0608171818281938169837A833D
:102780008B839C830D31110531F00E31110531F42D
:102790000E94C61903C0A7010E94791989819A81F4
:1027A000AB81BC811D821E821F82188689879A8711
:1027B000AB87BC87C80168E070E0AE014B5F5F4F3C
:1027C0000E9495122C960FB6F894DEBF0FBECDBFB7
:1027D000CF91DF911F910F91FF90EF9008950F938C
:1027E0001F938C01109262071092610760E070E005
:1027F00080E090E0A8010E94F82261E070E080E0B3
:1028000090E0A8010E94F8228091630790916407EC
:102810000E94EA291F910F910895CF92DF92EF92C3
:10282000FF920F931F936B017C0189019A018091A4
:10283000630790916407B701A6010E94E9291F91DF
:102840000F91FF90EF90DF90CF9008951F938091AC
:102850006307909164070E94D029182F882361F4A0
:1028600060E070E080E090E00E94FC2161E070E0B8
:1028700080E090E00E94FC21812F1F9108952F920B
:102880003F924F925F926F927F928F929F92AF9200
:10289000BF92CF92DF92EF92FF920F931F93DF933D
:1028A000CF93CDB7DEB72A970FB6F894DEBF0FBE31
:1028B000CDBF5B016C012A0180916207882309F476
:1028C0006FC08E010D5F1F4FC801B601A5019201B7
:1028D0000E9408231E010894211C311C09871A87B5
:1028E00052C00D811E81060D171DF801E080F18098
:1028F000428153818091630790916407B7019101F0
:102900000E94CB2A882309F048C089819A818E15BC
:102910009F0509F042C0F801E480F5801E141F04F1
:102920008CF4468157818091630790916407B701C9
:1029300091010E94CB2A882381F589819A818E1585
:102940009F0559F5C401880F991FEF81F885E80F9D
:10295000F91F80819181B601A5010E94F2190894A6
:10296000811C911C88E090E0680E791E8B819C810F
:10297000881699060CF4B5CF89859A85B601A5010C
:1029800092010E9408238B819C811816190644F439
:102990008824992466247724E9CFC2010E94EF138A
:1029A0002A960FB6F894DEBF0FBECDBFCF91DF9150
:1029B0001F910F91FF90EF90DF90CF90BF90AF905D
:1029C0009F908F907F906F905F904F903F902F904F
:1029D00008951F93CF93DF93EC0160E070E080E0F7
:1029E00090E00E945C1960E070E080E090E0AE0151
:1029F0000E943F1460E070E080E090E0AE010E9431
:102A00002A228091650790916607009731F00E9415
:102A1000FA01109266071092650761E070E080E0AD
:102A200090E00E945C1961E070E080E090E0AE010F
:102A30000E943F1461E070E080E090E0AE010E94EF
:102A40002A228091650790916607009731F00E94D5
:102A5000FA0110926607109265078091610788233A
:102A600011F410E00BC084E190E060E070E040E021
:102A700050E00E949512182F109261078091620712
:102A8000882341F01092620781E090E090931A034E
:102A90008093190380916307909164070E94EF2D42
:102AA00080916307909164070E94E829812FDF914C
:102AB000CF911F9108952F923F924F925F926F9204
:102AC0007F928F929F92AF92BF92CF92DF92EF92BE
:102AD000FF920F931F93DF93CF93CDB7DEB7A097ED
:102AE0000FB6F894DEBF0FBECDBF6C017B012A018B
:102AF00080916207882359F480916307909164075D
:102B000062E677E00E94D229882309F012C38091FF
:102B10006207882309F40DC31A82198200E010E0CD
:102B200058E0652E712C4BE0842E912C8C0E9D1E4E
:102B30005E010894A11CB11CB301601B710B9401D0
:102B4000200F311F8091630790916407A5010E94B7
:102B5000D02B282F882351F489819A81080F191FBF
:102B60000115110519F00830110534F389819A8196
:102B7000222309F0DBC2181619060CF0DAC2809184
:102B80006107882321F41B861C861D861E868B8583
:102B90009C85AD85BE8586309105A105B10509F4FA
:102BA00068C087309105A105B10510F58230910507
:102BB000A105B10509F4BAC283309105A105B1059B
:102BC00058F40097A105B10509F468C00197A10563
:102BD000B10509F0AEC24BC284309105A105B10523
:102BE00009F458C10597A105B10509F0A2C281C138
:102BF00089309105A105B10509F490C28A3091058B
:102C0000A105B10558F487309105A105B105D1F1B1
:102C10000897A105B10509F08CC226C08B3091053B
:102C2000A105B10509F476C28B309105A105B10566
:102C300008F463C20F97A105B10509F07AC2D60165
:102C40001696ED91FC91179780819181A281B381B5
:102C50008B839C83AD83BE8385E190E064E070E06C
:102C6000AE014D5F5F4F2DC16F8578898DE190E09A
:102C700059C24F8558898BE190E0B601970107E171
:102C800013E009C04F8558898CE190E0B6012FEF21
:102C90003FEF08E113E00E94F4124BC2D6011496F4
:102CA000ED91FC91159700811181F801F281FD8F62
:102CB000D8011396BC91BE8FF801F081FB8FD8012B
:102CC0001196BC91BC8F30E1832E912CA12CB12C9C
:102CD0008B8A9C8AAD8ABE8A88E090E0A0E0B0E052
:102CE0008F8B988FA98FBA8F23E1422E512C4C0ED7
:102CF0005D1E809163079091640768E070E0A20117
:102D00003E010894611C711C93010E94CB2A882308
:102D100009F0BAC089819A81089709F0B5C0F80115
:102D2000E080F18088E090E0E80EF91EEE0CFF1CD8
:102D3000EE0CFF1CC7010E9450018F8F98A38C01DD
:102D40001C01009709F4A2C08B8A9C8AAD8ABE8AB6
:102D5000C701AA2797FDA095BA2F8F8B988FA98FAF
:102D6000BA8F809163079091640768E070E0A201D8
:102D700093010E94CB2A882309F088C089819A8117
:102D8000089709F083C04B8D5C8DD6011296ED91AA
:102D9000FC911397A080B180C280D380D801AD92FE
:102DA000BD92CD92DC921397A480B580C680D78067
:102DB0001496AD92BD92CD92DC921797A084B18407
:102DC000C284D3841896AD92BD92CD92DC921B97AB
:102DD00084859585A685B785F80184879587A6871C
:102DE000B787D80150961D921D921D921C92539741
:102DF00084E090E0A0E0B0E0848B958BA68BB78B4D
:102E00008091190390911A03A0E0B0E0808F918F18
:102E1000A28FB38FCA01AA2797FDA095BA2F848FDE
:102E2000958FA68FB78F2D8D3E8DC901BC012F8D3B
:102E300038A1C901FC0120E030E00CC0DB018D911C
:102E40009D91BD01A0E0B0E0848F958FA68FB78FD4
:102E50002F5F3F4F34962417350784F38091630723
:102E600090916407B701A8019E012F5F3F4F0E9418
:102E7000CB2A882359F489819A818E159F0531F4D4
:102E800081E08093610702C022243324C1010E94A3
:102E9000FA014FC18F8598890E941A12BC018E01D8
:102EA000095F1F4F009781F481E090E0A0E0B0E05F
:102EB0008F839887A987BA8782E190E064E070E009
:102EC000A8010E94951235C1C6010E94F71E1F82FB
:102ED000188619861A8682E190E064E070E0A80105
:102EE0000E949512882309F024C181E08093600735
:102EF00020C1D6011496ED91FC9115970190F081B7
:102F0000E02DA084B184A114B10409F495C0D501C9
:102F10006D907C908280938000E010E060E070E033
:102F200040E050E021C0F501A281B381A40FB51F9C
:102F30001296ED91FC911397EE0FFF1FE80DF91D0E
:102F40002081318116968D919C911797DC012A9FE3
:102F5000C0012B9F900D3A9F900D1124080F191F4F
:102F60006F5F7F4F485F5F4F66157705E4F283E13F
:102F700090E0A0E0B0E08B8B9C8BAD8BBE8BC8014A
:102F8000AA2797FDA095BA2F8F8B988FA98FBA8FFC
:102F9000809163079091640768E070E0AE014D5E38
:102FA0005F4F6E010894C11CD11C96010E94CB2A70
:102FB000882309F0BEC089819A81089709F0B9C0B9
:102FC000EE24FF2400E010E0260132C0F501A281CA
:102FD000B381A00FB11F1296ED91FC911397EE0FE4
:102FE000FF1FE80DF91D2081318116968D919C916E
:102FF0001797289F6001299FD00C389FD00C11246F
:103000004D915C918091630790916407B6019201A4
:103010000E94CB2A882309F08CC0085F1F4F89814A
:103020009A818C159D0509F084C00894E11CF11C5F
:10303000E614F7045CF27DC083E190E0A0E0B0E02C
:103040008B8B9C8BAD8BBE8B1F8A188E198E1A8E24
:10305000809163079091640768E070E0AE014D5E77
:103060005F4F9E012F5F3F4F0E94CB2A62C081E1DC
:1030700090E060E070E040E050E00E94951288230C
:1030800009F057C060E070E080E090E00E945C19B9
:1030900080916C07882339F060E070E080E090E078
:1030A000A7010E943F1460E070E080E090E0A7017B
:1030B0000E942A2261E070E080E090E00E945C19AA
:1030C00080916C07882339F061E070E080E090E047
:1030D000A7010E943F1461E070E080E090E0A7014A
:1030E0000E942A2210926207109261078091630762
:1030F000909164070E94DF291CC081E090E09093CA
:103100006B0780936A0786E190E060E070E040E042
:1031100050E0D7CE81E0D2018C930BC06F857889C7
:103120008EE190E0A7010E948A1303C0C7010E94AC
:10313000EF13A0960FB6F894DEBF0FBECDBFCF91B0
:10314000DF911F910F91FF90EF90DF90CF90BF9094
:10315000AF909F908F907F906F905F904F903F9037
:103160002F9008950F931F938C0160E070E080E032
:1031700090E0A8010E943F1461E070E080E090E0E0
:10318000A8010E943F141F910F9108958091630739
:10319000909164070E94E22908950F931F93CF93A3
:1031A000DF93EC018B010E94E529909364078093E3
:1031B0006307009719F4C0E0D2E007C0BE01A80180
:1031C0000E946D2DEC01009751F080916307909162
:1031D00064070E94E8291092640710926307CE01E9
:1031E000DF91CF911F910F9108950895089580E088
:1031F00090E060E070E00E94CD1808950E94E9140C
:1032000008950E94261408950E94061208950E94AF
:10321000F91108950E94D6110895CF93DF939C0170
:10322000EB018091190390911A03049731F0C901C1
:103230000E945B15CE010E94B218DF91CF910895D4
:10324000EF92FF920F931F93CF93DF937C018B013B
:10325000EA010E94C618882399F41BC060E070E060
:1032600080E090E028ED38EB45E050E00E940D143E
:10327000C701B801AE010E945B15C8010E94B218D7
:1032800080916A0790916B07892B19F488818823B4
:1032900029F38091190390911A03049731F083E088
:1032A00090E090931A0380931903DF91CF911F91BF
:1032B0000F91FF90EF90089524E430E0629FF001B9
:1032C000639FF00D729FF00D1124E359F84F82892E
:1032D00093890497029760F485E090E0938B828B4A
:1032E0008FEF9FEFAFEFBFEF828F938FA48FB58FDC
:1032F0000895CF93DF9324E430E0629FD001639F71
:10330000B00D729FB00D1124A359B84F10926C07E5
:103310009D961C921E929C9760E070E020E030E049
:10332000C1E0D0E019C01A96ED91FC911B97E20F15
:10333000F31F828193811816190654F484819581B4
:10334000978386839187808713861286D183C08373
:103350006F5F7F4F225F3F4F6417750724F39B9683
:103360001C921E929A97D9961C921E92D897FD0194
:10337000FE96108211821282138282E090E05396B0
:103380009C938E935297DF91CF91089524E430E07F
:10339000629FF001639FF00D729FF00D1124E359BD
:1033A000F84F8289938981309105D8F08530910555
:1033B00018F00597B1F40DC08FEF9FEFAFEFBFEF9F
:1033C000828F938FA48FB58F85E090E0938B828B53
:1033D00008958FEF9FEFAFEFBFEF828F938FA48F92
:1033E000B58F089524E430E0429FF001439FF00D33
:1033F000529FF00D1124E359F84F9C01220F331F07
:10340000C90143E0880F991F4A95E1F7821B930B8E
:103410000284F385E02DE80FF91F81E080936C07AB
:1034200082859385918780872085318586819781E4
:1034300040E050E02817390711F441E050E0518393
:1034400040830895EF92FF920F931F93CF93DF93E2
:10345000DC01EA01F9011496ED90FC9015971296A3
:103460004D915C9113972881398118968D919C918B
:1034700019978217930730F08D919C911197892BA2
:1034800009F43FC08701040F151FA801421B530B0D
:1034900018968D919C9119978E199F09840F951FED
:1034A000861797070CF443C0260F371F8881998130
:1034B0002017310728F471836083938382832EC0A1
:1034C0005183408393838283CB01841B950B958327
:1034D0008483181619061CF080E090E004C014964E
:1034E0008D919C9115979783868314968D919C91CD
:1034F000159724813581820F931F9983888380E0FB
:1035000017C018968D919C911997821B930B861763
:1035100097076CF071836083338322831582148252
:103520001782168288819981860F971FE6CF81E0E6
:10353000DF91CF911F910F91FF90EF900895EF923F
:10354000FF920F931F93CF93DF937B018C01FA01BE
:1035500084E490E0E89EE001E99ED00DF89ED00D55
:103560001124C359D84F8A899B89009709F449C00F
:103570000197C1F48AA59BA52A8D3B8D4C8D5D8D4D
:1035800001969BA78AA70197AA2797FDA095BA2F16
:1035900082179307A407B507A1F5C801B701AF01CA
:1035A0000E9479198A899B89039759F58AA59BA559
:1035B0002E8D3F8D48A159A101969BA78AA70197FF
:1035C000AA2797FDA095BA2F82179307A407B507DE
:1035D000C4F08EAD9FAD9BA78AA784E090E09B8B43
:1035E0008A8B8AAD9BADACADBDAD181619061A0617
:1035F0001B063CF4FE01EE5BFF4F81E090E09183FF
:103600008083DF91CF911F910F91FF90EF900895EC
:1036100024E430E0629FF001639FF00D729FF00D93
:103620001124E359F84F828993890097C1F00497D8
:10363000B1F482A593A5019693A782A7AA2797FD27
:10364000A095BA2F26893789408D518D821793070F
:10365000A407B50721F485E090E0938B828B089551
:103660002F923F924F925F926F927F928F929F9292
:10367000AF92BF92CF92DF92EF92FF920F931F9380
:10368000DF93CF93CDB7DEB7CC54D0400FB6F894CC
:10369000DEBF0FBECDBF27969FAF8EAF27974DA73A
:1036A0005EA76FA778AB2B960CAF1DAF2EAF3FAFC9
:1036B0002B9784E490E029962EAD3FAD2997289F63
:1036C0004001299F900C389F900C11244DE657E043
:1036D000840E951ED4011A960D90BC91A02D2596AE
:1036E000BFAFAEAF2597F40182899389029709F0A5
:1036F00025C186A597A5A0A9B1A90097A105B105E7
:1037000029F484E090E0938B828B18C1D401549605
:103710008D919C9155972796EEADFFAD2797E817B1
:10372000F90709F00BC1D6962D913C91D7973EAF82
:103730002DAF1DAA1EAA1FAA18AE1CAA1BAACBC079
:10374000D401D2964D905C90D397EBA9FCA94E0E74
:103750005F1ED20112960D90BC91A02DBCAFABAFF5
:10376000B695A795B695A795BAAFA9AFF40180AD68
:1037700091AD892B09F489C0E6A0F7A000A511A599
:103780006DAC7EACD2012D903C9021961FAE1EAE4A
:10379000219771C0F40182A193A1892B61F1D1011C
:1037A000AD90BD90CD90DC90C601B501A801970108
:1037B0000E94FB3388235CF0F30160817181828178
:1037C0009381A80197010E94453387FD98C0C601E7
:1037D000B501A80197010E94FB33181664F4D301C8
:1037E0006D917D918D919C91A80197010E94453327
:1037F000882309F484C0F40184A195A1892B61F187
:10380000D101AD90BD90CD90DC90C601B501A8016D
:1038100097010E94453388235CF4F3016081718134
:1038200082819381A80197010E94FB3387FF67C0C3
:10383000C601B501A80197010E944533882361F4B0
:10384000D3016D917D918D919C91A80197010E946A
:10385000FB3318160CF453C02196EEADFFAD219743
:1038600031962196FFAFEEAF219724E030E0620E53
:10387000731E220E331E21964EAD5FAD219789AD8A
:103880009AAD481759070CF485CFD2016C91119667
:103890007C918DAD9EAD4BAD5CAD0E945202E9AD09
:1038A000FAADEE0FFF1FEE0FFF1F2DAD3EAD2E0F39
:1038B0003F1F3EAF2DAF8DA99EA9AFA9B8AD019610
:1038C000A11DB11D8DAB9EABAFABB8AFABA9BCA971
:1038D0001496BCABABABF40186A597A5A0A9B1A982
:1038E0002DA93EA94FA958AD281739074A075B07EC
:1038F0000CF426CF81E090E091AF80AF1FC0F401BF
:10390000868D978DA0A1B1A10097A105B10549F4BD
:1039100084E090E0938B828B86AD97AD93A782A7CE
:103920000DC083E090E0D40153969C938E93529700
:1039300081E090E09B969C938E939A97F401828904
:1039400093898230910571F482AD93ADA4ADB5AD8C
:10395000181619061A061B060CF02FC2A1E02A2E13
:10396000312C05C0049709F028C22224332427965D
:103970008EAD9FAD2797880F991F7C01E3E0EE0C79
:10398000FF1CEA95E1F7E81AF90A25962EAD3FAD3E
:103990002597E20EF31ED70112966D917C91139735
:1039A0006115710519F480E090E0FAC1F701868194
:1039B00097819A838983FE01799684E1DF011D92C4
:1039C0008A95E9F72B962CAD3DAD4EAD5FAD2B97AB
:1039D00029A73AA74BA75CA72114310409F446C0D4
:1039E000F401FE962081318142815381F40182AD40
:1039F00093ADA4ADB5AD281739074A075B07B1F5FC
:103A0000D70114964D915C911597640F751F189608
:103A1000ED91FC91199784819581A681B7819C01D4
:103A20008B839C83AD83BE83285F3F4FF7018085E6
:103A30009185820F931F9187808780859185861B52
:103A4000970B97FD04C0480F591F518740873C834F
:103A50002B83F401FE9680819181A281B38101972D
:103A6000A109B10980839183A283B383C70164E173
:103A700070E08E010F5F1F4FA8019E012F5E3F4F28
:103A80000E94221A90E0009709F08AC18D8D9E8DC8
:103A9000AF8DB8A10C96A11DB11D8D8F9E8FAF8FDC
:103AA000B8A3C70164E070E0A8019E01275F3F4F03
:103AB0000E94221A282F30E03AAB29AB232B09F0C1
:103AC0006DC18D8D9E8DAF8DB8A10496A11DB11DC8
:103AD0008D8F9E8FAF8FB8A38E01035D1F4F4985D9
:103AE0005A858B859C85B8010E9452026F85788922
:103AF0006115710551F029853A85200F311F4D85DB
:103B00005E85CB01B9010E9452021D821E821F8276
:103B1000188627964EAD5FAD2797440F551F239605
:103B20005FAF4EAF2397CE0105962D969FAF8EAF18
:103B30002D97D4C0C901880F991F880F991FF401D0
:103B4000A085B185A80FB91FED91FC911197E08177
:103B5000EE2309F4B8C0E33009F4B5C01296ED9134
:103B6000FC91139723962EAD3FAD2397E20FF31FE1
:103B7000408051804114510409F4A5C089A19AA143
:103B8000ABA1BCA10196A11DB11D89A39AA3ABA3B2
:103B9000BCA3C70164E070E0AE014F5F5F4F9E01C0
:103BA000275F3F4F0E94221A90E0009709F0F8C06B
:103BB0008D8D9E8DAF8DB8A10496A11DB11D8D8FE9
:103BC0009E8FAF8FB8A349855A858B859C852C968F
:103BD0006FAD2C972D967FAD2D970E9452026F8569
:103BE00078896115710571F029853A8545E050E0C5
:103BF0004C0F5D1F240F351F4D855E85CB01B9012C
:103C00000E945202AA24BB2465016624772450C076
:103C1000D20114960D911C911597060D171DF801F0
:103C200062817381C701AE014F5F5F4F9E01275FC5
:103C30003F4F0E94221A90E0009709F0B1C0D801CE
:103C400012962D913C911397442737FD4095542FA0
:103C50008D8D9E8DAF8DB8A1820F931FA41FB51FB0
:103C60008D8F9E8FAF8FB8A3F801608171814985D8
:103C70005A858B859C850E9452026F8578896115D3
:103C8000710569F0D8012D913C9189859A85280F9D
:103C9000391F4D855E85CB01B9010E9452020894FF
:103CA000A11CB11CC11CD11CE4E0F0E06E0E7F1E13
:103CB000F20180819181A281B381A816B906CA065A
:103CC000DB060CF4A5CF8D819E81AF81B88501966E
:103CD000A11DB11D8D839E83AF83B8872D813E8149
:103CE0004F815885F40184819581A681B781281779
:103CF00039074A075B070CF41DCF89A19AA1ABA134
:103D0000BCA10097A105B10509F448C08AE190E083
:103D1000A0E0B0E0898F9A8FAB8FBC8F27962EAD35
:103D20003FAD2797C901AA2797FDA095BA2F8DA36C
:103D30009EA3AFA3B8A78E01075E1F4F49895A897A
:103D40008B899C89B8010E9452026F89788D611518
:103D5000710551F029893A89200F311F4D895E89FB
:103D6000CB01B9010E94520289819A81D70117962D
:103D70009C938E93169711961C921E922328E9F01D
:103D8000F401FE9680819181A281B3810196A11DEB
:103D9000B11D80839183A283B3830FC089A99AA99F
:103DA000232859F4892B49F081E090E0F40195A78C
:103DB00084A785E090E0938B828BC45BDF4F0FB6C6
:103DC000F894DEBF0FBECDBFCF91DF911F910F9151
:103DD000FF90EF90DF90CF90BF90AF909F908F902B
:103DE0007F906F905F904F903F902F9008952F920B
:103DF0003F924F925F926F927F928F929F92AF927B
:103E0000BF92CF92DF92EF92FF920F931F93DF93B7
:103E1000CF93CDB7DEB768970FB6F894DEBF0FBE6D
:103E2000CDBFDC011496ED91FC9115970190F081C6
:103E3000E02D80859185988F8F8BA281B381BE8B79
:103E4000AD8BFB0181919191A191B19189839A836D
:103E5000AB83BC8366247724430165C09E012B5F3E
:103E60003F4FAF0180E1DA010D90AD01D9010D9214
:103E70009D018150C1F730E1432E512C4E0E5F1E43
:103E80008D819E8123E0880F991F2A95E1F7EF89A4
:103E9000F88DA281B381A80FB91F2D903C90119786
:103EA000E989FA89EE0FFF1F8D899E89E80FF91FB6
:103EB0000190F081E02D14968D919C911597892B9E
:103EC00019F481E090E002C082E090E08E9F7001E2
:103ED0008F9FF00C9E9FF00C11240027F7FC00959B
:103EE000102F2D853E854F855889C801B7010E9446
:103EF00062345B016C0129853A854B855C85C8017C
:103F0000B7010E9462349101260F371FC901B20127
:103F1000A5010E945202F201EA0DFB1D0894611CEA
:103F2000711C811C911C89819A81AB81BC816816AE
:103F300079068A069B060CF491CF68960FB6F89422
:103F4000DEBF0FBECDBFCF91DF911F910F91FF90CC
:103F5000EF90DF90CF90BF90AF909F908F907F9029
:103F60006F905F904F903F902F900895CF93DF9385
:103F700024E430E0629FE001639FD00D729FD00D7A
:103F80001124C359D84F8AA99BA9009721F00E94F8
:103F9000FA011BAA1AAA8EA99FA9009721F00E94D4
:103FA000FA011FAA1EAA1B8A1A8A1E8A1F8A188E45
:103FB000198E1A8E1B8E1C8E1D8E1E8E1F8E18A2A1
:103FC00019A281E090E09BA38AA31DA21CA280E01D
:103FD00090E0A0E0B0E08EA39FA3A8A7B9A71BA67E
:103FE0001AA61DA61CA61EA61FA618AA19AA1BAAB9
:103FF0001AAA1DAA1CAA1FAA1EAA19AE18AE1AAE8A
:104000001BAE1CAE1DAEFE01FE9610821182128206
:104010001382FE01EE5BFF4F11821082DF91CF9180
:1040200008952F923F924F925F926F927F928F925C
:104030009F92AF92BF92CF92DF92EF92FF920F9337
:104040001F93DF93CF93CDB7DEB7AC970FB6F8943D
:10405000DEBF0FBECDBF98A38F8F8B0129A33AA3DC
:104060004BA35CA3FB0181919191A191B191AF010F
:10407000BC0189839A83AB83BC8329A13AA184E4E0
:1040800090E0289FF001299FF00D389FF00D11243A
:104090009F012359384F3EA32DA3D90155967C93F8
:1040A0006E9354979F012D57384FD80114964D9019
:1040B0005D906D907C901797D9014D925D926D92B5
:1040C0007C921397BA016C5F7F4F9F012957384F3D
:1040D000DA0114964D905D906D907C901797D90100
:1040E0004D925D926D927C921397AB014C5F5F4F46
:1040F0009F012557384FDB0114964D905D906D90D0
:104100007C901797D9014D925D926D927C92139796
:10411000E556F84FDA0114964D905D906D907C90C5
:1041200017974082518262827382FA013896FE8F1D
:10413000ED8F0DA11EA1025D1F4FC20114141504C5
:104140000CF0C3C0880F991F880F991F0E9450015F
:104150009C018DA19EA1C296ADA1BEA1D3963C9318
:104160002E93D297232B09F427C122243324210133
:104170001A8E198E18A70FA39AA789A7D496BCA741
:10418000ABA788C0E9A5FAA50190F081E02D298DA3
:104190003A8DE20FF31FFC8FEB8FDE011996ED8D48
:1041A000FE8D80E101900D928150E1F7AF8DB8A1B5
:1041B0001496ED91FC91159720813181D9011696C5
:1041C000ED91FC91179789859A8553E0880F991F87
:1041D0005A95E1F7A281B381A80FB91F6D907C9029
:1041E00011978D899E89880F991FF901228133814A
:1041F000280F391FF9014081518114968D919C91AE
:104200001597892B19F481E090E002C082E090E0DC
:104210002D8D3E8D205F3F4F3E8F2D8F849F7001EF
:10422000859FF00C949FF00C11240027F7FC00955B
:10423000102F29893A894B895C89C801B7010E94EE
:1042400062344B015C016B012D853E854F85588999
:10425000C801B7010E946234660E771EAB8DBC8D1B
:1042600011967C926E9213969C928E921297EBA569
:10427000FCA580819181C80ED91ED182C08208948C
:10428000211C311C411C511C298D3A8D2C5F3F4F44
:104290003A8F298FEFA1F8A580819181A281B38106
:1042A000281639064A065B060CF46CCFADA1BEA1F8
:1042B000D4968D919C91D5970E945001EDA1FEA1BD
:1042C00097AB86AB009709F477C0AD8DBE8D2C916E
:1042D00011963C91119712964C91129713965C91FE
:1042E0002D833E834F835887C901DA01AC01BD019C
:1042F000411551056105710539F0A0E0B0E042308B
:1043000051056105710511F4A1E0B0E029A13AA1C0
:1043100084E490E0289FF001299FF00D389FF00D74
:104320001124E359F84FB3A3A2A315A214A241503C
:10433000504060407040423051056105710520F4E5
:1043400081E090E095A384A384E490E0E9A1FAA140
:10435000E89F9001E99F300DF89F300D1124A901CD
:104360004D56584FED8DFE8D84819581A681B78184
:10437000FA0180839183A283B383F901E359F84F53
:10438000268D378D40A151A157FF10C0882799274E
:10439000DC01821B930BA40BB50B82AF93AFA4AFD0
:1043A000B5AF168E178E10A211A204C012AE13AEB6
:1043B00014AE15AE80E007C069A17AA18BA19CA1C3
:1043C0000E94B61F81E0AC960FB6F894DEBF0FBE18
:1043D000CDBFCF91DF911F910F91FF90EF90DF90B4
:1043E000CF90BF90AF909F908F907F906F905F9095
:1043F0004F903F902F900895CF93DF939B01AC0196
:1044000084E490E0289FF001299FF00D389FF00D83
:104410001124E359F84FD901A55EBC4F8C91882334
:1044200031F084E4EF0119928A95E9F71C92148225
:104430001582168217821186108613861286118ABB
:10444000108A17861686CA01B9010E94B61FDF912D
:10445000CF9108952F923F924F925F926F927F92E9
:104460008F929F92AF92BF92CF92DF92EF92FF9284
:104470000F931F93DF93CF9300D00F92CDB7DEB78A
:104480003B014C015A83498384E490E0689E7001AB
:10449000699EF00C789EF00C11248DE697E0E80EF2
:1044A000F91EF70184819581A681B7810097A10546
:1044B000B10509F486C0AA24BB246501442455240F
:1044C00035C0E40DF51D32802380232D322DC90126
:1044D0009C838B8300E010E017C0AB81BC81ED9121
:1044E000FC91309751F0848195810E94FA01EB8113
:1044F000FC81808191810E94FA010F5F1F4F8B81A7
:104500009C8102969C838B83A981BA810A171B0721
:1045100024F3832D922D0E94FA010894A11CB11C52
:10452000C11CD11CE4E0F0E04E0E5F1ED7011496D2
:104530002D913D914D915C9117971896ED91FC91BD
:104540001997A216B306C406D5060CF4BACFCF014C
:104550000E94FA01F70182859385892BF1F000E032
:1045600010E0CC24DD240CC0EC0DFD1D8481958170
:104570000E94FA010F5F1F4F8EE090E0C80ED91E17
:10458000D7011A96ED91FC911B9789819A810817A2
:10459000190754F3CF010E94FA01D70150968D916B
:1045A0009C9151970E94FA01F701868597850E9498
:1045B000FA01C401B3010E94B61FC401B3010E94F5
:1045C000FC210F900F900F900F90CF91DF911F91D2
:1045D0000F91FF90EF90DF90CF90BF90AF909F90A2
:1045E0008F907F906F905F904F903F902F900895A5
:1045F00024E430E0629FF001639FF00D729FF00DA4
:104600001124E359F84F138A128A0E942A2208952E
:104610004F925F926F927F928F929F92AF92BF92D2
:10462000CF92DF92EF92FF920F931F93DF93CF937E
:1046300000D00F92CDB7DEB75C0149835A836B83FC
:104640007C83290184E490E0489F8001499F100DFC
:10465000589F100D11240359184FF801828993892E
:104660000497029708F0B4C0F501118210821382FA
:104670001282F801158614868824992466247724EA
:1046800060C0F80142855385460D571DFA018081AF
:104690009181892B09F04EC0C084D184E280F380DF
:1046A00066817781F801848595859C01A3E0220FBE
:1046B000331FAA95E1F7A089B189A20FB31F880F14
:1046C000991F26853785280F391FF901918280822D
:1046D000F801848595850196958784871396DC92E9
:1046E000CE921297FA0173876287C616D70670F4C6
:1046F0006C197D0911967C936E9315961C921E92EF
:10470000149717961C921E92169714C0FA01848172
:104710009581E80EF91EEC18FD081196FC92EE92B8
:10472000681B790B15967C936E93149717969C9340
:104730008E9316970894811C911C8EE090E0680E71
:10474000791E841495040CF49CCFF801848595851A
:10475000F50191838083F80120893189F501338344
:104760002283F80126853785F50135832483892B3B
:10477000B9F5F80182899389059791F510926C0734
:10478000828D938DA48DB58DAE014F5F5F4F8F5F8E
:104790009F4FAF4FBF4F71F480E290E064E070E054
:1047A0000E94951269817A818B819C81A2010E946D
:1047B000F82216C08FE190E064E070E00E9495124C
:1047C000F80113A612A681E090E0938B828B08C0BB
:1047D000F80115861486F501118210821382128267
:1047E0000F900F900F900F90CF91DF911F910F912D
:1047F000FF90EF90DF90CF90BF90AF909F908F9001
:104800007F906F905F904F9008952F923F924F92BC
:104810005F926F927F928F929F92AF92BF92CF9250
:10482000DF92EF92FF920F931F93DF93CF93CDB759
:10483000DEB7E6970FB6F894DEBF0FBECDBF98ABDC
:104840008FA77AAB69AB7A010BAB1CAB2DAB3EAB40
:1048500084E490E04BA95CA9489F9001499F300DEA
:10486000589F300D11242359384F3AA729A78BA9F7
:104870009CA9ADA9BEA9F90180839183A283B383CA
:10488000BC01CD0149A95AA90E942A22D7012D9124
:104890003D914D915C91C901E9A5FAA52483358329
:1048A0004683578364E070E00E943401A9A5BAA54D
:1048B00019969C938E931897009709F04FC104C2E4
:1048C000E9A5FAA50084F185E02D298D3A8DE20F46
:1048D000F31FFEA7EDA70BA51CA5F80181919191EF
:1048E000A191B1918F019C018D839E83AF83B88785
:1048F000220F331FAFA5B8A9ED91FC91E20FF31F72
:1049000080819181EDA5FEA591838083EBA5FCA517
:1049100084819581A681B78189839A83AB83BC8387
:1049200089A99AA962E070E00E943401ADA5BEA5F4
:1049300013969C938E931297009709F4C5C1F801C2
:104940003496FCA7EBA71F8E18A219A21AA2F7C0D3
:10495000EBA5FCA580819181A281B3819C018D830F
:104960009E83AF83B887220F331FADA5BEA51296D5
:104970000D911C911397020F131F81E090E068E0E6
:1049800070E00E943401F801808391838D819E81C3
:10499000880F991FADA5BEA51296ED91FC911397B6
:1049A000E80FF91F608071806114710409F48CC1F3
:1049B0000BA51CA50C5F1F4FEBA5FCA52481358121
:1049C00046815781C901D3012D933D934D935C934B
:1049D000139764E070E00E943401F30195838483AF
:1049E000009709F471C198012C5F3F4F3CA72BA79A
:1049F0002224332421011CA21BA28AC0D3011496B5
:104A00000D90BC91A02DEBA1FCA1AE0FBF1FBEA3CA
:104A1000ADA3DE011996EBA5FCA580E101900D92F6
:104A20008150E1F7AFA5B8A91496ED91FC911597C7
:104A300020813181D9011696ED91FC9117978985D6
:104A40009A8553E0880F991F5A95E1F7A281B381A7
:104A5000A80FB91FED91FC911197F8A7EFA38D89CD
:104A60009E89880F991FF90122813381280F391FF0
:104A7000F9014081518114968D919C911597892B54
:104A800019F481E090E002C082E090E02BA53CA503
:104A9000205F3F4F3CA72BA7849F7001859FF00CA0
:104AA000949FF00C11240027F7FC0095102F298902
:104AB0003A894B895C89C801B7010E9462345B0165
:104AC0006C012D853E854F855889C801B7010E942C
:104AD00062344FA158A5460F571FADA1BEA1119634
:104AE0005C934E931396BC92AE921297F30186811B
:104AF00097818A0D9B1D978386830894211C311C06
:104B0000411C511C2BA13CA12C5F3F4F3CA32BA36C
:104B1000F30180819181A281B381281639064A066A
:104B20005B060CF46BCF2F8D38A149A15AA12F5FE2
:104B30003F4F4F4F5F4F2F8F38A349A35AA389810F
:104B40009A81AB81BC812F8D38A149A15AA1281728
:104B500039074A075B070CF4FBCED8C0A7014C5FAE
:104B60005F4F5CA74BA71B8E1C8E1D8E1E8E1A8E50
:104B7000198EE9A5FAA584819581A681B7812B8D2F
:104B80003C8D4D8D5E8D281739074A075B070CF465
:104B900097CE89A99AA96EE070E00E943401A9A578
:104BA000BAA51A968C931A971B969C934424552465
:104BB000222433246624772401E0C02ED12C5BC04C
:104BC000EBA5FCA580819181A281B3819C018983A1
:104BD0009A83AB83BC83A9A5BAA51A964D915C9123
:104BE0001B97790137FD70C08A01060D171DF8016A
:104BF000D182C0822115310559F0C9010E945001AE
:104C0000D80115969C938E931497009721F45CC05D
:104C1000F801158214822BA53CA52C5F3F4F3CA7C1
:104C20002BA7D8011396FC92EE92129714968D91B1
:104C30009C91159717969C938E93169719969C9313
:104C40008E9318971B961C921E921A9720E030E0C4
:104C500089819A81AB81BC810097A105B10511F0D2
:104C600021E030E0420E531E0894211C311CEEE07E
:104C7000F0E06E0E7F1E29A93AA9221633060CF425
:104C80009FCFA9A5BAA51D961C921E921C97C20182
:104C900013E0880F991F1A95E1F70E945001E9A5CA
:104CA000FAA5918B808B009779F0C201880F991F2C
:104CB0000E945001A9A5BAA51F969C938E931E979A
:104CC000009711F080E009C06BA97CA98DA99EA96D
:104CD00049A95AA90E942A2281E0E6960FB6F894C3
:104CE000DEBF0FBECDBFCF91DF911F910F91FF901F
:104CF000EF90DF90CF90BF90AF909F908F907F907C
:104D00006F905F904F903F902F9008952B8D3C8D2A
:104D10004D8D5E8D2F5F3F4F4F4F5F4F2B8F3C8FE1
:104D20004D8F5E8F498D5A8D4C5F5F4F5A8F498FE3
:104D300020CF2F923F924F925F926F927F928F92ED
:104D40009F92AF92BF92CF92DF92EF92FF920F931A
:104D50001F93DF93CF93CDB7DEB72F970FB6F8949D
:104D6000DEBF0FBECDBF7C016B01DB0111968C91C4
:104D7000882309F4E6C11A821B821C821D821982D3
:104D80008EE7F7018083818383E085878687108A99
:104D90001786128A118AD70153961D921D921D9271
:104DA0001C92569757961C9237010894611C711CEF
:104DB00032E0432E512C4E0C5F1C23E0822E912CAE
:104DC0008E0C9F1C9DE0A92EB12CAE0CBF1CFE01C9
:104DD0003A96FF87EE8781E0282E312CC601BE016E
:104DE0006F5F7F4F21E030E040E050E08E010E5FCA
:104DF0001F4F0E940E2E882309F0A4C18A819B8137
:104E0000AC81BD810197A105B10551F0D701509644
:104E10001C921E921F9752961C921E92519791C1FE
:104E2000F701878590890297039708F5878999810B
:104E3000882329F0178AF0E29F27998318C09D37AD
:104E400029F09E3741F0933091F408C0E1E0D7019A
:104E50005796EC93C3CFD7019C932BC0D7015296A2
:104E60001C921E92519750961C921E921F97F7010A
:104E7000878590898230910509F446C08330910579
:104E800034F4009781F0019709F0A8CF27C084304F
:104E9000910509F4D6C0843091050CF463C00597E0
:104EA00009F09CCF12C189818E3709F097CFD701C5
:104EB0008C9352967C926E92519753968D919D91C0
:104EC0000D90BC91A02D0196A11DB11DF701838B02
:104ED000948BA58BB68B308A278680CF89818E37BD
:104EE00009F02AC1D7015196ED91FC915297808328
:104EF000F701138A148A158A168A82E090E0908B53
:104F00008787528A418A6ACFF70183899489A58964
:104F1000B6890097A105B10509F00EC18981018804
:104F2000F289E02D8193D7015296FC93EE9351972D
:104F300053968D919D910D90BC91A02D0196A11D30
:104F4000B11DF701838B948BA58BB68B0197A105BF
:104F5000B10509F043CF83E090E0908B8787928A78
:104F6000818AABC0F70183899489A589B6890497A2
:104F7000A105B10508F0E0C089810188F289E02D22
:104F80008193D7015296FC93EE93519753968D914E
:104F90009D910D90BC91A02D0196A11DB11DF70111
:104FA000838B948BA58BB68B0497A105B10509F073
:104FB00015CFD6012C911A861B861C861D86F401FE
:104FC00080819181A281B3818E839F83A887B987D5
:104FD000222389F4DE011696FE013D968D91808391
:104FE00031978E859F85A817B907C1F78A859B855C
:104FF000AC85BD8504C08E819F81A885B985F701E8
:1050000083839483A583B683138A148A158A168AA8
:105010000097A105B10549F084E090E0908B878767
:1050200087819085928B818BD9CEE5E0F0E0D70126
:105030005096FC93EE931F975296BC92AE92519766
:10504000CDCED70153962D913D914D915C915697C0
:1050500013968D919D910D90BC91A02D2817390725
:105060004A075B0708F068C08981D7015196ED9126
:10507000FC91529781935296FC93EE9351975396DD
:105080008D919D910D90BC91A02D0196A11DB11DFA
:10509000F701838B948BA58BB68B2381348145815B
:1050A000568182179307A407B50709F097CE85E0CC
:1050B00090E0908B8787B28AA18AD70153961D9280
:1050C0001D921D921C92569789CEF701838994896F
:1050D000A589B6890297A105B10570F5898183304C
:1050E00059F50188F289E02D8193D7015296FC93FE
:1050F000EE93519753968D919D910D90BC91A02D5B
:105100000196A11DB11DF701838B948BA58BB68BE6
:105110000297A105B10509F061CE86E090E0908B81
:105120008787128A118AD70153961D921D921D926C
:105130001C92569780E006C0F701128A118A108AE5
:10514000178681E02F960FB6F894DEBF0FBECDBF55
:10515000CF91DF911F910F91FF90EF90DF90CF9053
:10516000BF90AF909F908F907F906F905F904F9087
:105170003F902F9008956F927F928F929F92AF925F
:10518000BF92CF92DF92EF92FF920F931F93DF9324
:10519000CF93CDB7DEB760970FB6F894DEBF0FBEE2
:1051A000CDBF6C015B01DB0111968C91882309F462
:1051B000D4C08EE7F6018083818383E0858786876C
:1051C000108A1786128A118AD60153961D921D9253
:1051D0001D921C92569757961C92CB01B60122E065
:1051E00030E040E050E00E94B72E882309F0B5C0BF
:1051F000F60182818E3729F0833019F08D3709F05E
:10520000C1C08DE78987D60112968C9190E28927DB
:105210008A8722E030E040E050E0C501BE01675FD0
:105220007F4F0E94B72E882309F097C0F501208197
:10523000F60183819481A581B6818D839E83AF839E
:10524000B8872223A9F4FE013896DE0111969E014B
:105250002C5F3F4F80818D933197E217F307D1F791
:1052600089819A81AB81BC818D839E83AF83B8870E
:10527000BE016B5F7F4FDE01199624E030E040E015
:1052800050E0EDE7FE2E90E28E01085F1F4FFB011C
:1052900080818E3729F0833019F08D3709F078C07E
:1052A000FD01F192892711968C93DF0111962F5FF2
:1052B0003F4F4F4F5F4F6017710719F06F5F7F4F80
:1052C000E6CF69E0862E912C8C0E9D1EC501B4019F
:1052D0000E94B72E882309F040C0EE24FF248701E6
:1052E0005DE7652E40E2742E22C0D6011796ED913F
:1052F000FC911897EE0DFF1D80818E3729F08330C9
:1053000019F08D3709F046C06986808187258A8724
:1053100022E030E040E050E0C501B4010E94B72E29
:105320008823D9F40894E11CF11C011D111DF6011C
:1053300083819481A581B681E816F9060A071B07C7
:10534000A0F28DE090E0C80ED91EC501B60122E0A2
:1053500030E040E050E00E94B72E60960FB6F8941F
:10536000DEBF0FBECDBFCF91DF911F910F91FF9098
:10537000EF90DF90CF90BF90AF909F908F907F90F5
:105380006F900895898721E030E040E050E045CFFC
:105390008D9391CF898721E030E040E050E0BCCF91
:1053A00080E00895FB0120E0DC0111968D919C9135
:1053B0001297892B09F021E0208380E00895109254
:1053C000F5070895FC01808108958EEF97E0089518
:1053D000089508950F931F938C01FC0181819281A0
:1053E0000E94CA2EF801128211821F910F91089516
:1053F000CF93DF93C0E0D0E081E090E06AE470E01A
:105400000E943401FC01009711F481E01DC0A091BD
:10541000F807B091F9078091F6079091F707892B6B
:10542000B1F41097A1F4F093F907E093F807F09323
:10543000F707E093F607E85BFF4F11821082219691
:10544000C530D105C9F680E0DF91CF910895A85B02
:10545000BF4FED93FC93F093F907E093F807EBCF80
:105460004F925F926F927F928F929F92AF92BF9274
:10547000CF92DF92EF92FF920F931F93DF93CF9320
:1054800000D0CDB7DEB76C01562E472EF90158017A
:105490007A014331510518F092E1E92EF12CF182A5
:1054A000E08200E010E03E010894611C711C82E083
:1054B000882E912C8C0E9D1E35C01982C601B30119
:1054C0000E94752E882309F052C08981882331F00B
:1054D000C6010E94202B882309F049C02091F807BB
:1054E0003091F9078091F6079091F707892BC1F465
:1054F000232BB1F4083C11051CF40F5F1F4F12C0A1
:105500000E94F829882399F5C60160E070E040E028
:1055100050E0940102E010E00E94302A882339F51F
:1055200000E010E08091F507882321F082E0A816C2
:10553000B10419F6C701AA2797FDA095BA2F809349
:105540001C0890931D08A0931E08B0931F08A092FA
:105550001B088091200890912108652D742DA701CA
:105560000E94520289E198E0B6010E94BB280F9088
:105570000F900F90CF91DF911F910F91FF90EF90BF
:10558000DF90CF90BF90AF909F908F907F906F9063
:105590005F904F9008953F924F925F926F927F92EB
:1055A0008F929F92AF92BF92CF92DF92EF92FF9233
:1055B0000F931F93DF93CF930F920F92CDB7DEB768
:1055C0006B014A013901FC01A180B2801A82198263
:1055D000EE24FF242E010894411C511C33243394E3
:1055E00014C0B4016E0D7F1DA6014E195F09C501DF
:1055F000920101E010E00E94302A882369F4898139
:105600009A81E80EF91E3092F507EC14FD044CF374
:10561000F301D182C08280E00F900F90CF91DF9193
:105620001F910F91FF90EF90DF90CF90BF90AF90C0
:105630009F908F907F906F905F904F903F900895D4
:10564000AF92BF92DF92EF92FF920F931F93DF937F
:10565000CF930F920F92CDB7DEB75C0181E098E057
:10566000B5010E949926D82E882309F066C0809142
:105670000308823019F41092F5075FC060910808A2
:1056800070910908E0900408F09005080091F60771
:105690001091F7078091F8079091F907011511050E
:1056A00009F058C0892B09F055C00BC01092F907BA
:1056B0001092F807085B1F4FF801118210820854FE
:1056C0001040C801A7010E945202005C1F4FC70191
:1056D000AA2797FDA095BA2FF80181939193A193E2
:1056E000B1938F01108211821282138204541040F0
:1056F000E091FC07F091FD078091FA079091FB077C
:10570000892BB9F53097A9F51093FD070093FC0795
:105710001093FB070093FA07085B1F4FF8011182F3
:1057200010822091F8073091F9078091F607909147
:10573000F707892B39F5232B29F58D2D0F900F9025
:10574000CF91DF911F910F91FF90EF90DF90BF906D
:10575000AF900895085B1F4FF80180819181085434
:1057600010409093F7078093F607892B09F0A2CF9A
:105770009DCFE85BFF4F118300831093FD070093DB
:10578000FC07CACFC50160E070E040E050E09E0138
:105790002F5F3F4F02E010E00E94302AD82ECDCF7D
:1057A0008F929F92AF92BF92CF92DF92EF92FF9231
:1057B0000F931F93DF93CF930F920F92CDB7DEB766
:1057C0006C015B017A01922E832EFC010181128112
:1057D0002091FC073091FD078091FA079091FB071B
:1057E000892B19F5232B09F51982C801BE016F5FBA
:1057F0007F4F0E94752E882309F0C4C089818823B9
:1058000009F4E6C0C8010E94202B882309F0BAC021
:105810002091FC073091FD078091FA079091FB07DA
:10582000892B19F4232B09F4D3C0F601C180D2804F
:1058300006C0C6010E94202B882309F0A3C0009156
:10584000FA071091FB070115110599F30C5B1F4F27
:10585000F801208131814281538104501040F801C8
:105860008081918100541040821B930BA816B906C9
:1058700024F0F7019183808303C0F701B182A082F5
:10588000200F311FF70140815181892D982DB901D9
:105890000E945202F70120813181442737FD409553
:1058A000542FF801EC5BFF4F80819181A281B3817D
:1058B000280F391F4A1F5B1F208331834283538384
:1058C000005C1F4FF80180819181A281B381005457
:1058D0001040281739074A075B0709F052C040916A
:1058E000F6075091F707A091F807B091F907411515
:1058F000510511F020E004C020E0109709F421E0E8
:10590000005C1F4FF80111921192119211921082B6
:10591000118212821382E091FA07F091FB078091C5
:10592000FC079091FD073097E1F5892BD1F50AC06E
:105930001092FD071092FC07E85BFF4F1182108266
:10594000E854F040452BD9F51097C9F5F093F907C5
:10595000E093F807F093F707E093F607E85BFF4F53
:1059600011821082222369F0C60160E070E040E0FD
:1059700050E09E012F5F3F4F02E010E00E94302A6E
:1059800001C080E00F900F90CF91DF911F910F9198
:10599000FF90EF90DF90CF90BF90AF909F908F904F
:1059A0000895E85BFF4F80819181E854F040909327
:1059B000FB078093FA07892B09F0BECFB9CFA85B0C
:1059C000BF4FED93FC93F093F907E093F807C6CF30
:1059D000F70111821082D5CF1F930DC01092F907E5
:1059E0001092F807E85BFF4F11821082E854F040F4
:1059F000CF010E94FA01E091F607F091F70780913C
:105A0000F8079091F907309709F04BC0892B09F0FE
:105A100048C00DC01092FD071092FC07E85BFF4FD5
:105A200011821082E854F040CF010E94FA01E09107
:105A3000FA07F091FB078091FC079091FD073097E2
:105A4000F1F5892BE1F580910808909109080E94F1
:105A5000FA0118E1E1E0F8E0DF01812F1D928A955B
:105A6000E9F780912008909121080E94FA01E9E16C
:105A7000F8E0DF011D921A95E9F71092FD071092E8
:105A8000FC071092FB071092FA071092F907109288
:105A9000F8071092F7071092F6071092F5071F917A
:105AA0000895E85BFF4F80819181E854F040909326
:105AB000F7078093F607892B09F094CF8FCFE85B27
:105AC000FF4F80819181E854F0409093FB078093D1
:105AD000FA07892B09F0A2CF9DCF8F929F92AF92A8
