:100000000C942B010C9455140C9486140C94B71476
:100010000C94E8140C9419150C944A150C947B1547
:100020000C94AC150C9458010C946F0C0C94F00BC0
:100030000C9458010C9458010C9458010C945801DC
:100040000C9458010C9458010C9458010C945801CC
:100050000C9458010C9458010C9458010C94DD1523
:100060000C9458010C94560E0C94520F0C94580199
:100070000C9458010C9458010C9458010C9458019C
:100080000C9458010C9458010C9458010C9458018C
:100090000C94950E0C94910F0C9458010C94300311
:1000A0000C9458010C9458010C9458010C9458016C
:1000B0000C9458010C9458010C9458010C9458015C
:1000C0000C9458010C9458010C9458010C94D40EC3
:1000D0000C94D00F0C9458010C94130F0C940F1027
:1000E0000C945801084AD73B3BCE016E84BCBFFD3F
:1000F000C12F3D6C74319ABD56833DDA3D00C77FF8
:1001000011BED9E4BB4C3E916BAAAABE0000008090
:100110003F05A84CCDB2D44EB93836A9020C50B91F
:10012000918688083CA6AAAA2ABE000000803F004B
:10013000002100240027002A002D00300033000198
:10014000010000040107010A010000220025002827
:10015000002B002E003100340002010000050108D0
:10016000010B01000020002300260029002C002F95
:100170000032000001000003010601090105050528
:1001800005070508080808020202020A0A0808040E
:10019000040404010101010101010103030303033C
:1001A000030303040707070C0C0C0C0C0C0C0C02CB
:1001B00002020206060606060606060B0B0B0B0BD2
:1001C0000B0B0B01021020200808102040102040CB
:1001D000800201020108040201010204081020400B
:1001E0008080402010080402018004020180402029
:1001F0001008040201080402010102040810204052
:100200008001020408102040800000090A02080B47
:100210000C0D0706030401000000000000000000B0
:1002200000000000000000000000000000000000CE
:10023000000000000011100F00000000000000008E
:1002400000000000000000000000000000000000AE
:10025000B8067F11B51211241FBECFEFD1E2DEBF69
:10026000CDBF00E00CBF14E0A0E0B2E0EAEBF4E8A0
:1002700000E00BBF02C007900D92A033B107D9F781
:100280001BBE19E0A0E3B4E001C01D92AE37B10778
:10029000E1F712E0C6E5D2E004C02297FE010E9419
:1002A0005742C035D107C9F70E943A3D0C945B42D2
:1002B0000C9400000F931F93CF93DF93689F8001EE
:1002C000699F100D789F100D1124C8010E947601BE
:1002D000EC01009729F060E070E0A8010E94810223
:1002E000CE01DF91CF911F910F910895CF93DF93AE
:1002F000BC018230910510F462E070E0A0917C09AD
:10030000B0917D09ED01E0E0F0E040E050E021C077
:10031000888199818617970769F48A819B81309734
:1003200019F09383828304C090937D0980937C09A4
:10033000FE0134C06817790738F44115510519F0EA
:100340008417950708F4AC01FE018A819B819C010A
:10035000E9012097E9F641155105A9F1CA01861B6B
:10036000970B049708F4BA01E0E0F0E02AC08D9101
:100370009C91119784179507F9F46417750781F418
:1003800012968D919C911397309719F093838283E5
:1003900004C090937D0980937C09FD0132964CC086
:1003A000CA01861B970BFD01E80FF91F619371933A
:1003B00002978D939C9340C0FD01828193819C01A3
:1003C000D9011097A1F680917A0990917B09892B28
:1003D00041F48091FF029091000390937B098093F8
:1003E0007A0940910103509102034115510541F4EE
:1003F0004DB75EB78091FD029091FE02481B590BEC
:1004000020917A0930917B09CA01821B930B8617D0
:10041000970780F0AB014E5F5F4F8417950750F050
:10042000420F531F50937B0940937A09F90161935E
:10043000719302C0E0E0F0E0CF01DF91CF91089529
:10044000CF93DF93009709F450C0EC0122971B82F1
:100450001A82A0917C09B0917D09109709F140E0C2
:1004600050E0AC17BD0708F1BB83AA83FE012191C0
:100470003191E20FF31FAE17BF0779F48D919C9174
:100480001197280F391F2E5F3F4F3983288312960B
:100490008D919C9113979B838A834115510571F42B
:1004A000D0937D09C0937C0920C012968D919C91B8
:1004B0001397AD01009711F0DC01D3CFFA01D3837C
:1004C000C28321913191E20FF31FCE17DF0769F448
:1004D00088819981280F391F2E5F3F4FFA013183A0
:1004E00020838A819B8193838283DF91CF910895BA
:1004F000FB01DC0102C001900D9241505040D8F741
:100500000895DC0101C06D9341505040E0F708951B
:10051000FB01DC018D91019080190110D9F3990B39
:100520000895382F413210F040E042C08091D40449
:100530008823E1F791E09093D4042093D2048FEFC5
:100540008093D5041092B00441504093B1044F5FA2
:100550009093AF048091AF04330F832B8093AF044B
:100560008091D304813041F41092D3048091AF0480
:100570008093BB0085EC01C085EE8093BC00809128
:10058000D4048130E1F38091B004841710F44091D9
:10059000B00420E030E00AC0FB01E20FF31FD901F4
:1005A000AE54BB4F8C9180832F5F3F4F2417A0F335
:1005B000842F08950F931F93582F122F413210F05C
:1005C00081E045C08091D4048823E1F782E08093E4
:1005D000D4040093D2048FEF8093D5041092B0041A
:1005E0004093B104A2EBB4E0FB0102C081918D9372
:1005F0008E2F861B8417D0F31092AF048091AF0426
:10060000550F852B8093AF048091D304813041F442
:100610001092D3048091AF048093BB0085EC01C09D
:1006200085EE8093BC001123A9F08091D404823020
:1006300089F4FBCF8091D504803211F482E007C0A9
:100640008091D504803311F084E001C083E01F91D4
:100650000F9108958091D5048F3F61F780E0F7CF27
:100660001F920F920FB60F920BB60F9211242F9379
:100670003F934F935F936F937F938F939F93AF932A
:10068000BF93EF93FF938091B90090E0887F9070C3
:100690008036910509F4F2C081369105CCF5883297
:1006A000910509F47BC089329105B4F4803191053C
:1006B00009F46FC0813191053CF4009709F447C1FA
:1006C000089709F04FC165C08831910509F466C0EB
:1006D000809709F047C182C08034910509F4A4C015
:1006E0008134910544F48033910509F482C0C897A0
:1006F00009F038C189C08035910509F489C0883571
:10070000910509F496C08834910509F02BC1AEC05B
:100710008839910509F413C189399105ECF48837BA
:10072000910509F4ABC0893791054CF488369105E1
:1007300009F4A4C08037910509F014C19FC088381E
:10074000910509F4FCC08039910509F49DC08038F9
:10075000910509F007C198C0803B910509F4C6C016
:10076000813B91054CF4803A910509F49FC0883A89
:10077000910509F0F7C0BAC0803C910509F4E3C0C7
:10078000883C910509F4DFC0883B910509F0EAC077
:10079000C2C08091AF048093BB00CFC09091B004E1
:1007A0008091B104981768F49091B004E92FF0E0BB
:1007B000EE54FB4F80818093BB009F5F9093B00409
:1007C000BCC08091D204882309F44BC085ED80938E
:1007D000BC008091BC0084FDFCCFC2C080E280934D
:1007E000D50485ED8093BC008091BC0084FDFCCFD6
:1007F000B7C080E38093D50485ED8093BC008091E1
:10080000BC0084FDFCCFACC088E38093D5049BC0C2
:100810008091B0049091BB00E82FF0E0EE54FB4FC4
:1008200090838F5F8093B0049091B0048091B10465
:1008300082C08091B0049091BB00E82FF0E0EE54AC
:10084000FB4F90838F5F8093B0048091D204882304
:1008500041F085ED8093BC008091BC0084FDFCCF0D
:100860007FC081E08093D30484EA6EC085ED8093DD
:10087000BC008091BC0084FDFCCF72C083E08093FB
:10088000D4041092D60459C08091D604803208F066
:1008900056C08091D6049091BB00E82FF0E0E95259
:1008A000FB4F90838F5F8093D60447C08091D6041E
:1008B000803230F4E091D604F0E0E952FB4F108230
:1008C00085ED8093BC008091BC0084FDFCCF10922C
:1008D000D4046091D604E091F704F091F80487ED18
:1008E00094E070E019951092D6042DC084E08093B6
:1008F000D4041092F9041092FA04E091FB04F091F0
:10090000FC0419958091FA04882329F481E08093EE
:10091000FA041092FD049091F904E92FF0E0E350FD
:10092000FB4F80818093BB009F5F9093F90490916F
:10093000F9048091FA04981710F485EC01C085E859
:100940008093BC000FC085EC8093BC0009C010925E
:10095000D50485ED8093BC008091BC0084FDFCCF64
:100960001092D404FF91EF91BF91AF919F918F911D
:100970007F916F915F914F913F912F910F900BBE9F
:100980000F900FBE0F901F901895413208F040E273
:10099000862F60E374E00E949102109250048093CD
:1009A0005104089521E00E94C504089521E00E94A9
:1009B000C50408950F93062F8091520463E574E0F7
:1009C0004091740421E00E94DA02109273041092A4
:1009D0007404109275040F91089561E00E94DA0486
:1009E0000895DF93CF930F92CDB7DEB7FC016983F3
:1009F000809175048823C9F080917404803238F0A6
:100A000081E090E09383828320E030E01AC08091FF
:100A10007304E82FF0E0ED5AFB4F998190838F5FCC
:100A200080937304809374040AC08091D40484304A
:100A300031F481E08093FA0489818093FD0421E000
:100A400030E0C9010F90CF91DF910895CF92DF92EE
:100A5000EF92FF920F931F93CF93DF936C018B0163
:100A60007A01809175048823A1F0C0E0D0E00DC028
:100A7000D601ED91FC91D801AC0FBD1F0190F08122
:100A8000E02DC6016C9119952196CE15DF0580F3F6
:100A900013C0413288F48091D404843069F4E09228
:100AA000FA04562FADEFB4E0FB0102C081918D93A3
:100AB0008E2F851B8417D0F3C701DF91CF911F9133
:100AC0000F91FF90EF90DF90CF9008952091510407
:100AD00030E080915004281B3109C90108954091EC
:100AE000500480915104481718F02FEF3FEF0AC0CF
:100AF000E42FF0E0E05DFB4F8081282F30E04F5F76
:100B000040935004C9010895E0915004809151042C
:100B1000E81718F0EFEFFFEF06C0F0E0E05DFB4FE5
:100B20008081E82FF0E0CF0108950895FF920F93A0
:100B30001F93F42E81E0809375048EE1809352041C
:100B4000109273041092740406E714E0C8010E9426
:100B5000F104C8016F2D0E94F104C8010E94ED0448
:100B60001F910F91FF900895CF92DF92EF92FF9225
:100B70000F931F93CF93DF93EB016A01790101E09B
:100B8000009375041EE110935204109273041092A6
:100B9000740486E794E063E00E94F10486E794E041
:100BA0000E94ED0400937504109352041092730494
:100BB0001092740486E794E06EE170E046E050E045
:100BC0000E94D6043091510420915004E22FF0E0AD
:100BD000832F90E08E1B9F0B069709F07AC0231796
:100BE00018F06FEF7FEF08C0E05DFB4F8081682F4A
:100BF00070E02F5F2093500440915004431718F089
:100C00002FEF3FEF0AC0E42FF0E0E05DFB4F808163
:100C1000282F30E04F5F40935004962F8827282BD1
:100C2000392B39832883209150049091510429173E
:100C300018F06FEF7FEF0AC0E22FF0E0E05DFB4FAE
:100C40008081682F70E02F5F209350044091500402
:100C5000491718F02FEF3FEF0AC0E42FF0E0E05DF6
:100C6000FB4F8081282F30E04F5F40935004962F38
:100C70008827282B392BF7013183208320915004BA
:100C800090915104291718F06FEF7FEF0AC0E22FFF
:100C9000F0E0E05DFB4F8081682F70E02F5F2093D4
:100CA000500440915004491718F02FEF3FEF0AC04D
:100CB000E42FF0E0E05DFB4F8081282F30E04F5FB4
:100CC00040935004962F8827282B392BF601318327
:100CD000208386E794E00E94ED04DF91CF911F917D
:100CE0000F91FF90EF90DF90CF900895FF920F93B8
:100CF0001F93CF93DF93F42E122F032F91E0909345
:100D0000750480935204109273041092740486E761
:100D100094E00E94F104212F302FC901EC0110E072
:100D200006C086E794E069910E94F1041F5F1F15D9
:100D3000C0F386E794E00E94ED0490E0882309F474
:100D400091E0892FDF91CF911F910F91FF9008952E
:100D5000DF93CF930F92CDB7DEB7498341E09E0179
:100D60002F5F3F4F0E9476060F90CF91DF9108953D
:100D7000109279041092780488EE93E0A0E0B0E03D
:100D800080937A0490937B04A0937C04B0937D04B9
:100D90008BE094E0909377048093760488E68093C8
:100DA000820480E090E0A0E8BFE3809391049093F8
:100DB0009204A0939304B093940480939504909329
:100DC0009604A0939704B093980480939904909309
:100DD0009A04A0939B04B0939C0408952F923F9291
:100DE0004F925F926F927F928F929F92AF92BF923B
:100DF000CF92DF92EF92FF920F931F93DF93CF93E7
:100E000000D00F920F92CDB7DEB7882E6983942E53
:100E10003B832A830E9425165B016C01FF24EE248C
:100E2000292C332428016624772461C021E02093F3
:100E3000750480925204109273041092740486E731
:100E400094E069810E94F10486E794E00E94ED0439
:100E500031E0309375048092520410927304109222
:100E60007404A1014E1951094132510514F040E2B8
:100E700050E086E794E0682D0E94D2048F2D9927D8
:100E800087FD9095EA81FB818E0F9F1F9D838C8348
:100E90000FC0E92FF0E0E05DFB4F8081282F9F5FBE
:100EA00090935004EC81FD812193FD83EC83F394B6
:100EB0009091510480915004981709F450C0011585
:100EC000110561F00E9425166A197B098C099D099C
:100ED000641575058605970508F041C0909150048A
:100EE000809151049817A8F22FEF3FEFDBCFE91460
:100EF00008F49CCF01151105C9F00E9425166A1946
:100F00007B098C099D09980140E050E06217730746
:100F10008407950758F02F2D332727FD3095892D0D
:100F200090E02817390714F4FF24FA948F2D0F90BE
:100F30000F900F900F900F90CF91DF911F910F9115
:100F4000FF90EF90DF90CF90BF90AF909F908F90E9
:100F50007F906F905F904F903F902F90089586E71D
:100F600094E00E94ED04892DF0E2F91508F480E286
:100F7000E80EBDCFEF92FF920F931F937C019C016F
:100F80002F5F3F4F0091030310910403FC01808108
:100F900067E442E00E94EE06F701918180E0228141
:100FA00030E0282B392BC9011F910F91FF90EF9052
:100FB0000895EF92FF920F931F937C019C012F5F86
:100FC0003F4F0091030310910403FC01808165E40D
:100FD00042E00E94EE06F701918180E0228130E03C
:100FE000282B392BC9011F910F91FF90EF90089585
:100FF000EF92FF920F931F937C019C012F5F3F4F55
:101000000091030310910403FC01808163E442E03A
:101010000E94EE06F701918180E0228130E0282BCA
:10102000392BC9011F910F91FF90EF900895EF9216
:10103000FF920F931F937C019C012F5F3F4F009104
:10104000030310910403FC0180816FE342E00E94DE
:10105000EE06F701918180E0228130E0282B392BC8
:10106000C9011F910F91FF90EF900895EF92FF92A9
:101070000F931F937C019C012F5F3F4F009103034F
:1010800010910403FC0180816DE342E00E94EE06B2
:10109000F701918180E0228130E0282B392BC901B2
:1010A0001F910F91FF90EF900895EF92FF920F9391
:1010B0001F937C019C012F5F3F4F00910303109110
:1010C0000403FC0180816BE342E00E94EE06F7011D
:1010D000918180E0228130E0282B392BC9011F91BA
:1010E0000F91FF90EF9008952F923F924F925F9251
:1010F0006F927F928F929F92AF92BF92CF92DF9228
:10110000EF92FF920F931F93DF93CF930F920F9263
:10111000CDB7DEB73C012B011A013A832983E88D54
:10112000F98D608171818281938120E030E040E817
:101130005FE30E94303F882309F04AC081E994E0D0
:1011400069EA74E04BEA54E02DEA34E00E94B40509
:101150008091A9049091AA04F301918380838091E6
:10116000AB049091AC04F201918380838091AD0433
:101170009091AE04F1019183808382E894E00E9413
:10118000F807E981FA819183808382E894E00E94E4
:10119000D907F8019183808382E894E00E94BA071E
:1011A000F7019183808382E894E00E945508F6015C
:1011B0009183808382E894E00E943608F501918350
:1011C000808382E894E00E941708F4019183808371
:1011D0000F900F90CF91DF911F910F91FF90EF90A3
:1011E000DF90CF90BF90AF909F908F907F906F9047
:1011F0005F904F903F902F9008950F931F93FA01A7
:10120000890141E09F010E94EE061F910F91089510
:10121000DF92EF92FF920F931F93DF93CF930F9282
:10122000CDB7DEB7E82ED62EF42E122F2091030371
:1012300030910403AE014F5F5F4F0E94FD08882389
:1012400041F1212F30E04F2D50E04F5F5F4F421BA7
:10125000530B81E090E002C0880F991F1A95E2F7C6
:101260000197042E02C0880F991F0A94E2F7202FDD
:1012700030E002C0220F331F4A95E2F7482F409515
:10128000598145238223482B49838E2D6D2D0E9441
:10129000A8060F90CF91DF911F910F91FF90EF90D3
:1012A000DF9008950F93FC01062F80816BE642E0EA
:1012B00023E00E9408090F9108950F93FC01062F67
:1012C00080816CE144E022E00E9408090F910895BA
:1012D0000F93FC01062F80816BE144E022E00E9425
:1012E00008090F910895EF92FF920F931F93DF93D8
:1012F000CF930F92CDB7DEB7F82EE62E042F122F24
:101300002091030330910403AE014F5F5F4F0E94B1
:10131000FD082981112351F081E090E002C0880F7F
:10132000991F0A95E2F7422F482B0AC081E090E00E
:1013300002C0880F991F0A95E2F7482F4095422373
:1013400049838F2D6E2D0E94A8060F90CF91DF91BB
:101350001F910F91FF90EF900895FC01262F80813F
:101360006BE646E00E94730908950F931F938C016A
:1013700061E00E945209C80160E00E946809C8014A
:1013800060E00E945D09C80160E00E94AD091F9104
:101390000F910895462F633048F462E00E9496054D
:1013A00064E670E080E090E00E94591608951F9373
:1013B000CF93DF93EC01162F65E070E080E090E0C2
:1013C0000E945916112321F0CE0160E00E94CA0943
:1013D000CE0160E040E70E949605CE0161E040EA60
:1013E0000E949605CE0162E040E00E949605DF91E2
:1013F000CF911F9108951092D40481E08093D2047C
:101400001092D30484E161E00E94A71885E161E0B5
:101410000E94A718E9EBF0E080818E7F80838081B5
:101420008D7F808388E48093B80085E48093BC003E
:101430000895109250041092510410927304109267
:1014400074040E94FB090895DF93CF93CDB7DEB7F4
:10145000EE81FF81608171818281938120E030E0A3
:1014600040E85FE30E94303F8823B9F086E794E0CC
:101470000E94190A82E894E00E94B50981E994E08B
:1014800061E00E94D70980E090E0A0E8BFE3EE8130
:10149000FF8180839183A283B383CF91DF910895ED
:1014A0008231910509F18331910534F4823091053F
:1014B00079F00397E1F409C08431910579F0843122
:1014C00091057CF0459799F406C021E030E011C009
:1014D00020E030E00EC022E030E00BC023E030E03E
:1014E00008C024E030E005C025E030E002C02FEF66
:1014F0003FEFC9010895CF92DF92EF92FF920F93D1
:101500001F93DF93CF93CDB7DEB77C016B01FA0158
:101510008901608171818281938120E030E040E81F
:101520005FE30E94303F8823F1F4D801EC91F0E0B2
:1015300093E0EE0FFF1F9A95E1F7EF5DFA4F808180
:101540009181F701918380831196EC91F0E083E023
:10155000EE0FFF1F8A95E1F7EF5DFA4F80819181D1
:10156000D6018D939C93CF91DF911F910F91FF90A6
:10157000EF90DF90CF900895AF92BF92CF92DF921D
:10158000EF92FF920F931F93DF93CF93CDB7DEB708
:101590006A018901DA016D917D918D919C9120E024
:1015A00030E040E85FE30E94303F882309F40DC13A
:1015B000D801EC91F0E0D7018C9190E053E0EE0F70
:1015C000FF1F5A95E1F7E35EFA4F91838083D801BC
:1015D000EC91F0E0D5018C9190E043E0EE0FFF1F1D
:1015E0004A95E1F7E15EFA4F91838083D801119625
:1015F000EC91F0E0D70111968C9190E033E0EE0F82
:10160000FF1F3A95E1F7E35EFA4F91838083D8019B
:101610001196EC91F0E0D50111968C9190E023E0C9
:10162000EE0FFF1F2A95E1F7E15EFA4F9183808369
:10163000D801EC91F0E0B3E0EE0FFF1FBA95E1F7AF
:10164000E35EFA4F8081918160E00E94F417D80137
:10165000EC91F0E0A3E0EE0FFF1FAA95E1F7E15E49
:10166000FA4F8081918160E00E94F417D8011196B1
:10167000EC91F0E073E0EE0FFF1F7A95E1F7E35E87
:10168000FA4F8081918160E00E94F417D801119691
:10169000EC91F0E063E0EE0FFF1F6A95E1F7E15E89
:1016A000FA4F8081918160E00E94F417D801EC919B
:1016B000F0E053E0EE0FFF1F5A95E1F7E35EFA4FBB
:1016C0008081918161E00E94A718D801EC91F0E03F
:1016D00043E0EE0FFF1F4A95E1F7E15EFA4F80818C
:1016E000918161E00E94A718D8011196EC91F0E079
:1016F00033E0EE0FFF1F3A95E1F7E35EFA4F80818A
:10170000918161E00E94A718D8011196EC91F0E058
:1017100023E0EE0FFF1F2A95E1F7E15EFA4F80818B
:10172000918161E00E94A718F8012081222319F01D
:10173000223071F515C080911D0590911E050E9403
:10174000500A6CEF7DE041E050E00E94D913809197
:101750001F05909120050E94500A62EA7DE014C0A6
:1017600080912D0590912E050E94500A68E47DE03D
:1017700041E050E00E94D91380912F0590913005EF
:101780000E94500A6EEE7CE041E050E00E94D913C6
:101790008091680084608093680080916800826016
:1017A0008093680080916D00816080936D008091CE
:1017B0006C00826080936C0080E090E0A0E8BFE362
:1017C000F60180839183A283B383CF91DF911F9130
:1017D0000F91FF90EF90DF90CF90BF90AF90089562
:1017E0001F920F920FB60F920BB60F9211240F9308
:1017F0001F932F933F934F935F936F937F938F9399
:101800009F93AF93BF93CF93DF93EF93FF93809119
:101810002505909126050E94DA18EC0100912B0510
:1018200010912C0520E030E024C0B901882777FD15
:101830008095982F0E94D23F20E030E040E050E0B9
:101840000E946A3E20E030E040E050E00E946A3EA4
:1018500020E030E040E450E40E946A3E20E030E0C6
:1018600040E450E40E94693E0E949F3F9B012F5F2D
:101870003F4F20173107CCF2809127059091280522
:101880000E94DA18019719F4219749F402C0CD2B70
:1018900031F48091290590912A05019605C0809127
:1018A000290590912A05019790932A05809329058F
:1018B000FF91EF91DF91CF91BF91AF919F918F9168
:1018C0007F916F915F914F913F912F911F910F9158
:1018D0000F900BBE0F900FBE0F901F9018951F9288
:1018E0000F920FB60F920BB60F9211240F931F9306
:1018F0002F933F934F935F936F937F938F939F9318
:10190000AF93BF93CF93DF93EF93FF93809127051E
:10191000909128050E94DA18EC0100912B05109196
:101920002C0520E030E024C0B901882777FD8095A0
:10193000982F0E94D23F20E030E040E050E00E942B
:101940006A3E20E030E040E050E00E946A3E20E045
:1019500030E040E450E40E946A3E20E030E040E4A1
:1019600050E40E94693E0E949F3F9B012F5F3F4FC2
:1019700020173107CCF280912505909126050E9411
:10198000DA18019719F4CD2B49F402C0219731F4EC
:101990008091290590912A05019605C0809129051D
:1019A00090912A05019790932A0580932905FF912C
:1019B000EF91DF91CF91BF91AF919F918F917F91E7
:1019C0006F915F914F913F912F911F910F910F90C8
:1019D0000BBE0F900FBE0F901F9018950F931F9383
:1019E000CF93DF9380912D0590912E050E94DA18F8
:1019F000EC01009133051091340520E030E024C063
:101A0000B901882777FD8095982F0E94D23F20E06A
:101A100030E040E050E00E946A3E20E030E040E0EC
:101A200050E00E946A3E20E030E040E450E40E9432
:101A30006A3E20E030E040E450E40E94693E0E94AB
:101A40009F3F9B012F5F3F4F20173107CCF28091C2
:101A50002F05909130050E94DA18019719F421970B
:101A600049F402C0CD2B31F48091310590913205BB
:101A7000019605C0809131059091320501979093B0
:101A8000320580933105DF91CF911F910F91089519
:101A90000F931F93CF93DF9380912F059091300583
:101AA0000E94DA18EC01009133051091340520E012
:101AB00030E024C0B901882777FD8095982F0E94D7
:101AC000D23F20E030E040E050E00E946A3E20E05B
:101AD00030E040E050E00E946A3E20E030E040E428
:101AE00050E40E946A3E20E030E040E450E40E946E
:101AF000693E0E949F3F9B012F5F3F4F2017310798
:101B0000CCF280912D0590912E050E94DA18019754
:101B100019F4CD2B49F402C0219731F4809131059D
:101B200090913205019605C0809131059091320562
:101B300001979093320580933105DF91CF911F91EA
:101B40000F9108950F931F93CF93DF9380911D05FD
:101B500090911E050E94DA18EC0100912305109166
:101B6000240520E030E024C0B901882777FD809566
:101B7000982F0E94D23F20E030E040E050E00E94E9
:101B80006A3E20E030E040E050E00E946A3E20E003
:101B900030E040E450E40E946A3E20E030E040E45F
:101BA00050E40E94693E0E949F3F9B012F5F3F4F80
:101BB00020173107CCF280911F05909120050E94DB
:101BC000DA18019719F4219749F402C0CD2B31F4AA
:101BD0008091210590912205019605C080912105F3
:101BE0009091220501979093220580932105DF9122
:101BF000CF911F910F9108950F931F93CF93DF9370
:101C000080911F05909120050E94DA18EC01009147
:101C100023051091240520E030E024C0B901882775
:101C200077FD8095982F0E94D23F20E030E040E081
:101C300050E00E946A3E20E030E040E050E00E9428
:101C40006A3E20E030E040E450E40E946A3E20E03A
:101C500030E040E450E40E94693E0E949F3F9B01B7
:101C60002F5F3F4F20173107CCF280911D059091D7
:101C70001E050E94DA18019719F4CD2B49F402C011
:101C8000219731F48091210590912205019605C09C
:101C900080912105909122050197909322058093D0
:101CA0002105DF91CF911F910F9108951F920F92FF
:101CB0000FB60F920BB60F9211242F933F934F93B1
:101CC0008F939F93EF93FF938091C00082FD1DC07F
:101CD0004091C60020917505309176052F5F3F4FEA
:101CE0002F73307080917705909178052817390708
:101CF00071F0E0917505F0917605EB5CFA4F408349
:101D0000309376052093750502C08091C600FF913F
:101D1000EF919F918F914F913F912F910F900BBE1B
:101D20000F900FBE0F901F9018951F920F920FB635
:101D30000F920BB60F9211242F933F934F938F93D3
:101D40009F93EF93FF938091C80082FD1DC0409147
:101D5000CE002091FD053091FE052F5F3F4F2F7380
:101D600030708091FF05909100062817390771F0B7
:101D7000E091FD05F091FE05E354FA4F4083309366
:101D8000FE052093FD0502C08091CE00FF91EF91EA
:101D90009F918F914F913F912F910F900BBE0F907C
:101DA0000FBE0F901F9018951F920F920FB60F92B3
:101DB0000BB60F9211242F933F934F938F939F93C2
:101DC000EF93FF938091D00082FD1DC04091D6001B
:101DD00020918506309186062F5F3F4F2F7330701C
:101DE00080918706909188062817390771F0E09155
:101DF0008506F0918606EB5BF94F408330938606AB
:101E00002093850602C08091D600FF91EF919F91AB
:101E10008F914F913F912F910F900BBE0F900FBE5E
:101E20000F901F9018951F920F920FB60F920BB63E
:101E30000F9211242F933F934F938F939F93EF9380
:101E4000FF938091300182FD1DC0409136012091A9
:101E50000D0730910E072F5F3F4F2F733070809129
:101E60000F07909110072817390771F0E0910D07BF
:101E7000F0910E07E353F94F408330930E07209300
:101E80000D0702C080913601FF91EF919F918F91D4
:101E90004F913F912F910F900BBE0F900FBE0F905F
:101EA0001F9018951F920F920FB60F920BB60F92BC
:101EB00011242F933F938F939F93EF93FF93209140
:101EC000B9053091BA058091BB059091BC052817E2
:101ED000390731F48091C1008F7D8093C10014C017
:101EE000E091BB05F091BC05E758FA4F2081809145
:101EF000BB059091BC0501968F7390709093BC05C3
:101F00008093BB052093C600FF91EF919F918F9125
:101F10003F912F910F900BBE0F900FBE0F901F900F
:101F200018951F920F920FB60F920BB60F921124B5
:101F30002F933F938F939F93EF93FF9320914106AD
:101F40003091420680914306909144062817390744
:101F500031F48091C9008F7D8093C90014C0E09155
:101F60004306F0914406EF5FF94F208180914306CC
:101F70009091440601968F739070909344068093DD
:101F800043062093CE00FF91EF919F918F913F9157
:101F90002F910F900BBE0F900FBE0F901F901895B2
:101FA0001F920F920FB60F920BB60F9211242F9320
:101FB0003F938F939F93EF93FF932091C9063091A6
:101FC000CA068091CB069091CC062817390731F4C8
:101FD0008091D1008F7D8093D10014C0E091CB0619
:101FE000F091CC06E757F94F20818091CB06909174
:101FF000CC0601968F7390709093CC068093CB069D
:102000002093D600FF91EF919F918F913F912F9157
:102010000F900BBE0F900FBE0F901F9018951F9240
:102020000F920FB60F920BB60F9211242F933F937E
:102030008F939F93EF93FF93209151073091520715
:1020400080915307909154072817390731F48091F4
:1020500031018F7D8093310114C0E0915307F091DD
:102060005407EF5EF84F20818091530790915407F9
:1020700001968F7390709093540780935307209329
:102080003601FF91EF919F918F913F912F910F908A
:102090000BBE0F900FBE0F901F901895AF92BF927E
:1020A000DF92EF92FF920F931F93CF93DF93EC0198
:1020B0007A018B01DD24403081EE580780E068070B
:1020C00080E0780711F0DD24D39491E0A92EB12CA3
:1020D000EC89FD89DD2069F0C50108A002C0880FE8
:1020E000991F0A94E2F7808360E079E08DE390E045
:1020F00005C0108260E874E88EE190E0A8019701C5
:102100000E94334221503040404050405695479500
:102110003795279580E12030380720F0DD2011F039
:10212000DD24D6CFE889F9893083EA89FB892083C9
:1021300019A2EE89FF89408121E030E0C9010C8CB1
:1021400002C0880F991F0A94E2F7482B4083EE895A
:10215000FF894081C9010D8C02C0880F991F0A9424
:10216000E2F7482B4083EE89FF894081C9010E8C3C
:1021700002C0880F991F0A94E2F7482B4083EE892A
:10218000FF8980810F8C02C0220F331F0A94E2F76F
:10219000209528232083DF91CF911F910F91FF90ED
:1021A000EF90DF90BF90AF900895DC011C96ED9109
:1021B000FC911D97E05CFF4F2191319180819181CD
:1021C000281B390B2F733070C9010895DC011C9650
:1021D000ED91FC911D97E05CFF4F20813181E0542F
:1021E000F040DF01AE5BBF4F8D919C911197281796
:1021F000390719F42FEF3FEF07C08D919C91E80F3D
:10220000F91F8081282F30E0C9010895DC011C9658
:10221000ED91FC911D97E05CFF4F20813181E054EE
:10222000F040DF01AE5BBF4F8D919C911197281755
:10223000390719F42FEF3FEF10C08D919C91119742
:10224000E80FF91F20818D919C91119701968F7352
:10225000907011969C938E9330E0C9010895DC0133
:1022600091968C919197882339F05496ED91FC9139
:102270005597808186FFF9CF91961C920895CF9350
:10228000DF93EC01EE85FF85E05CFF4F208131811B
:10229000E054F0402F5F3F4F2F733070DF01AE5B93
:1022A000BF4F8D919C91119728173907D1F3E05CAE
:1022B000FF4F80819181E054F040E80FF91F608367
:1022C000EE85FF85E05CFF4F31832083EE89FF8937
:1022D000208181E090E00F8C02C0880F991F0A9442
:1022E000E2F7282B208381E089A3EC89FD89808196
:1022F0008064808381E090E0DF91CF9108951F9307
:10230000109258071092570728EE33E040E050E053
:102310002093590730935A0740935B0750935C070B
:102320006BE174E0709356076093550785E395E081
:10233000909362078093610789E795E09093640723
:102340008093630785EC90E0909366078093650720
:1023500084EC90E0909368078093670780EC90E0AE
:1023600090936A078093690781EC90E090936C07E3
:1023700080936B0782EC90E090936E0780936D07DB
:1023800086EC90E09093700780936F0714E01093B1
:102390007107B3E0B0937207A7E0A0937307F5E06D
:1023A000F0937407E1E0E093750710927A071092BA
:1023B000790720937B0730937C0740937D075093E8
:1023C0007E0770937807609377078DEB95E0909385
:1023D00084078093830781E096E09093860780933B
:1023E00085078DEC90E090938807809387078CECAD
:1023F00090E090938A078093890788EC90E090930F
:102400008C0780938B0789EC90E090938E078093E4
:102410008D078AEC90E09093900780938F078EEC65
:1024200090E0909392078093910710939307B09355
:102430009407A0939507F0939607E093970710925F
:102440009C0710929B0720939D0730939E07409313
:102450009F075093A00770939A076093990785E4AC
:1024600096E09093A6078093A50789E896E090935D
:10247000A8078093A70785ED90E09093AA07809323
:10248000A90784ED90E09093AC078093AB0780EDB3
:1024900090E09093AE078093AD0781ED90E090932C
:1024A000B0078093AF0782ED90E09093B2078093DE
:1024B000B10786ED90E09093B4078093B307109333
:1024C000B507B093B607A093B707F093B807E093AA
:1024D000B9071092BE071092BD072093BF07309333
:1024E000C0074093C1075093C2077093BC07609325
:1024F000BB078DEC96E09093C8078093C70781E1F6
:1025000097E09093CA078093C90785E391E0909381
:10251000CC078093CB0784E391E09093CE07809320
:10252000CD0780E391E09093D0078093CF0781E3BC
:1025300091E09093D2078093D10782E391E090934A
:10254000D4078093D30786E391E09093D6078093D6
:10255000D5071093D707B093D807A093D907F09366
:10256000DA07E093DB071F9108958BE294E09093E4
:10257000DE078093DD071092DF071092E0071092CC
:10258000E1071092E20708958F929F92AF92BF9257
:10259000CF92DF92EF92FF920F931F93CF93DF932F
:1025A0004C016B017C01AA24BB24C0E0D0E0C60131
:1025B000F70162814AE050E00E94C7138C01C60116
:1025C0006EE20E943013080F191FA00EB11E219653
:1025D0000894E11CF11CC330D10549F7C601F40190
:1025E00065814AE050E00E94C7139501280F391F0A
:1025F000C901DF91CF911F910F91FF90EF90DF9074
:10260000CF90BF90AF909F908F900895CF92DF9220
:10261000EF92FF920F931F93CF93DF937C016B0197
:102620008A01C0E0D0E00FC0D6016D916D01D701E5
:10263000ED91FC910190F081E02DC7011995C80F33
:10264000D91F015010400115110571F7CE01DF911E
:10265000CF911F910F91FF90EF90DF90CF90089551
:10266000DC01ED91FC910190F081E02D1995089528
:10267000CF93DF93EC016115710519F420E030E090
:102680000FC0DB010D900020E9F71197A61BB70BD7
:10269000E881F9810280F381E02DAD0119959C015B
:1026A000C901DF91CF9108954F925F927F928F92EF
:1026B0009F92AF92BF92CF92DF92EF92FF920F93D1
:1026C0001F93DF93CF93CDB7DEB7A1970FB6F894E2
:1026D000DEBF0FBECDBF2C01742ECB01223008F41B
:1026E0002AE019A231E2C32ED12CCC0EDD1E822E9F
:1026F0009924AA24BB24672D752FA50194010E945B
:10270000334279018A01C801B701A50194010E94F1
:102710001442472D461B0894C108D1084A3014F4CE
:10272000405D01C0495CF6014083E114F1040105FC
:10273000110521F07E2C5F2DC801DDCFC201B6014D
:102740000E943813A1960FB6F894DEBF0FBECDBF1E
:10275000CF91DF911F910F91FF90EF90DF90CF907D
:10276000BF90AF909F908F907F905F904F90089513
:10277000DC012115310541F4ED91FC910190F081CE
:10278000E02D642F199508950E9454130895EF9237
:10279000FF920F931F939A01E62EFF2400E010E0B2
:1027A000B801A7010E94B8131F910F91FF90EF90FD
:1027B0000895883008F078C0E82FF0E0EE0FFF1F92
:1027C000ED51F84F718360838330D9F0843030F459
:1027D000813009F444C0823060F439C0853051F151
:1027E0008530D8F0863009F446C0873009F05CC0E7
:1027F0004FC0809169008C7F842B80936900E89A98
:10280000089580916900440F551F440F551F837F21
:10281000842B80936900E99A08958091690074E09F
:10282000440F551F7A95E1F78F7C842B80936900C4
:10283000EA9A08958091690066E0440F551F6A95F1
:10284000E1F78F73842B80936900EB9A0895809150
:102850006A008C7F842B80936A00EC9A08958091A3
:102860006A00440F551F440F551F837F842B8093AC
:102870006A00ED9A089580916A0024E0440F551F84
:102880002A95E1F78F7C842B80936A00EE9A089555
:1028900080916A0096E0440F551F9A95E1F78F7377
:1028A000842B80936A00EF9A08951F920F920FB6BF
:1028B0000F920BB60F9211242F933F934F935F9378
:1028C0006F937F938F939F93AF93BF93EF93FF93F8
:1028D0008091E7079091E807892B29F0E091E707BD
:1028E000F091E8071995FF91EF91BF91AF919F91FA
:1028F0008F917F916F915F914F913F912F910F90A9
:102900000BBE0F900FBE0F901F9018951F920F9245
:102910000FB60F920BB60F9211242F933F934F9344
:102920005F936F937F938F939F93AF93BF93EF9337
:10293000FF938091E9079091EA07892B29F0E091B4
:10294000E907F091EA071995FF91EF91BF91AF91D7
:102950009F918F917F916F915F914F913F912F91B7
:102960000F900BBE0F900FBE0F901F9018951F92E7
:102970000F920FB60F920BB60F9211242F933F9325
:102980004F935F936F937F938F939F93AF93BF9377
:10299000EF93FF938091EB079091EC07892B29F03F
:1029A000E091EB07F091EC071995FF91EF91BF9142
:1029B000AF919F918F917F916F915F914F913F91D7
:1029C0002F910F900BBE0F900FBE0F901F90189578
:1029D0001F920F920FB60F920BB60F9211242F93E6
:1029E0003F934F935F936F937F938F939F93AF9397
:1029F000BF93EF93FF938091ED079091EE07892BA2
:102A000029F0E091ED07F091EE071995FF91EF9114
:102A1000BF91AF919F918F917F916F915F914F91F6
:102A20003F912F910F900BBE0F900FBE0F901F90F4
:102A300018951F920F920FB60F920BB60F9211249A
:102A40002F933F934F935F936F937F938F939F93B6
:102A5000AF93BF93EF93FF938091E3079091E407C7
:102A6000892B29F0E091E307F091E4071995FF9194
:102A7000EF91BF91AF919F918F917F916F915F91F6
:102A80004F913F912F910F900BBE0F900FBE0F9063
:102A90001F9018951F920F920FB60F920BB60F92C0
:102AA00011242F933F934F935F936F937F938F9353
:102AB0009F93AF93BF93EF93FF938091E50790911E
:102AC000E607892B29F0E091E507F091E6071995D3
:102AD000FF91EF91BF91AF919F918F917F916F91F6
:102AE0005F914F913F912F910F900BBE0F900FBEB2
:102AF0000F901F9018951F920F920FB60F920BB662
:102B00000F9211242F933F934F935F936F937F9373
:102B10008F939F93AF93BF93EF93FF938091EF07B2
:102B20009091F007892B29F0E091EF07F091F007E1
:102B30001995FF91EF91BF91AF919F918F917F91E7
:102B40006F915F914F913F912F910F900BBE0F901E
:102B50000FBE0F901F9018951F920F920FB60F92F5
:102B60000BB60F9211242F933F934F935F936F9364
:102B70007F938F939F93AF93BF93EF93FF93809136
:102B8000F1079091F207892B29F0E091F107F0917C
:102B9000F2071995FF91EF91BF91AF919F918F919E
:102BA0007F916F915F914F913F912F910F900BBE4D
:102BB0000F900FBE0F901F9018951F920F920FB697
:102BC0000F9211242F933F938F939F93AF93BF93B3
:102BD0008091F7079091F807A091F907B091FA0753
:102BE0003091FB070196A11DB11D232F2D5F2D37BD
:102BF00020F02D570196A11DB11D2093FB07809356
:102C0000F7079093F807A093F907B093FA0780911C
:102C1000F3079091F407A091F507B091F60701969C
:102C2000A11DB11D8093F3079093F407A093F507BE
:102C3000B093F607BF91AF919F918F913F912F91E4
:102C40000F900FBE0F901F9018958FB7F89420919A
:102C5000F7073091F8074091F9075091FA078FBFB5
:102C6000B901CA0108959FB7F8942091F3073091F4
:102C7000F4074091F5075091F60786B5A89B06C06A
:102C80008F3F21F02F5F3F4F4F4F5F4F9FBF542F1C
:102C9000432F322F2227280F311D411D511D82E065
:102CA000220F331F441F551F8A95D1F7B901CA015E
:102CB00008959B01AC017FB7F8948091F307909140
:102CC000F407A091F507B091F60766B5A89B05C07B
:102CD0006F3F19F00196A11DB11D7FBFBA2FA92F1B
:102CE000982F8827860F911DA11DB11D62E0880FC6
:102CF000991FAA1FBB1F6A95D1F7BC012DC0FFB752
:102D0000F8948091F3079091F407A091F507B091A2
:102D1000F607E6B5A89B05C0EF3F19F00196A11D87
:102D2000B11DFFBFBA2FA92F982F88278E0F911D95
:102D3000A11DB11DE2E0880F991FAA1FBB1FEA95D4
:102D4000D1F7861B970B885E9340C8F22150304024
:102D50004040504068517C4F2115310541055105D7
:102D600071F60895789484B5826084BD84B58160DD
:102D700084BD85B5826085BD85B5816085BDEEE683
:102D8000F0E0808181608083E1E8F0E01082808162
:102D900082608083808181608083E0E8F0E08081D0
:102DA00081608083E1EBF0E0808184608083E0EBF0
:102DB000F0E0808181608083E1E9F0E080818260E1
:102DC0008083808181608083E0E9F0E080818160A0
:102DD0008083E1EAF0E0808182608083808181608D
:102DE0008083E0EAF0E0808181608083E1E2F1E0CD
:102DF000808182608083808181608083E0E2F1E075
:102E0000808181608083EAE7F0E080818460808354
:102E100080818260808380818160808380818068FE
:102E200080831092C10008951F93CF93DF93182FD2
:102E3000EB0161E00E94F417209709F4CAC0CF3F6C
:102E4000D10509F4C9C0E12FF0E0E75FFD4F84919F
:102E5000893009F466C08A30B0F48430F1F18530ED
:102E600040F4823059F1833070F5813009F0AEC002
:102E700020C0873009F443C0883008F048C086304D
:102E800009F0A4C034C08D3009F478C08E3038F415
:102E90008B3009F45AC08C3008F066C04CC08031C9
:102EA00009F480C0813109F487C08F3009F08EC0E9
:102EB0006FC084B5806884BDC7BD92C084B5806290
:102EC00084BDC8BD8DC080918000806880938000E3
:102ED000D0938900C093880083C080918000806275
:102EE00080938000D0938B00C0938A0079C080913A
:102EF000B00080688093B000C093B30071C080912F
:102F0000B00080628093B000C093B40069C080912B
:102F10009000806880939000D0939900C0939800AF
:102F20005FC080919000806280939000D0939B005E
:102F3000C0939A0055C08091900088608093900063
:102F4000D0939D00C0939C004BC08091A0008068EE
:102F50008093A0008091A0008F7B8093A000D093ED
:102F6000A900C093A8003CC08091A000806280931B
:102F7000A000D093AB00C093AA0032C08091A00003
:102F800088608093A000D093AD00C093AC0028C0AF
:102F900080912001806880932001D0932901C09303
:102FA00028011EC080912001806280932001D0936F
:102FB0002B01C0932A0114C0809120018860809366
:102FC0002001D0932D01C0932C010AC0C038D10537
:102FD0001CF4812F60E002C0812F61E00E94A718DD
:102FE000DF91CF911F910895CF93DF93482F50E049
:102FF000CA018D539E4FFC01349143585E4FFA0134
:103000008491882369F190E0880F991FFC01E15DAC
:10301000FE4FA591B491FC01E75BFE4FC591D491A1
:10302000662351F42FB7F8948C91932F90958923B0
:103030008C93888189230BC0623061F42FB7F89498
:103040008C91932F909589238C938881832B8883EF
:103050002FBF06C09FB7F8948C91832B8C939FBF92
:10306000DF91CF910895893009F449C08A30A0F4E6
:10307000843051F1853040F4823079F1833000F5AD
:10308000813009F063C026C0873079F1883098F527
:10309000863009F05BC025C08D3009F442C08E3007
:1030A00028F48B30B1F18C30C0F52DC0803109F49B
:1030B00042C0813109F445C08F3009F047C037C0A4
:1030C000809180008F7703C0809180008F7D8093F6
:1030D0008000089584B58F7702C084B58F7D84BD4C
:1030E00008958091B0008F7703C08091B0008F7DEC
:1030F0008093B0000895809190008F7707C08091F1
:1031000090008F7D03C080919000877F8093900016
:1031100008958091A0008F7707C08091A0008F7DD7
:1031200003C08091A000877F8093A00008958091C4
:1031300020018F7703C0809120018F7D8093200133
:10314000089580912001877F809320010895FF9248
:103150000F931F93F62E482F50E0CA01875F9D4FB3
:10316000FC012491CA018D539E4FFC0114914358D8
:103170005E4FFA0104910023C9F0222319F0822F37
:103180000E943318E02FF0E0EE0FFF1FE75BFE4FC9
:10319000A591B4919FB7F894FF2021F48C911095DC
:1031A000812302C08C91812B8C939FBF1F910F9123
:1031B000FF9008950F931F93482F50E0CA01875F37
:1031C0009D4FFC012491CA018D539E4FFC01049137
:1031D00043585E4FFA011491112319F420E030E0B6
:1031E00015C0222319F0822F0E943318812F90E0FE
:1031F000880F991F8D599E4FFC01A591B4918C9118
:1032000020E030E0802311F021E030E0C9011F917F
:103210000F91089580E090E00895EF92FF920F9350
:103220001F93CF93DF93162F072F7A01E90119829D
:10323000188285E597E00E94D510892BD1F0812F67
:10324000902F9C01890110C085E597E00E9406112E
:103250002FEF8F3F920741F0F80181938F01888112
:103260009981019699838883888199818E159F051C
:1032700058F380E090E0DF91CF911F910F91FF9084
:10328000EF900895EF92FF920F931F938A017901B7
:1032900085E597E00E940613F7011183008380E023
:1032A00090E01F910F91FF90EF9008950E94B21649
:1032B00085E597E040E052EC61E070E00E944E103E
:1032C00004C085E597E00E94061185E597E00E941D
:1032D000D510892BB1F780E090E00895AF92BF92AE
:1032E000CF92DF92EF92FF920F931F935C016A01DE
:1032F0007B0100E010E020E030E00E94C822C50120
:10330000B701A60101E010E020E030E00E94C822F1
:103310001F910F91FF90EF90DF90CF90BF90AF90F3
:10332000089560E070E080E090E00E94A02261E0FB
:1033300070E080E090E00E94A02208950F931F9318
:103340008C0160E070E080E090E0A8010E943722EC
:1033500061E070E080E090E0A8010E9437221F91B8
:103360000F910895CF92DF92EF92FF920F931F93E8
:10337000DF93CF9300D00F92CDB7DEB77C01809161
:103380000308909104088E159F050CF580910108A3
:1033900090910208009731F00E94200210920408D8
:1033A00010920308C7010E9476019093020880934F
:1033B0000108009741F400E010E083E0C82ED12C12
:1033C000CC0EDD1E1CC0F0920408E092030800E061
:1033D00010E06E010894C11CD11C27C08091FF072A
:1033E0009091000861E070E0A60125E038E00E94BD
:1033F0006833882311F58B819C81080F191F0E15E6
:103400001F0564F31AC0B701601B710B200F311F39
:103410008091FF0790910008A6010E9468338823DD
:1034200061F489819A81080F191F20910108309158
:1034300002080E151F053CF302C020E030E0C90170
:103440000F900F900F900F90CF91DF911F910F91E0
:10345000FF90EF90DF90CF900895AF92BF92CF9200
:10346000DF92FF920F931F93DF93CF93CDB7DEB719
:103470002A970FB6F894DEBF0FBECDBF8B016A014D
:10348000A0E0B0E08B839C83AD83BE83CB01AA27F1
:1034900097FDA095BA2F8F839887A987BA878091C7
:1034A000FF079091000868E070E0AE014D5F5F4F4C
:1034B0005E010894A11CB11C95010E946332F82E94
:1034C0008823B9F489819A81089799F4C114D104A9
:1034D00091F08091FF0790910008B801A601950135
:1034E0000E946332882329F489819A818017910789
:1034F00011F0FF24F3948F2D2A960FB6F894DEBFB7
:103500000FBECDBFCF91DF911F910F91FF90DF9044
:10351000CF90BF90AF900895AF92BF92CF92DF92BD
:10352000EF92FF920F931F93DF93CF93CDB7DEB748
:103530002C970FB6F894DEBF0FBECDBF7C016B0198
:10354000CA0159010E94B219FC010097D1F481E02F
:1035500090E0A0E0B0E08D839E83AF83B8878FEFCB
:103560009FEFAFEFBFEF89879A87AB87BC87C70113
:1035700068E070E0AE014B5F5F4F0E942D1A11E0D2
:103580004FC0008111812281338109831A832B83EB
:103590003C838BE1E816F10461F08CE1E816F1045C
:1035A00051F53496C601BF01A90198010E94A927CF
:1035B00006C03496C601B501AF010E949D2B182F9D
:1035C0008823C9F029813A814B815C8181E090E0B8
:1035D000A0E0B0E08D839E83AF83B88729873A87C8
:1035E0004B875C87C70168E070E0AE014B5F5F4FBF
:1035F0000E942D1A15C089819A81AB81BC811D82E0
:103600001E821F82188689879A87AB87BC87C7016D
:1036100068E070E0AE014B5F5F4F0E942D1A182FDB
:10362000812F2C960FB6F894DEBF0FBECDBFCF9181
:10363000DF911F910F91FF90EF90DF90CF90BF909F
:10364000AF900895EF92FF920F931F93DF93CF9364
:10365000CDB7DEB72C970FB6F894DEBF0FBECDBF47
:103660008C01CB017A010E94B219FC010097D1F4C0
:1036700081E090E0A0E0B0E08D839E83AF83B887C7
:103680008FEF9FEFAFEFBFEF89879A87AB87BC873C
:10369000C80168E070E0AE014B5F5F4F0E942D1AD9
:1036A00081E028C0608171818281938169837A83FE
:1036B0008B839C830D31110531F00E31110531F4EE
:1036C0000E945E2103C0A7010E94112189819A8175
:1036D000AB81BC811D821E821F82188689879A87D2
:1036E000AB87BC87C80168E070E0AE014B5F5F4FFD
:1036F0000E942D1A2C960FB6F894DEBF0FBECDBFD8
:10370000CF91DF911F910F91FF90EF9008950F934C
:103710001F938C011092FE071092FD0760E070E08D
:1037200080E090E0A8010E94902A61E070E080E0D3
:1037300090E0A8010E94902A8091FF0790910008D4
:103740000E9482311F910F910895CF92DF92EF92E4
:10375000FF920F931F936B017C0189019A01809165
:10376000FF0790910008B701A6010E9481311F91C7
:103770000F91FF90EF90DF90CF9008951F9380916D
:10378000FF07909100080E946831182F882361F488
:1037900060E070E080E090E00E94942961E070E0D9
:1037A00080E090E00E949429812F1F9108952F922C
:1037B0003F924F925F926F927F928F929F92AF92C1
:1037C000BF92CF92DF92EF92FF920F931F93DF93FE
:1037D000CF93CDB7DEB72A970FB6F894DEBF0FBEF2
:1037E000CDBF5B016C012A018091FE07882309F49B
:1037F0006FC08E010D5F1F4FC801B601A501920178
:103800000E94A02A1E010894211C311C09871A87D6
:1038100052C00D811E81060D171DF801E080F18058
:10382000428153818091FF0790910008B701910177
:103830000E946332882309F048C089819A818E15DD
:103840009F0509F042C0F801E480F5801E141F04B2
:103850008CF4468157818091FF0790910008B70151
:1038600091010E946332882381F589819A818E15A6
:103870009F0559F5C401880F991FEF81F885E80F5E
:10388000F91F80819181B601A5010E948A210894C7
:10389000811C911C88E090E0680E791E8B819C81D0
:1038A000881699060CF4B5CF89859A85B601A501CD
:1038B00092010E94A02A8B819C811816190644F45B
:1038C0008824992466247724E9CFC2010E94871BAB
:1038D0002A960FB6F894DEBF0FBECDBFCF91DF9111
:1038E0001F910F91FF90EF90DF90CF90BF90AF901E
:1038F0009F908F907F906F905F904F903F902F9010
:1039000008951F93CF93DF93EC0160E070E080E0B7
:1039100090E00E94F42060E070E080E090E0AE0172
:103920000E94D71B60E070E080E090E0AE010E9452
:10393000C2298091010890910208009731F00E94FD
:103940002002109202081092010861E070E080E00D
:1039500090E00E94F42061E070E080E090E0AE0131
:103960000E94D71B61E070E080E090E0AE010E9411
:10397000C2298091010890910208009731F00E94BD
:10398000200210920208109201088091FD078823FE
:1039900011F410E00BC084E190E060E070E040E0E2
:1039A00050E00E942D1A182F1092FD078091FE07FB
:1039B000882341F01092FE0781E090E09093080385
:1039C000809307038091FF07909100080E9487353C
:1039D0008091FF07909100080E948031812FDF9134
:1039E000CF911F9108952F923F924F925F926F92C5
:1039F0007F928F929F92AF92BF92CF92DF92EF927F
:103A0000FF920F931F93DF93CF93CDB7DEB7A097AD
:103A10000FB6F894DEBF0FBECDBF6C017B012A014B
:103A20008091FE07882359F48091FF079091000848
:103A30006EEF77E00E946A31882309F012C380910B
:103A4000FE07882309F40DC31A82198200E010E0F2
:103A500058E0652E712C4BE0842E912C8C0E9D1E0F
:103A60005E010894A11CB11CB301601B710B940191
:103A7000200F311F8091FF0790910008A5010E943F
:103A80006833282F882351F489819A81080F191FE0
:103A90000115110519F00830110534F389819A8157
:103AA000222309F0DBC2181619060CF0DAC2809145
:103AB000FD07882321F41B861C861D861E868B85A8
:103AC0009C85AD85BE8586309105A105B10509F4BB
:103AD00068C087309105A105B10510F582309105C8
:103AE000A105B10509F4BAC283309105A105B1055C
:103AF00058F40097A105B10509F468C00197A10524
:103B0000B10509F0AEC24BC284309105A105B105E3
:103B100009F458C10597A105B10509F0A2C281C1F8
:103B200089309105A105B10509F490C28A3091054B
:103B3000A105B10558F487309105A105B105D1F172
:103B40000897A105B10509F08CC226C08B309105FC
:103B5000A105B10509F476C28B309105A105B10527
:103B600008F463C20F97A105B10509F07AC2D60126
:103B70001696ED91FC91179780819181A281B38176
:103B80008B839C83AD83BE8385E190E064E070E02D
:103B9000AE014D5F5F4F2DC16F8578898DE190E05B
:103BA00059C24F8558898BE190E0B601970105E035
:103BB00013E009C04F8558898CE190E0B6012FEFE2
:103BC0003FEF06E013E00E948C1A4BC2D601149618
:103BD000ED91FC91159700811181F801F281FD8F23
:103BE000D8011396BC91BE8FF801F081FB8FD801EC
:103BF0001196BC91BC8F30E1832E912CA12CB12C5D
:103C00008B8A9C8AAD8ABE8A88E090E0A0E0B0E012
:103C10008F8B988FA98FBA8F23E1422E512C4C0E97
:103C20005D1E8091FF079091000868E070E0A2019E
:103C30003E010894611C711C93010E946332882329
:103C400009F0BAC089819A81089709F0B5C0F801D6
:103C5000E080F18088E090E0E80EF91EEE0CFF1C99
:103C6000EE0CFF1CC7010E9476018F8F98A38C0178
:103C70001C01009709F4A2C08B8A9C8AAD8ABE8A77
:103C8000C701AA2797FDA095BA2F8F8B988FA98F70
:103C9000BA8F8091FF079091000868E070E0A20160
:103CA00093010E946332882309F088C089819A8138
:103CB000089709F083C04B8D5C8DD6011296ED916B
:103CC000FC911397A080B180C280D380D801AD92BF
:103CD000BD92CD92DC921397A480B580C680D78028
:103CE0001496AD92BD92CD92DC921797A084B184C8
:103CF000C284D3841896AD92BD92CD92DC921B976C
:103D000084859585A685B785F80184879587A687DC
:103D1000B787D80150961D921D921D921C92539701
:103D200084E090E0A0E0B0E0848B958BA68BB78B0D
:103D30008091070390910803A0E0B0E0808F918FFD
:103D4000A28FB38FCA01AA2797FDA095BA2F848F9F
:103D5000958FA68FB78F2D8D3E8DC901BC012F8DFC
:103D600038A1C901FC0120E030E00CC0DB018D91DD
:103D70009D91BD01A0E0B0E0848F958FA68FB78F95
:103D80002F5F3F4F34962417350784F38091FF0748
:103D900090910008B701A8019E012F5F3F4F0E943C
:103DA0006332882359F489819A818E159F0531F4F5
:103DB00081E08093FD0702C022243324C1010E94C8
:103DC00020024FC18F8598890E94B219BC018E01D3
:103DD000095F1F4F009781F481E090E0A0E0B0E020
:103DE0008F839887A987BA8782E190E064E070E0CA
:103DF000A8010E942D1A35C1C6010E948F261F827C
:103E0000188619861A8682E190E064E070E0A801C5
:103E10000E942D1A882309F024C181E08093FC07B9
:103E200020C1D6011496ED91FC9115970190F08177
:103E3000E02DA084B184A114B10409F495C0D5018A
:103E40006D907C908280938000E010E060E070E0F4
:103E500040E050E021C0F501A281B381A40FB51F5D
:103E60001296ED91FC911397EE0FFF1FE80DF91DCF
:103E70002081318116968D919C911797DC012A9FA4
:103E8000C0012B9F900D3A9F900D1124080F191F10
:103E90006F5F7F4F485F5F4F66157705E4F283E100
:103EA00090E0A0E0B0E08B8B9C8BAD8BBE8BC8010B
:103EB000AA2797FDA095BA2F8F8B988FA98FBA8FBD
:103EC0008091FF079091000868E070E0AE014D5EC0
:103ED0005F4F6E010894C11CD11C96010E94633291
:103EE000882309F0BEC089819A81089709F0B9C07A
:103EF000EE24FF2400E010E0260132C0F501A2818B
:103F0000B381A00FB11F1296ED91FC911397EE0FA4
:103F1000FF1FE80DF91D2081318116968D919C912E
:103F20001797289F6001299FD00C389FD00C11242F
:103F30004D915C918091FF0790910008B60192012C
:103F40000E946332882309F08CC0085F1F4F89816B
:103F50009A818C159D0509F084C00894E11CF11C20
:103F6000E614F7045CF27DC083E190E0A0E0B0E0ED
:103F70008B8B9C8BAD8BBE8B1F8A188E198E1A8EE5
:103F80008091FF079091000868E070E0AE014D5EFF
:103F90005F4F9E012F5F3F4F0E94633262C081E1FD
:103FA00090E060E070E040E050E00E942D1A88232D
:103FB00009F057C060E070E080E090E00E94F420DB
:103FC00080910808882339F060E070E080E090E09C
:103FD000A7010E94D71B60E070E080E090E0A7019D
:103FE0000E94C22961E070E080E090E00E94F4202D
:103FF00080910808882339F061E070E080E090E06B
:10400000A7010E94D71B61E070E080E090E0A7016B
:104010000E94C2291092FE071092FD078091FF07AF
:10402000909100080E9477311CC081E090E090934D
:1040300007088093060886E190E060E070E040E0C9
:1040400050E0D7CE81E0D2018C930BC06F85788988
:104050008EE190E0A7010E94221B03C0C7010E94CD
:10406000871BA0960FB6F894DEBF0FBECDBFCF91D1
:10407000DF911F910F91FF90EF90DF90CF90BF9055
:10408000AF909F908F907F906F905F904F903F90F8
:104090002F9008950F931F938C0160E070E080E0F3
:1040A00090E0A8010E94D71B61E070E080E090E002
:1040B000A8010E94D71B1F910F9108958091FF07BF
:1040C000909100080E947A3108950F931F93CF9327
:1040D000DF93EC018B010E947D3190930008809367
:1040E000FF07009719F4C0E0D2E007C0BE01A801A5
:1040F0000E940535EC01009751F08091FF079091E7
:1041000000080E948031109200081092FF07CE0133
:10411000DF91CF911F910F9108950895089580E048
:1041200090E060E070E00E94652008950E94811C8C
:1041300008950E94BE1B08950E949E1908950E9432
:10414000911908950E946E190895CF93DF939C01F1
:10415000EB018091070390910803049731F0C901A6
:104160000E94F31CCE010E944A20DF91CF91089556
:10417000EF92FF920F931F93CF93DF937C018B01FC
:10418000EA010E945E20882399F41BC060E070E081
:1041900080E090E028ED38EB45E050E00E94A51B60
:1041A000C701B801AE010E94F31CC8010E944A2059
:1041B0008091060890910708892B19F4888188233B
:1041C00029F38091070390910803049731F083E06D
:1041D00090E09093080380930703DF91CF911F91A4
:1041E0000F91FF90EF90089524E430E0629FF0017A
:1041F000639FF00D729FF00D1124E75FF74F8289E6
:1042000093890497029760F485E090E0938B828B0A
:104210008FEF9FEFAFEFBFEF828F938FA48FB58F9C
:104220000895CF93DF9324E430E0629FD001639F31
:10423000B00D729FB00D1124A75FB74F1092080800
:104240009D961C921E929C9760E070E020E030E00A
:10425000C1E0D0E019C01A96ED91FC911B97E20FD6
:10426000F31F828193811816190654F48481958175
:10427000978386839187808713861286D183C08334
:104280006F5F7F4F225F3F4F6417750724F39B9644
:104290001C921E929A97D9961C921E92D897FD0155
:1042A000FE96108211821282138282E090E0539671
:1042B0009C938E935297DF91CF91089524E430E040
:1042C000629FF001639FF00D729FF00D1124E75F74
:1042D000F74F8289938981309105D8F08530910517
:1042E00018F00597B1F40DC08FEF9FEFAFEFBFEF60
:1042F000828F938FA48FB58F85E090E0938B828B14
:1043000008958FEF9FEFAFEFBFEF828F938FA48F52
:10431000B58F089524E430E0429FF001439FF00DF3
:10432000529FF00D1124E75FF74F9C01220F331FBE
:10433000C90143E0880F991F4A95E1F7821B930B4F
:104340000284F385E02DE80FF91F81E080930808CF
:1043500082859385918780872085318586819781A5
:1043600040E050E02817390711F441E050E0518354
:1043700040830895EF92FF920F931F93CF93DF93A3
:10438000DC01EA01F9011496ED90FC901597129664
:104390004D915C9113972881398118968D919C914C
:1043A00019978217930730F08D919C911197892B63
:1043B00009F43FC08701040F151FA801421B530BCE
:1043C00018968D919C9119978E199F09840F951FAE
:1043D000861797070CF443C0260F371F88819981F1
:1043E0002017310728F471836083938382832EC062
:1043F0005183408393838283CB01841B950B9583E8
:104400008483181619061CF080E090E004C014960E
:104410008D919C9115979783868314968D919C918D
:10442000159724813581820F931F9983888380E0BB
:1044300017C018968D919C911997821B930B861724
:1044400097076CF071836083338322831582148213
:104450001782168288819981860F971FE6CF81E0A7
:10446000DF91CF911F910F91FF90EF900895EF9200
:10447000FF920F931F93CF93DF937B018C01FA017F
:1044800084E490E0E89EE001E99ED00DF89ED00D16
:104490001124C75FD74F8A899B89009709F449C0C7
:1044A0000197C1F48AA59BA52A8D3B8D4C8D5D8D0E
:1044B00001969BA78AA70197AA2797FDA095BA2FD7
:1044C00082179307A407B507A1F5C801B701AF018B
:1044D0000E9411218A899B89039759F58AA59BA57A
:1044E0002E8D3F8D48A159A101969BA78AA70197C0
:1044F000AA2797FDA095BA2F82179307A407B5079F
:10450000C4F08EAD9FAD9BA78AA784E090E09B8B03
:104510008A8B8AAD9BADACADBDAD181619061A06D7
:104520001B063CF4FE01EE5BFF4F81E090E09183BF
:104530008083DF91CF911F910F91FF90EF900895AD
:1045400024E430E0629FF001639FF00D729FF00D54
:104550001124E75FF74F828993890097C1F0049790
:10456000B1F482A593A5019693A782A7AA2797FDE8
:10457000A095BA2F26893789408D518D82179307D0
:10458000A407B50721F485E090E0938B828B089512
:104590002F923F924F925F926F927F928F929F9253
:1045A000AF92BF92CF92DF92EF92FF920F931F9341
:1045B000DF93CF93CDB7DEB7CC54D0400FB6F8948D
:1045C000DEBF0FBECDBF27969FAF8EAF27974DA7FB
:1045D0005EA76FA778AB2B960CAF1DAF2EAF3FAF8A
:1045E0002B9784E490E029962EAD3FAD2997289F24
:1045F0004001299F900C389F900C112449E058E00D
:10460000840E951ED4011A960D90BC91A02D25966E
:10461000BFAFAEAF2597F40182899389029709F065
:1046200025C186A597A5A0A9B1A90097A105B105A7
:1046300029F484E090E0938B828B18C1D4015496C6
:104640008D919C9155972796EEADFFAD2797E81772
:10465000F90709F00BC1D6962D913C91D7973EAF43
:104660002DAF1DAA1EAA1FAA18AE1CAA1BAACBC03A
:10467000D401D2964D905C90D397EBA9FCA94E0E35
:104680005F1ED20112960D90BC91A02DBCAFABAFB6
:10469000B695A795B695A795BAAFA9AFF40180AD29
:1046A00091AD892B09F489C0E6A0F7A000A511A55A
:1046B0006DAC7EACD2012D903C9021961FAE1EAE0B
:1046C000219771C0F40182A193A1892B61F1D101DD
:1046D000AD90BD90CD90DC90C601B501A8019701C9
:1046E0000E948C4188235CF0F3016081718182819A
:1046F0009381A80197010E94303F87FD98C0C601B1
:10470000B501A80197010E948C41181664F4D301E9
:104710006D917D918D919C91A80197010E94303FF0
:10472000882309F484C0F40184A195A1892B61F147
:10473000D101AD90BD90CD90DC90C601B501A8012E
:1047400097010E94303F88235CF4F30160817181FE
:1047500082819381A80197010E948C4187FF67C0E5
:10476000C601B501A80197010E94303F882361F47A
:10477000D3016D917D918D919C91A80197010E942B
:104780008C4118160CF453C02196EEADFFAD219765
:1047900031962196FFAFEEAF219724E030E0620E14
:1047A000731E220E331E21964EAD5FAD219789AD4B
:1047B0009AAD481759070CF485CFD2016C91119628
:1047C0007C918DAD9EAD4BAD5CAD0E947802E9ADA4
:1047D000FAADEE0FFF1FEE0FFF1F2DAD3EAD2E0FFA
:1047E0003F1F3EAF2DAF8DA99EA9AFA9B8AD0196D1
:1047F000A11DB11D8DAB9EABAFABB8AFABA9BCA932
:104800001496BCABABABF40186A597A5A0A9B1A942
:104810002DA93EA94FA958AD281739074A075B07AC
:104820000CF426CF81E090E091AF80AF1FC0F4017F
:10483000868D978DA0A1B1A10097A105B10549F47E
:1048400084E090E0938B828B86AD97AD93A782A78F
:104850000DC083E090E0D40153969C938E935297C1
:1048600081E090E09B969C938E939A97F4018289C5
:1048700093898230910571F482AD93ADA4ADB5AD4D
:10488000181619061A061B060CF02FC2A1E02A2ED4
:10489000312C05C0049709F028C22224332427961E
:1048A0008EAD9FAD2797880F991F7C01E3E0EE0C3A
:1048B000FF1CEA95E1F7E81AF90A25962EAD3FADFF
:1048C0002597E20EF31ED70112966D917C911397F6
:1048D0006115710519F480E090E0FAC1F701868155
:1048E00097819A838983FE01799684E1DF011D9285
:1048F0008A95E9F72B962CAD3DAD4EAD5FAD2B976C
:1049000029A73AA74BA75CA72114310409F446C094
:10491000F401FE962081318142815381F40182AD00
:1049200093ADA4ADB5AD281739074A075B07B1F5BC
:10493000D70114964D915C911597640F751F1896C9
:10494000ED91FC91199784819581A681B7819C0195
:104950008B839C83AD83BE83285F3F4FF7018085A7
:104960009185820F931F9187808780859185861B13
:10497000970B97FD04C0480F591F518740873C8310
:104980002B83F401FE9680819181A281B3810197EE
:10499000A109B10980839183A283B383C70164E134
:1049A00070E08E010F5F1F4FA8019E012F5E3F4FE9
:1049B0000E94BA2190E0009709F08AC18D8D9E8DEA
:1049C000AF8DB8A10C96A11DB11D8D8F9E8FAF8F9D
:1049D000B8A3C70164E070E0A8019E01275F3F4FC4
:1049E0000E94BA21282F30E03AAB29AB232B09F0E3
:1049F0006DC18D8D9E8DAF8DB8A10496A11DB11D89
:104A00008D8F9E8FAF8FB8A38E01035D1F4F498599
:104A10005A858B859C85B8010E9478026F857889BC
:104A20006115710551F029853A85200F311F4D859B
:104A30005E85CB01B9010E9478021D821E821F8211
:104A4000188627964EAD5FAD2797440F551F2396C6
:104A50005FAF4EAF2397CE0105962D969FAF8EAFD9
:104A60002D97D4C0C901880F991F880F991FF40191
:104A7000A085B185A80FB91FED91FC911197E08138
:104A8000EE2309F4B8C0E33009F4B5C01296ED91F5
:104A9000FC91139723962EAD3FAD2397E20FF31FA2
:104AA000408051804114510409F4A5C089A19AA104
:104AB000ABA1BCA10196A11DB11D89A39AA3ABA373
:104AC000BCA3C70164E070E0AE014F5F5F4F9E0181
:104AD000275F3F4F0E94BA2190E0009709F0F8C08D
:104AE0008D8D9E8DAF8DB8A10496A11DB11D8D8FAA
:104AF0009E8FAF8FB8A349855A858B859C852C9650
:104B00006FAD2C972D967FAD2D970E9478026F8503
:104B100078896115710571F029853A8545E050E085
:104B20004C0F5D1F240F351F4D855E85CB01B901EC
:104B30000E947802AA24BB2465016624772450C011
:104B4000D20114960D911C911597060D171DF801B1
:104B500062817381C701AE014F5F5F4F9E01275F86
:104B60003F4F0E94BA2190E0009709F0B1C0D801F0
:104B700012962D913C911397442737FD4095542F61
:104B80008D8D9E8DAF8DB8A1820F931FA41FB51F71
:104B90008D8F9E8FAF8FB8A3F80160817181498599
:104BA0005A858B859C850E9478026F85788961156E
:104BB000710569F0D8012D913C9189859A85280F5E
:104BC000391F4D855E85CB01B9010E94780208949A
:104BD000A11CB11CC11CD11CE4E0F0E06E0E7F1ED4
:104BE000F20180819181A281B381A816B906CA061B
:104BF000DB060CF4A5CF8D819E81AF81B88501962F
:104C0000A11DB11D8D839E83AF83B8872D813E8109
:104C10004F815885F40184819581A681B781281739
:104C200039074A075B070CF41DCF89A19AA1ABA1F4
:104C3000BCA10097A105B10509F448C08AE190E044
:104C4000A0E0B0E0898F9A8FAB8FBC8F27962EADF6
:104C50003FAD2797C901AA2797FDA095BA2F8DA32D
:104C60009EA3AFA3B8A78E01075E1F4F49895A893B
:104C70008B899C89B8010E9478026F89788D6115B3
:104C8000710551F029893A89200F311F4D895E89BC
:104C9000CB01B9010E94780289819A81D7011796C8
:104CA0009C938E93169711961C921E922328E9F0DE
:104CB000F401FE9680819181A281B3810196A11DAC
:104CC000B11D80839183A283B3830FC089A99AA960
:104CD000232859F4892B49F081E090E0F40195A74D
:104CE00084A785E090E0938B828BC45BDF4F0FB687
:104CF000F894DEBF0FBECDBFCF91DF911F910F9112
:104D0000FF90EF90DF90CF90BF90AF909F908F90EB
:104D10007F906F905F904F903F902F9008952F92CB
:104D20003F924F925F926F927F928F929F92AF923B
:104D3000BF92CF92DF92EF92FF920F931F93DF9378
:104D4000CF93CDB7DEB768970FB6F894DEBF0FBE2E
:104D5000CDBFDC011496ED91FC9115970190F08187
:104D6000E02D80859185988F8F8BA281B381BE8B3A
:104D7000AD8BFB0181919191A191B19189839A832E
:104D8000AB83BC8366247724430165C09E012B5FFF
:104D90003F4FAF0180E1DA010D90AD01D9010D92D5
:104DA0009D018150C1F730E1432E512C4E0E5F1E04
:104DB0008D819E8123E0880F991F2A95E1F7EF8965
:104DC000F88DA281B381A80FB91F2D903C90119747
:104DD000E989FA89EE0FFF1F8D899E89E80FF91F77
:104DE0000190F081E02D14968D919C911597892B5F
:104DF00019F481E090E002C082E090E08E9F7001A3
:104E00008F9FF00C9E9FF00C11240027F7FC00955B
:104E1000102F2D853E854F855889C801B7010E9406
:104E200014425B016C0129853A854B855C85C8017C
:104E3000B7010E9414429101260F371FC901B20128
:104E4000A5010E947802F201EA0DFB1D0894611C85
:104E5000711C811C911C89819A81AB81BC8168166F
:104E600079068A069B060CF491CF68960FB6F894E3
:104E7000DEBF0FBECDBFCF91DF911F910F91FF908D
:104E8000EF90DF90CF90BF90AF909F908F907F90EA
:104E90006F905F904F903F902F900895CF93DF9346
:104EA00024E430E0629FE001639FD00D729FD00D3B
:104EB0001124C75FD74F8AA99BA9009721F00E94B0
:104EC00020021BAA1AAA8EA99FA9009721F00E946E
:104ED00020021FAA1EAA1B8A1A8A1E8A1F8A188EDF
:104EE000198E1A8E1B8E1C8E1D8E1E8E1F8E18A262
:104EF00019A281E090E09BA38AA31DA21CA280E0DE
:104F000090E0A0E0B0E08EA39FA3A8A7B9A71BA63E
:104F10001AA61DA61CA61EA61FA618AA19AA1BAA79
:104F20001AAA1DAA1CAA1FAA1EAA19AE18AE1AAE4A
:104F30001BAE1CAE1DAEFE01FE96108211821282C7
:104F40001382FE01EE5BFF4F11821082DF91CF9141
:104F500008952F923F924F925F926F927F928F921D
:104F60009F92AF92BF92CF92DF92EF92FF920F93F8
:104F70001F93DF93CF93CDB7DEB7AC970FB6F894FE
:104F8000DEBF0FBECDBF98A38F8F8B0129A33AA39D
:104F90004BA35CA3FB0181919191A191B191AF01D0
:104FA000BC0189839A83AB83BC8329A13AA184E4A1
:104FB00090E0289FF001299FF00D389FF00D1124FB
:104FC0009F01275F374F3EA32DA3D90155967C93B0
:104FD0006E9354979F01215E374FD80114964D90E0
:104FE0005D906D907C901797D9014D925D926D9276
:104FF0007C921397BA016C5F7F4F9F012D5D374FF5
:10500000DA0114964D905D906D907C901797D901C0
:105010004D925D926D927C921397AB014C5F5F4F06
:105020009F01295D374FDB0114964D905D906D9087
:105030007C901797D9014D925D926D927C92139757
:10504000E95CF74FDA0114964D905D906D907C907D
:1050500017974082518262827382FA013896FE8FDE
:10506000ED8F0DA11EA1025D1F4FC2011414150486
:105070000CF0C3C0880F991F880F991F0E947601FA
:105080009C018DA19EA1C296ADA1BEA1D3963C93D9
:105090002E93D297232B09F427C1222433242101F4
:1050A0001A8E198E18A70FA39AA789A7D496BCA702
:1050B000ABA788C0E9A5FAA50190F081E02D298D64
:1050C0003A8DE20FF31FFC8FEB8FDE011996ED8D09
:1050D000FE8D80E101900D928150E1F7AF8DB8A176
:1050E0001496ED91FC91159720813181D901169686
:1050F000ED91FC91179789859A8553E0880F991F48
:105100005A95E1F7A281B381A80FB91F6D907C90E9
:1051100011978D899E89880F991FF901228133810A
:10512000280F391FF9014081518114968D919C916E
:105130001597892B19F481E090E002C082E090E09D
:105140002D8D3E8D205F3F4F3E8F2D8F849F7001B0
:10515000859FF00C949FF00C11240027F7FC00951C
:10516000102F29893A894B895C89C801B7010E94AF
:1051700014424B015C016B012D853E854F8558899A
:10518000C801B7010E941442660E771EAB8DBC8D1C
:1051900011967C926E9213969C928E921297EBA52A
:1051A000FCA580819181C80ED91ED182C08208944D
:1051B000211C311C411C511C298D3A8D2C5F3F4F05
:1051C0003A8F298FEFA1F8A580819181A281B381C7
:1051D000281639064A065B060CF46CCFADA1BEA1B9
:1051E000D4968D919C91D5970E947601EDA1FEA158
:1051F00097AB86AB009709F477C0AD8DBE8D2C912F
:1052000011963C91119712964C91129713965C91BE
:105210002D833E834F835887C901DA01AC01BD015C
:10522000411551056105710539F0A0E0B0E042304B
:1052300051056105710511F4A1E0B0E029A13AA181
:1052400084E490E0289FF001299FF00D389FF00D35
:105250001124E75FF74FB3A3A2A315A214A24150F4
:10526000504060407040423051056105710520F4A6
:1052700081E090E095A384A384E490E0E9A1FAA101
:10528000E89F9001E99F300DF89F300D1124A9018E
:10529000415D574FED8DFE8D84819581A681B7814B
:1052A000FA0180839183A283B383F901E75FF74F0B
:1052B000268D378D40A151A157FF10C0882799270F
:1052C000DC01821B930BA40BB50B82AF93AFA4AF91
:1052D000B5AF168E178E10A211A204C012AE13AE77
:1052E00014AE15AE80E007C069A17AA18BA19CA184
:1052F0000E944E2781E0AC960FB6F894DEBF0FBE39
:10530000CDBFCF91DF911F910F91FF90EF90DF9074
:10531000CF90BF90AF909F908F907F906F905F9055
:105320004F903F902F900895CF93DF939B01AC0156
:1053300084E490E0289FF001299FF00D389FF00D44
:105340001124E75FF74FD901A75FBC4F8C918823E9
:1053500031F084E4EF0119928A95E9F71C921482E6
:105360001582168217821186108613861286118A7C
:10537000108A17861686CA01B9010E944E27DF914E
:10538000CF9108952F923F924F925F926F927F92AA
:105390008F929F92AF92BF92CF92DF92EF92FF9245
:1053A0000F931F93DF93CF9300D00F92CDB7DEB74B
:1053B0003B014C015A83498384E490E0689E70016C
:1053C000699EF00C789EF00C112489E098E0E80EBC
:1053D000F91EF70184819581A681B7810097A10507
:1053E000B10509F486C0AA24BB24650144245524D0
:1053F00035C0E40DF51D32802380232D322DC901E7
:105400009C838B8300E010E017C0AB81BC81ED91E1
:10541000FC91309751F0848195810E942002EB81AC
:10542000FC81808191810E9420020F5F1F4F8B8140
:105430009C8102969C838B83A981BA810A171B07E2
:1054400024F3832D922D0E9420020894A11CB11CEC
:10545000C11CD11CE4E0F0E04E0E5F1ED701149693
:105460002D913D914D915C9117971896ED91FC917E
:105470001997A216B306C406D5060CF4BACFCF010D
:105480000E942002F70182859385892BF1F000E0CC
:1054900010E0CC24DD240CC0EC0DFD1D8481958131
:1054A0000E9420020F5F1F4F8EE090E0C80ED91EB1
:1054B000D7011A96ED91FC911B9789819A81081763
:1054C000190754F3CF010E942002D70150968D9105
:1054D0009C9151970E942002F701868597850E9432
:1054E0002002C401B3010E944E27C401B3010E94EF
:1054F00094290F900F900F900F90CF91DF911F91F3
:105500000F91FF90EF90DF90CF90BF90AF909F9062
:105510008F907F906F905F904F903F902F90089565
:1055200024E430E0629FF001639FF00D729FF00D64
:105530001124E75FF74F138A128A0E94C229089547
:105540004F925F926F927F928F929F92AF92BF9293
:10555000CF92DF92EF92FF920F931F93DF93CF933F
:1055600000D00F92CDB7DEB75C0149835A836B83BD
:105570007C83290184E490E0489F8001499F100DBD
:10558000589F100D1124075F174FF80182899389E6
:105590000497029708F0B4C0F501118210821382BB
:1055A0001282F801158614868824992466247724AB
:1055B00060C0F80142855385460D571DFA01808170
:1055C0009181892B09F04EC0C084D184E280F380A0
:1055D00066817781F801848595859C01A3E0220F7F
:1055E000331FAA95E1F7A089B189A20FB31F880FD5
:1055F000991F26853785280F391FF90191828082EE
:10560000F801848595850196958784871396DC92A9
:10561000CE921297FA0173876287C616D70670F486
:105620006C197D0911967C936E9315961C921E92AF
:10563000149717961C921E92169714C0FA01848133
:105640009581E80EF91EEC18FD081196FC92EE9279
:10565000681B790B15967C936E93149717969C9301
:105660008E9316970894811C911C8EE090E0680E32
:10567000791E841495040CF49CCFF80184859585DB
:10568000F50191838083F80120893189F501338305
:105690002283F80126853785F50135832483892BFC
:1056A000B9F5F80182899389059791F51092080858
:1056B000828D938DA48DB58DAE014F5F5F4F8F5F4F
:1056C0009F4FAF4FBF4F71F480E290E064E070E015
:1056D0000E942D1A69817A818B819C81A2010E948E
:1056E000902A16C08FE190E064E070E00E942D1ACD
:1056F000F80113A612A681E090E0938B828B08C07C
:10570000F80115861486F501118210821382128227
:105710000F900F900F900F90CF91DF911F910F91ED
:10572000FF90EF90DF90CF90BF90AF909F908F90C1
:105730007F906F905F904F9008952F923F924F927D
:105740005F926F927F928F929F92AF92BF92CF9211
:10575000DF92EF92FF920F931F93DF93CF93CDB71A
:10576000DEB7E6970FB6F894DEBF0FBECDBF98AB9D
:105770008FA77AAB69AB7A010BAB1CAB2DAB3EAB01
:1057800084E490E04BA95CA9489F9001499F300DAB
:10579000589F300D1124275F374F3AA729A78BA9AF
:1057A0009CA9ADA9BEA9F90180839183A283B3838B
:1057B000BC01CD0149A95AA90E94C229D7012D9146
:1057C0003D914D915C91C901E9A5FAA524833583EA
:1057D0004683578364E070E00E945A01A9A5BAA5E8
:1057E00019969C938E931897009709F04FC104C2A5
:1057F000E9A5FAA50084F185E02D298D3A8DE20F07
:10580000F31FFEA7EDA70BA51CA5F80181919191AF
:10581000A191B1918F019C018D839E83AF83B88745
:10582000220F331FAFA5B8A9ED91FC91E20FF31F32
:1058300080819181EDA5FEA591838083EBA5FCA5D8
:1058400084819581A681B78189839A83AB83BC8348
:1058500089A99AA962E070E00E945A01ADA5BEA58F
:1058600013969C938E931297009709F4C5C1F80183
:105870003496FCA7EBA71F8E18A219A21AA2F7C094
:10588000EBA5FCA580819181A281B3819C018D83D0
:105890009E83AF83B887220F331FADA5BEA5129696
:1058A0000D911C911397020F131F81E090E068E0A7
:1058B00070E00E945A01F801808391838D819E815E
:1058C000880F991FADA5BEA51296ED91FC91139777
:1058D000E80FF91F608071806114710409F48CC1B4
:1058E0000BA51CA50C5F1F4FEBA5FCA524813581E2
:1058F00046815781C901D3012D933D934D935C930C
:10590000139764E070E00E945A01F3019583848349
:10591000009709F471C198012C5F3F4F3CA72BA75A
:105920002224332421011CA21BA28AC0D301149675
:105930000D90BC91A02DEBA1FCA1AE0FBF1FBEA38B
:10594000ADA3DE011996EBA5FCA580E101900D92B7
:105950008150E1F7AFA5B8A91496ED91FC91159788
:1059600020813181D9011696ED91FC911797898597
:105970009A8553E0880F991F5A95E1F7A281B38168
:10598000A80FB91FED91FC911197F8A7EFA38D898E
:105990009E89880F991FF90122813381280F391FB1
:1059A000F9014081518114968D919C911597892B15
:1059B00019F481E090E002C082E090E02BA53CA5C4
:1059C000205F3F4F3CA72BA7849F7001859FF00C61
:1059D000949FF00C11240027F7FC0095102F2989C3
:1059E0003A894B895C89C801B7010E9414425B0166
:1059F0006C012D853E854F855889C801B7010E94ED
:105A000014424FA158A5460F571FADA1BEA1119634
:105A10005C934E931396BC92AE921297F3018681DB
:105A200097818A0D9B1D978386830894211C311CC6
:105A3000411C511C2BA13CA12C5F3F4F3CA32BA32D
:105A4000F30180819181A281B381281639064A062B
:105A50005B060CF46BCF2F8D38A149A15AA12F5FA3
:105A60003F4F4F4F5F4F2F8F38A349A35AA38981D0
:105A70009A81AB81BC812F8D38A149A15AA12817E9
:105A800039074A075B070CF4FBCED8C0A7014C5F6F
:105A90005F4F5CA74BA71B8E1C8E1D8E1E8E1A8E11
:105AA000198EE9A5FAA584819581A681B7812B8DF0
:105AB0003C8D4D8D5E8D281739074A075B070CF426
:105AC00097CE89A99AA96EE070E00E945A01A9A513
:105AD000BAA51A968C931A971B969C934424552426
